{
  "contractName": "TraveldqToken",
  "abi": [
    {
      "inputs": [
        {
          "internalType": "address",
          "name": "usdcAddress",
          "type": "address"
        },
        {
          "internalType": "address",
          "name": "_airlinesAddress",
          "type": "address"
        },
        {
          "internalType": "address",
          "name": "_traveldqAddress",
          "type": "address"
        }
      ],
      "stateMutability": "nonpayable",
      "type": "constructor"
    },
    {
      "anonymous": false,
      "inputs": [
        {
          "indexed": true,
          "internalType": "address",
          "name": "owner",
          "type": "address"
        },
        {
          "indexed": true,
          "internalType": "address",
          "name": "approved",
          "type": "address"
        },
        {
          "indexed": true,
          "internalType": "uint256",
          "name": "tokenId",
          "type": "uint256"
        }
      ],
      "name": "Approval",
      "type": "event"
    },
    {
      "anonymous": false,
      "inputs": [
        {
          "indexed": true,
          "internalType": "address",
          "name": "owner",
          "type": "address"
        },
        {
          "indexed": true,
          "internalType": "address",
          "name": "operator",
          "type": "address"
        },
        {
          "indexed": false,
          "internalType": "bool",
          "name": "approved",
          "type": "bool"
        }
      ],
      "name": "ApprovalForAll",
      "type": "event"
    },
    {
      "anonymous": false,
      "inputs": [
        {
          "indexed": true,
          "internalType": "address",
          "name": "previousOwner",
          "type": "address"
        },
        {
          "indexed": true,
          "internalType": "address",
          "name": "newOwner",
          "type": "address"
        }
      ],
      "name": "OwnershipTransferred",
      "type": "event"
    },
    {
      "anonymous": false,
      "inputs": [
        {
          "indexed": false,
          "internalType": "address",
          "name": "account",
          "type": "address"
        }
      ],
      "name": "Paused",
      "type": "event"
    },
    {
      "anonymous": false,
      "inputs": [
        {
          "indexed": true,
          "internalType": "address",
          "name": "from",
          "type": "address"
        },
        {
          "indexed": true,
          "internalType": "address",
          "name": "to",
          "type": "address"
        },
        {
          "indexed": true,
          "internalType": "uint256",
          "name": "tokenId",
          "type": "uint256"
        }
      ],
      "name": "Transfer",
      "type": "event"
    },
    {
      "anonymous": false,
      "inputs": [
        {
          "indexed": false,
          "internalType": "address",
          "name": "account",
          "type": "address"
        }
      ],
      "name": "Unpaused",
      "type": "event"
    },
    {
      "inputs": [
        {
          "internalType": "uint256",
          "name": "",
          "type": "uint256"
        }
      ],
      "name": "_owners",
      "outputs": [
        {
          "internalType": "address",
          "name": "",
          "type": "address"
        }
      ],
      "stateMutability": "view",
      "type": "function",
      "constant": true
    },
    {
      "inputs": [],
      "name": "airlineFeePercentage",
      "outputs": [
        {
          "internalType": "uint256",
          "name": "",
          "type": "uint256"
        }
      ],
      "stateMutability": "view",
      "type": "function",
      "constant": true
    },
    {
      "inputs": [],
      "name": "airlinesAddress",
      "outputs": [
        {
          "internalType": "address",
          "name": "",
          "type": "address"
        }
      ],
      "stateMutability": "view",
      "type": "function",
      "constant": true
    },
    {
      "inputs": [
        {
          "internalType": "address",
          "name": "to",
          "type": "address"
        },
        {
          "internalType": "uint256",
          "name": "tokenId",
          "type": "uint256"
        }
      ],
      "name": "approve",
      "outputs": [],
      "stateMutability": "nonpayable",
      "type": "function"
    },
    {
      "inputs": [
        {
          "internalType": "address",
          "name": "owner",
          "type": "address"
        }
      ],
      "name": "balanceOf",
      "outputs": [
        {
          "internalType": "uint256",
          "name": "",
          "type": "uint256"
        }
      ],
      "stateMutability": "view",
      "type": "function",
      "constant": true
    },
    {
      "inputs": [
        {
          "internalType": "uint256",
          "name": "tokenId",
          "type": "uint256"
        }
      ],
      "name": "getApproved",
      "outputs": [
        {
          "internalType": "address",
          "name": "",
          "type": "address"
        }
      ],
      "stateMutability": "view",
      "type": "function",
      "constant": true
    },
    {
      "inputs": [
        {
          "internalType": "address",
          "name": "owner",
          "type": "address"
        },
        {
          "internalType": "address",
          "name": "operator",
          "type": "address"
        }
      ],
      "name": "isApprovedForAll",
      "outputs": [
        {
          "internalType": "bool",
          "name": "",
          "type": "bool"
        }
      ],
      "stateMutability": "view",
      "type": "function",
      "constant": true
    },
    {
      "inputs": [],
      "name": "name",
      "outputs": [
        {
          "internalType": "string",
          "name": "",
          "type": "string"
        }
      ],
      "stateMutability": "view",
      "type": "function",
      "constant": true
    },
    {
      "inputs": [],
      "name": "owner",
      "outputs": [
        {
          "internalType": "address",
          "name": "",
          "type": "address"
        }
      ],
      "stateMutability": "view",
      "type": "function",
      "constant": true
    },
    {
      "inputs": [
        {
          "internalType": "uint256",
          "name": "tokenId",
          "type": "uint256"
        }
      ],
      "name": "ownerOf",
      "outputs": [
        {
          "internalType": "address",
          "name": "",
          "type": "address"
        }
      ],
      "stateMutability": "view",
      "type": "function",
      "constant": true
    },
    {
      "inputs": [],
      "name": "paused",
      "outputs": [
        {
          "internalType": "bool",
          "name": "",
          "type": "bool"
        }
      ],
      "stateMutability": "view",
      "type": "function",
      "constant": true
    },
    {
      "inputs": [],
      "name": "renounceOwnership",
      "outputs": [],
      "stateMutability": "nonpayable",
      "type": "function"
    },
    {
      "inputs": [
        {
          "internalType": "address",
          "name": "from",
          "type": "address"
        },
        {
          "internalType": "address",
          "name": "to",
          "type": "address"
        },
        {
          "internalType": "uint256",
          "name": "tokenId",
          "type": "uint256"
        }
      ],
      "name": "safeTransferFrom",
      "outputs": [],
      "stateMutability": "nonpayable",
      "type": "function"
    },
    {
      "inputs": [
        {
          "internalType": "address",
          "name": "from",
          "type": "address"
        },
        {
          "internalType": "address",
          "name": "to",
          "type": "address"
        },
        {
          "internalType": "uint256",
          "name": "tokenId",
          "type": "uint256"
        },
        {
          "internalType": "bytes",
          "name": "data",
          "type": "bytes"
        }
      ],
      "name": "safeTransferFrom",
      "outputs": [],
      "stateMutability": "nonpayable",
      "type": "function"
    },
    {
      "inputs": [
        {
          "internalType": "address",
          "name": "operator",
          "type": "address"
        },
        {
          "internalType": "bool",
          "name": "approved",
          "type": "bool"
        }
      ],
      "name": "setApprovalForAll",
      "outputs": [],
      "stateMutability": "nonpayable",
      "type": "function"
    },
    {
      "inputs": [],
      "name": "symbol",
      "outputs": [
        {
          "internalType": "string",
          "name": "",
          "type": "string"
        }
      ],
      "stateMutability": "view",
      "type": "function",
      "constant": true
    },
    {
      "inputs": [
        {
          "internalType": "uint256",
          "name": "index",
          "type": "uint256"
        }
      ],
      "name": "tokenByIndex",
      "outputs": [
        {
          "internalType": "uint256",
          "name": "",
          "type": "uint256"
        }
      ],
      "stateMutability": "view",
      "type": "function",
      "constant": true
    },
    {
      "inputs": [
        {
          "internalType": "address",
          "name": "owner",
          "type": "address"
        },
        {
          "internalType": "uint256",
          "name": "index",
          "type": "uint256"
        }
      ],
      "name": "tokenOfOwnerByIndex",
      "outputs": [
        {
          "internalType": "uint256",
          "name": "",
          "type": "uint256"
        }
      ],
      "stateMutability": "view",
      "type": "function",
      "constant": true
    },
    {
      "inputs": [
        {
          "internalType": "uint256",
          "name": "tokenId",
          "type": "uint256"
        }
      ],
      "name": "tokenURI",
      "outputs": [
        {
          "internalType": "string",
          "name": "",
          "type": "string"
        }
      ],
      "stateMutability": "view",
      "type": "function",
      "constant": true
    },
    {
      "inputs": [],
      "name": "totalSupply",
      "outputs": [
        {
          "internalType": "uint256",
          "name": "",
          "type": "uint256"
        }
      ],
      "stateMutability": "view",
      "type": "function",
      "constant": true
    },
    {
      "inputs": [
        {
          "internalType": "address",
          "name": "from",
          "type": "address"
        },
        {
          "internalType": "address",
          "name": "to",
          "type": "address"
        },
        {
          "internalType": "uint256",
          "name": "tokenId",
          "type": "uint256"
        }
      ],
      "name": "transferFrom",
      "outputs": [],
      "stateMutability": "nonpayable",
      "type": "function"
    },
    {
      "inputs": [
        {
          "internalType": "address",
          "name": "newOwner",
          "type": "address"
        }
      ],
      "name": "transferOwnership",
      "outputs": [],
      "stateMutability": "nonpayable",
      "type": "function"
    },
    {
      "inputs": [],
      "name": "traveldqAddress",
      "outputs": [
        {
          "internalType": "address",
          "name": "",
          "type": "address"
        }
      ],
      "stateMutability": "view",
      "type": "function",
      "constant": true
    },
    {
      "inputs": [],
      "name": "traveldqFeePercentage",
      "outputs": [
        {
          "internalType": "uint256",
          "name": "",
          "type": "uint256"
        }
      ],
      "stateMutability": "view",
      "type": "function",
      "constant": true
    },
    {
      "inputs": [],
      "name": "usdc",
      "outputs": [
        {
          "internalType": "contract IERC20",
          "name": "",
          "type": "address"
        }
      ],
      "stateMutability": "view",
      "type": "function",
      "constant": true
    },
    {
      "inputs": [
        {
          "internalType": "address",
          "name": "_airlinesAddress",
          "type": "address"
        }
      ],
      "name": "setAirlinesAddress",
      "outputs": [],
      "stateMutability": "nonpayable",
      "type": "function"
    },
    {
      "inputs": [
        {
          "internalType": "address",
          "name": "_traveldqAddress",
          "type": "address"
        }
      ],
      "name": "setTraveldqAddress",
      "outputs": [],
      "stateMutability": "nonpayable",
      "type": "function"
    },
    {
      "inputs": [
        {
          "internalType": "address",
          "name": "to",
          "type": "address"
        },
        {
          "internalType": "string",
          "name": "airlineCode",
          "type": "string"
        },
        {
          "internalType": "string",
          "name": "pnr",
          "type": "string"
        },
        {
          "internalType": "uint256",
          "name": "travelDate",
          "type": "uint256"
        },
        {
          "internalType": "uint256",
          "name": "flightTime",
          "type": "uint256"
        }
      ],
      "name": "mintTicket",
      "outputs": [],
      "stateMutability": "nonpayable",
      "type": "function"
    },
    {
      "inputs": [],
      "name": "pause",
      "outputs": [],
      "stateMutability": "nonpayable",
      "type": "function"
    },
    {
      "inputs": [],
      "name": "unpause",
      "outputs": [],
      "stateMutability": "nonpayable",
      "type": "function"
    },
    {
      "inputs": [
        {
          "internalType": "uint256",
          "name": "tokenId",
          "type": "uint256"
        },
        {
          "internalType": "address",
          "name": "buyer",
          "type": "address"
        },
        {
          "internalType": "uint256",
          "name": "salePrice",
          "type": "uint256"
        }
      ],
      "name": "sellTicket",
      "outputs": [],
      "stateMutability": "nonpayable",
      "type": "function"
    },
    {
      "inputs": [
        {
          "internalType": "uint256",
          "name": "newAirlineFeePercentage",
          "type": "uint256"
        },
        {
          "internalType": "uint256",
          "name": "newTraveldqFeePercentage",
          "type": "uint256"
        }
      ],
      "name": "setDistributionRatios",
      "outputs": [],
      "stateMutability": "nonpayable",
      "type": "function"
    },
    {
      "inputs": [
        {
          "internalType": "uint256",
          "name": "tokenId",
          "type": "uint256"
        }
      ],
      "name": "getTicketDetails",
      "outputs": [
        {
          "components": [
            {
              "internalType": "string",
              "name": "airlineCode",
              "type": "string"
            },
            {
              "internalType": "string",
              "name": "pnr",
              "type": "string"
            },
            {
              "internalType": "uint256",
              "name": "travelDate",
              "type": "uint256"
            },
            {
              "internalType": "uint256",
              "name": "flightTime",
              "type": "uint256"
            }
          ],
          "internalType": "struct TraveldqToken.TicketMetadata",
          "name": "",
          "type": "tuple"
        }
      ],
      "stateMutability": "view",
      "type": "function",
      "constant": true
    },
    {
      "inputs": [
        {
          "internalType": "bytes4",
          "name": "interfaceId",
          "type": "bytes4"
        }
      ],
      "name": "supportsInterface",
      "outputs": [
        {
          "internalType": "bool",
          "name": "",
          "type": "bool"
        }
      ],
      "stateMutability": "view",
      "type": "function",
      "constant": true
    }
  ],
  "bytecode": "0x60806040526005600d556005600e553480156200001b57600080fd5b50604051620050c3380380620050c38339818101604052810190620000419190620004ef565b6040518060400160405280600d81526020017f54726176656c6471546f6b656e000000000000000000000000000000000000008152506040518060400160405280600381526020017f54445400000000000000000000000000000000000000000000000000000000008152508160009080519060200190620000c592919062000428565b508060019080519060200190620000de92919062000428565b5050506000600a60006101000a81548160ff0219169083151502179055506200011c620001106200020860201b60201c565b6200021060201b60201c565b6200013c620001306200020860201b60201c565b620002d660201b60201c565b82600c60006101000a81548173ffffffffffffffffffffffffffffffffffffffff021916908373ffffffffffffffffffffffffffffffffffffffff16021790555081600f60006101000a81548173ffffffffffffffffffffffffffffffffffffffff021916908373ffffffffffffffffffffffffffffffffffffffff16021790555080601060006101000a81548173ffffffffffffffffffffffffffffffffffffffff021916908373ffffffffffffffffffffffffffffffffffffffff16021790555050505062000713565b600033905090565b6000600a60019054906101000a900473ffffffffffffffffffffffffffffffffffffffff16905081600a60016101000a81548173ffffffffffffffffffffffffffffffffffffffff021916908373ffffffffffffffffffffffffffffffffffffffff1602179055508173ffffffffffffffffffffffffffffffffffffffff168173ffffffffffffffffffffffffffffffffffffffff167f8be0079c531659141344cd1fd0a4f28419497f9722a3daafe3b4186f6b6457e060405160405180910390a35050565b620002e66200036d60201b60201c565b600073ffffffffffffffffffffffffffffffffffffffff168173ffffffffffffffffffffffffffffffffffffffff16141562000359576040517f08c379a0000000000000000000000000000000000000000000000000000000008152600401620003509062000593565b60405180910390fd5b6200036a816200021060201b60201c565b50565b6200037d6200020860201b60201c565b73ffffffffffffffffffffffffffffffffffffffff16620003a3620003fe60201b60201c565b73ffffffffffffffffffffffffffffffffffffffff1614620003fc576040517f08c379a0000000000000000000000000000000000000000000000000000000008152600401620003f390620005b5565b60405180910390fd5b565b6000600a60019054906101000a900473ffffffffffffffffffffffffffffffffffffffff16905090565b82805462000436906200061c565b90600052602060002090601f0160209004810192826200045a5760008555620004a6565b82601f106200047557805160ff1916838001178555620004a6565b82800160010185558215620004a6579182015b82811115620004a557825182559160200191906001019062000488565b5b509050620004b59190620004b9565b5090565b5b80821115620004d4576000816000905550600101620004ba565b5090565b600081519050620004e981620006f9565b92915050565b6000806000606084860312156200050557600080fd5b60006200051586828701620004d8565b93505060206200052886828701620004d8565b92505060406200053b86828701620004d8565b9150509250925092565b600062000554602683620005d7565b9150620005618262000681565b604082019050919050565b60006200057b602083620005d7565b91506200058882620006d0565b602082019050919050565b60006020820190508181036000830152620005ae8162000545565b9050919050565b60006020820190508181036000830152620005d0816200056c565b9050919050565b600082825260208201905092915050565b6000620005f582620005fc565b9050919050565b600073ffffffffffffffffffffffffffffffffffffffff82169050919050565b600060028204905060018216806200063557607f821691505b602082108114156200064c576200064b62000652565b5b50919050565b7f4e487b7100000000000000000000000000000000000000000000000000000000600052602260045260246000fd5b7f4f776e61626c653a206e6577206f776e657220697320746865207a65726f206160008201527f6464726573730000000000000000000000000000000000000000000000000000602082015250565b7f4f776e61626c653a2063616c6c6572206973206e6f7420746865206f776e6572600082015250565b6200070481620005e8565b81146200071057600080fd5b50565b6149a080620007236000396000f3fe608060405234801561001057600080fd5b50600436106102065760003560e01c80635c975abb1161011a578063a22cb465116100ad578063b9e610c91161007c578063b9e610c9146105b1578063c87b56dd146105cf578063cb626036146105ff578063e985e9c51461061d578063f2fde38b1461064d57610206565b8063a22cb4651461053f578063b247a9c21461055b578063b88d4fde14610579578063b92ab4771461059557610206565b80638456cb59116100e95780638456cb59146104c95780638da5cb5b146104d357806395d89b41146104f1578063992924a61461050f57610206565b80635c975abb146104415780636352211e1461045f57806370a082311461048f578063715018a6146104bf57610206565b806324c141601161019d5780633e413bee1161016c5780633e413bee146103b15780633f4ba83a146103cf57806342842e0e146103d95780634ef4df36146103f55780634f6ccce71461041157610206565b806324c141601461031957806325f029da146103495780632f745c59146103655780633ae05b301461039557610206565b8063081812fc116101d9578063081812fc14610293578063095ea7b3146102c357806318160ddd146102df57806323b872dd146102fd57610206565b806301ffc9a71461020b578063053ba53d1461023b57806306fdde031461025957806307dfef8614610277575b600080fd5b610225600480360381019061022091906134b3565b610669565b6040516102329190613b54565b60405180910390f35b61024361067b565b6040516102509190613ab6565b60405180910390f35b6102616106a1565b60405161026e9190613b8a565b60405180910390f35b610291600480360381019061028c919061323c565b610733565b005b6102ad60048036038101906102a89190613505565b6107ef565b6040516102ba9190613ab6565b60405180910390f35b6102dd60048036038101906102d8919061344e565b610835565b005b6102e761094d565b6040516102f49190613ece565b60405180910390f35b610317600480360381019061031291906132a1565b61095a565b005b610333600480360381019061032e9190613505565b6109ba565b6040516103409190613eac565b60405180910390f35b610363600480360381019061035e91906133a7565b610b97565b005b61037f600480360381019061037a919061344e565b610c51565b60405161038c9190613ece565b60405180910390f35b6103af60048036038101906103aa919061352e565b610cf6565b005b6103b9611171565b6040516103c69190613b6f565b60405180910390f35b6103d7611197565b005b6103f360048036038101906103ee91906132a1565b6111a9565b005b61040f600480360381019061040a919061323c565b6111c9565b005b61042b60048036038101906104269190613505565b611285565b6040516104389190613ece565b60405180910390f35b61044961131c565b6040516104569190613b54565b60405180910390f35b61047960048036038101906104749190613505565b611333565b6040516104869190613ab6565b60405180910390f35b6104a960048036038101906104a4919061323c565b6113ba565b6040516104b69190613ece565b60405180910390f35b6104c7611472565b005b6104d1611486565b005b6104db611498565b6040516104e89190613ab6565b60405180910390f35b6104f96114c2565b6040516105069190613b8a565b60405180910390f35b61052960048036038101906105249190613505565b611554565b6040516105369190613ab6565b60405180910390f35b6105596004803603810190610554919061336b565b611587565b005b61056361159d565b6040516105709190613ece565b60405180910390f35b610593600480360381019061058e91906132f0565b6115a3565b005b6105af60048036038101906105aa919061357d565b611605565b005b6105b961161f565b6040516105c69190613ece565b60405180910390f35b6105e960048036038101906105e49190613505565b611625565b6040516105f69190613b8a565b60405180910390f35b61060761168d565b6040516106149190613ab6565b60405180910390f35b61063760048036038101906106329190613265565b6116b3565b6040516106449190613b54565b60405180910390f35b6106676004803603810190610662919061323c565b611747565b005b6000610674826117cb565b9050919050565b600f60009054906101000a900473ffffffffffffffffffffffffffffffffffffffff1681565b6060600080546106b09061415d565b80601f01602080910402602001604051908101604052809291908181526020018280546106dc9061415d565b80156107295780601f106106fe57610100808354040283529160200191610729565b820191906000526020600020905b81548152906001019060200180831161070c57829003601f168201915b5050505050905090565b61073b611845565b600073ffffffffffffffffffffffffffffffffffffffff168173ffffffffffffffffffffffffffffffffffffffff1614156107ab576040517f08c379a00000000000000000000000000000000000000000000000000000000081526004016107a290613c2c565b60405180910390fd5b80600f60006101000a81548173ffffffffffffffffffffffffffffffffffffffff021916908373ffffffffffffffffffffffffffffffffffffffff16021790555050565b60006107fa826118c3565b6004600083815260200190815260200160002060009054906101000a900473ffffffffffffffffffffffffffffffffffffffff169050919050565b600061084082611333565b90508073ffffffffffffffffffffffffffffffffffffffff168373ffffffffffffffffffffffffffffffffffffffff1614156108b1576040517f08c379a00000000000000000000000000000000000000000000000000000000081526004016108a890613e0c565b60405180910390fd5b8073ffffffffffffffffffffffffffffffffffffffff166108d061190e565b73ffffffffffffffffffffffffffffffffffffffff1614806108ff57506108fe816108f961190e565b6116b3565b5b61093e576040517f08c379a000000000000000000000000000000000000000000000000000000000815260040161093590613e2c565b60405180910390fd5b6109488383611916565b505050565b6000600880549050905090565b61096b61096561190e565b826119cf565b6109aa576040517f08c379a00000000000000000000000000000000000000000000000000000000081526004016109a190613c0c565b60405180910390fd5b6109b5838383611a64565b505050565b6109c2613023565b600073ffffffffffffffffffffffffffffffffffffffff166109e383611d5e565b73ffffffffffffffffffffffffffffffffffffffff161415610a3a576040517f08c379a0000000000000000000000000000000000000000000000000000000008152600401610a3190613bcc565b60405180910390fd5b60116000838152602001908152602001600020604051806080016040529081600082018054610a689061415d565b80601f0160208091040260200160405190810160405280929190818152602001828054610a949061415d565b8015610ae15780601f10610ab657610100808354040283529160200191610ae1565b820191906000526020600020905b815481529060010190602001808311610ac457829003601f168201915b50505050508152602001600182018054610afa9061415d565b80601f0160208091040260200160405190810160405280929190818152602001828054610b269061415d565b8015610b735780601f10610b4857610100808354040283529160200191610b73565b820191906000526020600020905b815481529060010190602001808311610b5657829003601f168201915b50505050508152602001600282015481526020016003820154815250509050919050565b610b9f611845565b6000600b6000815480929190610bb4906141c0565b919050559050604051806080016040528086815260200185815260200184815260200183815250601160008381526020019081526020016000206000820151816000019080519060200190610c0a92919061304b565b506020820151816001019080519060200190610c2792919061304b565b506040820151816002015560608201518160030155905050610c498682611d9b565b505050505050565b6000610c5c836113ba565b8210610c9d576040517f08c379a0000000000000000000000000000000000000000000000000000000008152600401610c9490613c4c565b60405180910390fd5b600660008473ffffffffffffffffffffffffffffffffffffffff1673ffffffffffffffffffffffffffffffffffffffff168152602001908152602001600020600083815260200190815260200160002054905092915050565b6002600084815260200190815260200160002060009054906101000a900473ffffffffffffffffffffffffffffffffffffffff1673ffffffffffffffffffffffffffffffffffffffff168273ffffffffffffffffffffffffffffffffffffffff161415610d98576040517f08c379a0000000000000000000000000000000000000000000000000000000008152600401610d8f90613dcc565b60405180910390fd5b610da230846119cf565b610de1576040517f08c379a0000000000000000000000000000000000000000000000000000000008152600401610dd890613e4c565b60405180910390fd5b612a306011600085815260200190815260200160002060030154610e05919061404f565b421115610e47576040517f08c379a0000000000000000000000000000000000000000000000000000000008152600401610e3e90613d2c565b60405180910390fd5b60006064600d5483610e599190613ff5565b610e639190613fc4565b905060006064600e5484610e779190613ff5565b610e819190613fc4565b90506000818385610e92919061404f565b610e9c919061404f565b9050600c60009054906101000a900473ffffffffffffffffffffffffffffffffffffffff1673ffffffffffffffffffffffffffffffffffffffff166323b872dd86600f60009054906101000a900473ffffffffffffffffffffffffffffffffffffffff16866040518463ffffffff1660e01b8152600401610f1f93929190613ad1565b602060405180830381600087803b158015610f3957600080fd5b505af1158015610f4d573d6000803e3d6000fd5b505050506040513d601f19601f82011682018060405250810190610f71919061348a565b50600c60009054906101000a900473ffffffffffffffffffffffffffffffffffffffff1673ffffffffffffffffffffffffffffffffffffffff166323b872dd86601060009054906101000a900473ffffffffffffffffffffffffffffffffffffffff16856040518463ffffffff1660e01b8152600401610ff393929190613ad1565b602060405180830381600087803b15801561100d57600080fd5b505af1158015611021573d6000803e3d6000fd5b505050506040513d601f19601f82011682018060405250810190611045919061348a565b50600c60009054906101000a900473ffffffffffffffffffffffffffffffffffffffff1673ffffffffffffffffffffffffffffffffffffffff166323b872dd86600260008a815260200190815260200160002060009054906101000a900473ffffffffffffffffffffffffffffffffffffffff16846040518463ffffffff1660e01b81526004016110d893929190613ad1565b602060405180830381600087803b1580156110f257600080fd5b505af1158015611106573d6000803e3d6000fd5b505050506040513d601f19601f8201168201806040525081019061112a919061348a565b506111696002600088815260200190815260200160002060009054906101000a900473ffffffffffffffffffffffffffffffffffffffff168688611a64565b505050505050565b600c60009054906101000a900473ffffffffffffffffffffffffffffffffffffffff1681565b61119f611845565b6111a7611db9565b565b6111c4838383604051806020016040528060008152506115a3565b505050565b6111d1611845565b600073ffffffffffffffffffffffffffffffffffffffff168173ffffffffffffffffffffffffffffffffffffffff161415611241576040517f08c379a000000000000000000000000000000000000000000000000000000000815260040161123890613c2c565b60405180910390fd5b80601060006101000a81548173ffffffffffffffffffffffffffffffffffffffff021916908373ffffffffffffffffffffffffffffffffffffffff16021790555050565b600061128f61094d565b82106112d0576040517f08c379a00000000000000000000000000000000000000000000000000000000081526004016112c790613e6c565b60405180910390fd5b6008828154811061130a577f4e487b7100000000000000000000000000000000000000000000000000000000600052603260045260246000fd5b90600052602060002001549050919050565b6000600a60009054906101000a900460ff16905090565b60008061133f83611d5e565b9050600073ffffffffffffffffffffffffffffffffffffffff168173ffffffffffffffffffffffffffffffffffffffff1614156113b1576040517f08c379a00000000000000000000000000000000000000000000000000000000081526004016113a890613dec565b60405180910390fd5b80915050919050565b60008073ffffffffffffffffffffffffffffffffffffffff168273ffffffffffffffffffffffffffffffffffffffff16141561142b576040517f08c379a000000000000000000000000000000000000000000000000000000000815260040161142290613d6c565b60405180910390fd5b600360008373ffffffffffffffffffffffffffffffffffffffff1673ffffffffffffffffffffffffffffffffffffffff168152602001908152602001600020549050919050565b61147a611845565b6114846000611e1c565b565b61148e611845565b611496611ee2565b565b6000600a60019054906101000a900473ffffffffffffffffffffffffffffffffffffffff16905090565b6060600180546114d19061415d565b80601f01602080910402602001604051908101604052809291908181526020018280546114fd9061415d565b801561154a5780601f1061151f5761010080835404028352916020019161154a565b820191906000526020600020905b81548152906001019060200180831161152d57829003601f168201915b5050505050905090565b60026020528060005260406000206000915054906101000a900473ffffffffffffffffffffffffffffffffffffffff1681565b61159961159261190e565b8383611f45565b5050565b600d5481565b6115b46115ae61190e565b836119cf565b6115f3576040517f08c379a00000000000000000000000000000000000000000000000000000000081526004016115ea90613c0c565b60405180910390fd5b6115ff848484846120b2565b50505050565b61160d611845565b81600d8190555080600e819055505050565b600e5481565b6060611630826118c3565b600061163a61210e565b9050600081511161165a5760405180602001604052806000815250611685565b8061166484612125565b604051602001611675929190613a92565b6040516020818303038152906040525b915050919050565b601060009054906101000a900473ffffffffffffffffffffffffffffffffffffffff1681565b6000600560008473ffffffffffffffffffffffffffffffffffffffff1673ffffffffffffffffffffffffffffffffffffffff16815260200190815260200160002060008373ffffffffffffffffffffffffffffffffffffffff1673ffffffffffffffffffffffffffffffffffffffff16815260200190815260200160002060009054906101000a900460ff16905092915050565b61174f611845565b600073ffffffffffffffffffffffffffffffffffffffff168173ffffffffffffffffffffffffffffffffffffffff1614156117bf576040517f08c379a00000000000000000000000000000000000000000000000000000000081526004016117b690613c8c565b60405180910390fd5b6117c881611e1c565b50565b60007f780e9d63000000000000000000000000000000000000000000000000000000007bffffffffffffffffffffffffffffffffffffffffffffffffffffffff1916827bffffffffffffffffffffffffffffffffffffffffffffffffffffffff1916148061183e575061183d82612249565b5b9050919050565b61184d61190e565b73ffffffffffffffffffffffffffffffffffffffff1661186b611498565b73ffffffffffffffffffffffffffffffffffffffff16146118c1576040517f08c379a00000000000000000000000000000000000000000000000000000000081526004016118b890613dac565b60405180910390fd5b565b6118cc8161232b565b61190b576040517f08c379a000000000000000000000000000000000000000000000000000000000815260040161190290613dec565b60405180910390fd5b50565b600033905090565b816004600083815260200190815260200160002060006101000a81548173ffffffffffffffffffffffffffffffffffffffff021916908373ffffffffffffffffffffffffffffffffffffffff160217905550808273ffffffffffffffffffffffffffffffffffffffff1661198983611333565b73ffffffffffffffffffffffffffffffffffffffff167f8c5be1e5ebec7d5bd14f71427d1e84f3dd0314c0f7b2291e5b200ac8c7c3b92560405160405180910390a45050565b6000806119db83611333565b90508073ffffffffffffffffffffffffffffffffffffffff168473ffffffffffffffffffffffffffffffffffffffff161480611a1d5750611a1c81856116b3565b5b80611a5b57508373ffffffffffffffffffffffffffffffffffffffff16611a43846107ef565b73ffffffffffffffffffffffffffffffffffffffff16145b91505092915050565b8273ffffffffffffffffffffffffffffffffffffffff16611a8482611333565b73ffffffffffffffffffffffffffffffffffffffff1614611ada576040517f08c379a0000000000000000000000000000000000000000000000000000000008152600401611ad190613cac565b60405180910390fd5b600073ffffffffffffffffffffffffffffffffffffffff168273ffffffffffffffffffffffffffffffffffffffff161415611b4a576040517f08c379a0000000000000000000000000000000000000000000000000000000008152600401611b4190613cec565b60405180910390fd5b611b57838383600161236c565b8273ffffffffffffffffffffffffffffffffffffffff16611b7782611333565b73ffffffffffffffffffffffffffffffffffffffff1614611bcd576040517f08c379a0000000000000000000000000000000000000000000000000000000008152600401611bc490613cac565b60405180910390fd5b6004600082815260200190815260200160002060006101000a81549073ffffffffffffffffffffffffffffffffffffffff02191690556001600360008573ffffffffffffffffffffffffffffffffffffffff1673ffffffffffffffffffffffffffffffffffffffff168152602001908152602001600020600082825403925050819055506001600360008473ffffffffffffffffffffffffffffffffffffffff1673ffffffffffffffffffffffffffffffffffffffff16815260200190815260200160002060008282540192505081905550816002600083815260200190815260200160002060006101000a81548173ffffffffffffffffffffffffffffffffffffffff021916908373ffffffffffffffffffffffffffffffffffffffff160217905550808273ffffffffffffffffffffffffffffffffffffffff168473ffffffffffffffffffffffffffffffffffffffff167fddf252ad1be2c89b69c2b068fc378daa952ba7f163c4a11628f55a4df523b3ef60405160405180910390a4611d59838383600161237e565b505050565b60006002600083815260200190815260200160002060009054906101000a900473ffffffffffffffffffffffffffffffffffffffff169050919050565b611db5828260405180602001604052806000815250612384565b5050565b611dc16123df565b6000600a60006101000a81548160ff0219169083151502179055507f5db9ee0a495bf2e6ff9c91a7834c1ba4fdd244a5e8aa4e537bd38aeae4b073aa611e0561190e565b604051611e129190613ab6565b60405180910390a1565b6000600a60019054906101000a900473ffffffffffffffffffffffffffffffffffffffff16905081600a60016101000a81548173ffffffffffffffffffffffffffffffffffffffff021916908373ffffffffffffffffffffffffffffffffffffffff1602179055508173ffffffffffffffffffffffffffffffffffffffff168173ffffffffffffffffffffffffffffffffffffffff167f8be0079c531659141344cd1fd0a4f28419497f9722a3daafe3b4186f6b6457e060405160405180910390a35050565b611eea612428565b6001600a60006101000a81548160ff0219169083151502179055507f62e78cea01bee320cd4e420270b5ea74000d11b0c9f74754ebdbfc544b05a258611f2e61190e565b604051611f3b9190613ab6565b60405180910390a1565b8173ffffffffffffffffffffffffffffffffffffffff168373ffffffffffffffffffffffffffffffffffffffff161415611fb4576040517f08c379a0000000000000000000000000000000000000000000000000000000008152600401611fab90613d0c565b60405180910390fd5b80600560008573ffffffffffffffffffffffffffffffffffffffff1673ffffffffffffffffffffffffffffffffffffffff16815260200190815260200160002060008473ffffffffffffffffffffffffffffffffffffffff1673ffffffffffffffffffffffffffffffffffffffff16815260200190815260200160002060006101000a81548160ff0219169083151502179055508173ffffffffffffffffffffffffffffffffffffffff168373ffffffffffffffffffffffffffffffffffffffff167f17307eab39ab6107e8899845ad3d59bd9653f200f220920489ca2b5937696c31836040516120a59190613b54565b60405180910390a3505050565b6120bd848484611a64565b6120c984848484612472565b612108576040517f08c379a00000000000000000000000000000000000000000000000000000000081526004016120ff90613c6c565b60405180910390fd5b50505050565b606060405180602001604052806000815250905090565b60606000600161213484612609565b01905060008167ffffffffffffffff811115612179577f4e487b7100000000000000000000000000000000000000000000000000000000600052604160045260246000fd5b6040519080825280601f01601f1916602001820160405280156121ab5781602001600182028036833780820191505090505b509050600082602001820190505b60011561223e578080600190039150507f3031323334353637383961626364656600000000000000000000000000000000600a86061a8153600a8581612228577f4e487b7100000000000000000000000000000000000000000000000000000000600052601260045260246000fd5b04945060008514156122395761223e565b6121b9565b819350505050919050565b60007f80ac58cd000000000000000000000000000000000000000000000000000000007bffffffffffffffffffffffffffffffffffffffffffffffffffffffff1916827bffffffffffffffffffffffffffffffffffffffffffffffffffffffff1916148061231457507f5b5e139f000000000000000000000000000000000000000000000000000000007bffffffffffffffffffffffffffffffffffffffffffffffffffffffff1916827bffffffffffffffffffffffffffffffffffffffffffffffffffffffff1916145b80612324575061232382612840565b5b9050919050565b60008073ffffffffffffffffffffffffffffffffffffffff1661234d83611d5e565b73ffffffffffffffffffffffffffffffffffffffff1614159050919050565b612378848484846128aa565b50505050565b50505050565b61238e8383612904565b61239b6000848484612472565b6123da576040517f08c379a00000000000000000000000000000000000000000000000000000000081526004016123d190613c6c565b60405180910390fd5b505050565b6123e761131c565b612426576040517f08c379a000000000000000000000000000000000000000000000000000000000815260040161241d90613bec565b60405180910390fd5b565b61243061131c565b15612470576040517f08c379a000000000000000000000000000000000000000000000000000000000815260040161246790613d4c565b60405180910390fd5b565b60006124938473ffffffffffffffffffffffffffffffffffffffff16612b22565b156125fc578373ffffffffffffffffffffffffffffffffffffffff1663150b7a026124bc61190e565b8786866040518563ffffffff1660e01b81526004016124de9493929190613b08565b602060405180830381600087803b1580156124f857600080fd5b505af192505050801561252957506040513d601f19601f8201168201806040525081019061252691906134dc565b60015b6125ac573d8060008114612559576040519150601f19603f3d011682016040523d82523d6000602084013e61255e565b606091505b506000815114156125a4576040517f08c379a000000000000000000000000000000000000000000000000000000000815260040161259b90613c6c565b60405180910390fd5b805181602001fd5b63150b7a0260e01b7bffffffffffffffffffffffffffffffffffffffffffffffffffffffff1916817bffffffffffffffffffffffffffffffffffffffffffffffffffffffff191614915050612601565b600190505b949350505050565b600080600090507a184f03e93ff9f4daa797ed6e38ed64bf6a1f010000000000000000831061268d577a184f03e93ff9f4daa797ed6e38ed64bf6a1f0100000000000000008381612683577f4e487b7100000000000000000000000000000000000000000000000000000000600052601260045260246000fd5b0492506040810190505b6d04ee2d6d415b85acef810000000083106126f0576d04ee2d6d415b85acef810000000083816126e6577f4e487b7100000000000000000000000000000000000000000000000000000000600052601260045260246000fd5b0492506020810190505b662386f26fc10000831061274557662386f26fc10000838161273b577f4e487b7100000000000000000000000000000000000000000000000000000000600052601260045260246000fd5b0492506010810190505b6305f5e1008310612794576305f5e100838161278a577f4e487b7100000000000000000000000000000000000000000000000000000000600052601260045260246000fd5b0492506008810190505b61271083106127df5761271083816127d5577f4e487b7100000000000000000000000000000000000000000000000000000000600052601260045260246000fd5b0492506004810190505b60648310612828576064838161281e577f4e487b7100000000000000000000000000000000000000000000000000000000600052601260045260246000fd5b0492506002810190505b600a8310612837576001810190505b80915050919050565b60007f01ffc9a7000000000000000000000000000000000000000000000000000000007bffffffffffffffffffffffffffffffffffffffffffffffffffffffff1916827bffffffffffffffffffffffffffffffffffffffffffffffffffffffff1916149050919050565b6128b684848484612b45565b6128be61131c565b156128fe576040517f08c379a00000000000000000000000000000000000000000000000000000000081526004016128f590613bac565b60405180910390fd5b50505050565b600073ffffffffffffffffffffffffffffffffffffffff168273ffffffffffffffffffffffffffffffffffffffff161415612974576040517f08c379a000000000000000000000000000000000000000000000000000000000815260040161296b90613d8c565b60405180910390fd5b61297d8161232b565b156129bd576040517f08c379a00000000000000000000000000000000000000000000000000000000081526004016129b490613ccc565b60405180910390fd5b6129cb60008383600161236c565b6129d48161232b565b15612a14576040517f08c379a0000000000000000000000000000000000000000000000000000000008152600401612a0b90613ccc565b60405180910390fd5b6001600360008473ffffffffffffffffffffffffffffffffffffffff1673ffffffffffffffffffffffffffffffffffffffff16815260200190815260200160002060008282540192505081905550816002600083815260200190815260200160002060006101000a81548173ffffffffffffffffffffffffffffffffffffffff021916908373ffffffffffffffffffffffffffffffffffffffff160217905550808273ffffffffffffffffffffffffffffffffffffffff16600073ffffffffffffffffffffffffffffffffffffffff167fddf252ad1be2c89b69c2b068fc378daa952ba7f163c4a11628f55a4df523b3ef60405160405180910390a4612b1e60008383600161237e565b5050565b6000808273ffffffffffffffffffffffffffffffffffffffff163b119050919050565b612b5184848484612ca5565b6001811115612b95576040517f08c379a0000000000000000000000000000000000000000000000000000000008152600401612b8c90613e8c565b60405180910390fd5b6000829050600073ffffffffffffffffffffffffffffffffffffffff168573ffffffffffffffffffffffffffffffffffffffff161415612bdd57612bd881612cab565b612c1c565b8373ffffffffffffffffffffffffffffffffffffffff168573ffffffffffffffffffffffffffffffffffffffff1614612c1b57612c1a8582612cf4565b5b5b600073ffffffffffffffffffffffffffffffffffffffff168473ffffffffffffffffffffffffffffffffffffffff161415612c5f57612c5a81612e61565b612c9e565b8473ffffffffffffffffffffffffffffffffffffffff168473ffffffffffffffffffffffffffffffffffffffff1614612c9d57612c9c8482612fa4565b5b5b5050505050565b50505050565b6008805490506009600083815260200190815260200160002081905550600881908060018154018082558091505060019003906000526020600020016000909190919091505550565b60006001612d01846113ba565b612d0b919061404f565b9050600060076000848152602001908152602001600020549050818114612df0576000600660008673ffffffffffffffffffffffffffffffffffffffff1673ffffffffffffffffffffffffffffffffffffffff168152602001908152602001600020600084815260200190815260200160002054905080600660008773ffffffffffffffffffffffffffffffffffffffff1673ffffffffffffffffffffffffffffffffffffffff168152602001908152602001600020600084815260200190815260200160002081905550816007600083815260200190815260200160002081905550505b6007600084815260200190815260200160002060009055600660008573ffffffffffffffffffffffffffffffffffffffff1673ffffffffffffffffffffffffffffffffffffffff16815260200190815260200160002060008381526020019081526020016000206000905550505050565b60006001600880549050612e75919061404f565b9050600060096000848152602001908152602001600020549050600060088381548110612ecb577f4e487b7100000000000000000000000000000000000000000000000000000000600052603260045260246000fd5b906000526020600020015490508060088381548110612f13577f4e487b7100000000000000000000000000000000000000000000000000000000600052603260045260246000fd5b906000526020600020018190555081600960008381526020019081526020016000208190555060096000858152602001908152602001600020600090556008805480612f88577f4e487b7100000000000000000000000000000000000000000000000000000000600052603160045260246000fd5b6001900381819060005260206000200160009055905550505050565b6000612faf836113ba565b905081600660008573ffffffffffffffffffffffffffffffffffffffff1673ffffffffffffffffffffffffffffffffffffffff168152602001908152602001600020600083815260200190815260200160002081905550806007600084815260200190815260200160002081905550505050565b6040518060800160405280606081526020016060815260200160008152602001600081525090565b8280546130579061415d565b90600052602060002090601f01602090048101928261307957600085556130c0565b82601f1061309257805160ff19168380011785556130c0565b828001600101855582156130c0579182015b828111156130bf5782518255916020019190600101906130a4565b5b5090506130cd91906130d1565b5090565b5b808211156130ea5760008160009055506001016130d2565b5090565b60006131016130fc84613f0e565b613ee9565b90508281526020810184848401111561311957600080fd5b61312484828561411b565b509392505050565b600061313f61313a84613f3f565b613ee9565b90508281526020810184848401111561315757600080fd5b61316284828561411b565b509392505050565b6000813590506131798161490e565b92915050565b60008135905061318e81614925565b92915050565b6000815190506131a381614925565b92915050565b6000813590506131b88161493c565b92915050565b6000815190506131cd8161493c565b92915050565b600082601f8301126131e457600080fd5b81356131f48482602086016130ee565b91505092915050565b600082601f83011261320e57600080fd5b813561321e84826020860161312c565b91505092915050565b60008135905061323681614953565b92915050565b60006020828403121561324e57600080fd5b600061325c8482850161316a565b91505092915050565b6000806040838503121561327857600080fd5b60006132868582860161316a565b92505060206132978582860161316a565b9150509250929050565b6000806000606084860312156132b657600080fd5b60006132c48682870161316a565b93505060206132d58682870161316a565b92505060406132e686828701613227565b9150509250925092565b6000806000806080858703121561330657600080fd5b60006133148782880161316a565b94505060206133258782880161316a565b935050604061333687828801613227565b925050606085013567ffffffffffffffff81111561335357600080fd5b61335f878288016131d3565b91505092959194509250565b6000806040838503121561337e57600080fd5b600061338c8582860161316a565b925050602061339d8582860161317f565b9150509250929050565b600080600080600060a086880312156133bf57600080fd5b60006133cd8882890161316a565b955050602086013567ffffffffffffffff8111156133ea57600080fd5b6133f6888289016131fd565b945050604086013567ffffffffffffffff81111561341357600080fd5b61341f888289016131fd565b935050606061343088828901613227565b925050608061344188828901613227565b9150509295509295909350565b6000806040838503121561346157600080fd5b600061346f8582860161316a565b925050602061348085828601613227565b9150509250929050565b60006020828403121561349c57600080fd5b60006134aa84828501613194565b91505092915050565b6000602082840312156134c557600080fd5b60006134d3848285016131a9565b91505092915050565b6000602082840312156134ee57600080fd5b60006134fc848285016131be565b91505092915050565b60006020828403121561351757600080fd5b600061352584828501613227565b91505092915050565b60008060006060848603121561354357600080fd5b600061355186828701613227565b93505060206135628682870161316a565b925050604061357386828701613227565b9150509250925092565b6000806040838503121561359057600080fd5b600061359e85828601613227565b92505060206135af85828601613227565b9150509250929050565b6135c281614083565b82525050565b6135d181614095565b82525050565b60006135e282613f70565b6135ec8185613f86565b93506135fc81856020860161412a565b613605816142c5565b840191505092915050565b613619816140f7565b82525050565b600061362a82613f7b565b6136348185613f97565b935061364481856020860161412a565b61364d816142c5565b840191505092915050565b600061366382613f7b565b61366d8185613fa8565b935061367d81856020860161412a565b613686816142c5565b840191505092915050565b600061369c82613f7b565b6136a68185613fb9565b93506136b681856020860161412a565b80840191505092915050565b60006136cf602b83613fa8565b91506136da826142d6565b604082019050919050565b60006136f2602b83613fa8565b91506136fd82614325565b604082019050919050565b6000613715601483613fa8565b915061372082614374565b602082019050919050565b6000613738602d83613fa8565b91506137438261439d565b604082019050919050565b600061375b600f83613fa8565b9150613766826143ec565b602082019050919050565b600061377e602b83613fa8565b915061378982614415565b604082019050919050565b60006137a1603283613fa8565b91506137ac82614464565b604082019050919050565b60006137c4602683613fa8565b91506137cf826144b3565b604082019050919050565b60006137e7602583613fa8565b91506137f282614502565b604082019050919050565b600061380a601c83613fa8565b915061381582614551565b602082019050919050565b600061382d602483613fa8565b91506138388261457a565b604082019050919050565b6000613850601983613fa8565b915061385b826145c9565b602082019050919050565b6000613873602683613fa8565b915061387e826145f2565b604082019050919050565b6000613896601083613fa8565b91506138a182614641565b602082019050919050565b60006138b9602983613fa8565b91506138c48261466a565b604082019050919050565b60006138dc602083613fa8565b91506138e7826146b9565b602082019050919050565b60006138ff602083613fa8565b915061390a826146e2565b602082019050919050565b6000613922602383613fa8565b915061392d8261470b565b604082019050919050565b6000613945601883613fa8565b91506139508261475a565b602082019050919050565b6000613968602183613fa8565b915061397382614783565b604082019050919050565b600061398b603d83613fa8565b9150613996826147d2565b604082019050919050565b60006139ae603183613fa8565b91506139b982614821565b604082019050919050565b60006139d1602c83613fa8565b91506139dc82614870565b604082019050919050565b60006139f4603583613fa8565b91506139ff826148bf565b604082019050919050565b60006080830160008301518482036000860152613a27828261361f565b91505060208301518482036020860152613a41828261361f565b9150506040830151613a566040860182613a74565b506060830151613a696060860182613a74565b508091505092915050565b613a7d816140ed565b82525050565b613a8c816140ed565b82525050565b6000613a9e8285613691565b9150613aaa8284613691565b91508190509392505050565b6000602082019050613acb60008301846135b9565b92915050565b6000606082019050613ae660008301866135b9565b613af360208301856135b9565b613b006040830184613a83565b949350505050565b6000608082019050613b1d60008301876135b9565b613b2a60208301866135b9565b613b376040830185613a83565b8181036060830152613b4981846135d7565b905095945050505050565b6000602082019050613b6960008301846135c8565b92915050565b6000602082019050613b846000830184613610565b92915050565b60006020820190508181036000830152613ba48184613658565b905092915050565b60006020820190508181036000830152613bc5816136c2565b9050919050565b60006020820190508181036000830152613be5816136e5565b9050919050565b60006020820190508181036000830152613c0581613708565b9050919050565b60006020820190508181036000830152613c258161372b565b9050919050565b60006020820190508181036000830152613c458161374e565b9050919050565b60006020820190508181036000830152613c6581613771565b9050919050565b60006020820190508181036000830152613c8581613794565b9050919050565b60006020820190508181036000830152613ca5816137b7565b9050919050565b60006020820190508181036000830152613cc5816137da565b9050919050565b60006020820190508181036000830152613ce5816137fd565b9050919050565b60006020820190508181036000830152613d0581613820565b9050919050565b60006020820190508181036000830152613d2581613843565b9050919050565b60006020820190508181036000830152613d4581613866565b9050919050565b60006020820190508181036000830152613d6581613889565b9050919050565b60006020820190508181036000830152613d85816138ac565b9050919050565b60006020820190508181036000830152613da5816138cf565b9050919050565b60006020820190508181036000830152613dc5816138f2565b9050919050565b60006020820190508181036000830152613de581613915565b9050919050565b60006020820190508181036000830152613e0581613938565b9050919050565b60006020820190508181036000830152613e258161395b565b9050919050565b60006020820190508181036000830152613e458161397e565b9050919050565b60006020820190508181036000830152613e65816139a1565b9050919050565b60006020820190508181036000830152613e85816139c4565b9050919050565b60006020820190508181036000830152613ea5816139e7565b9050919050565b60006020820190508181036000830152613ec68184613a0a565b905092915050565b6000602082019050613ee36000830184613a83565b92915050565b6000613ef3613f04565b9050613eff828261418f565b919050565b6000604051905090565b600067ffffffffffffffff821115613f2957613f28614296565b5b613f32826142c5565b9050602081019050919050565b600067ffffffffffffffff821115613f5a57613f59614296565b5b613f63826142c5565b9050602081019050919050565b600081519050919050565b600081519050919050565b600082825260208201905092915050565b600082825260208201905092915050565b600082825260208201905092915050565b600081905092915050565b6000613fcf826140ed565b9150613fda836140ed565b925082613fea57613fe9614238565b5b828204905092915050565b6000614000826140ed565b915061400b836140ed565b9250817fffffffffffffffffffffffffffffffffffffffffffffffffffffffffffffffff048311821515161561404457614043614209565b5b828202905092915050565b600061405a826140ed565b9150614065836140ed565b92508282101561407857614077614209565b5b828203905092915050565b600061408e826140cd565b9050919050565b60008115159050919050565b60007fffffffff0000000000000000000000000000000000000000000000000000000082169050919050565b600073ffffffffffffffffffffffffffffffffffffffff82169050919050565b6000819050919050565b600061410282614109565b9050919050565b6000614114826140cd565b9050919050565b82818337600083830152505050565b60005b8381101561414857808201518184015260208101905061412d565b83811115614157576000848401525b50505050565b6000600282049050600182168061417557607f821691505b6020821081141561418957614188614267565b5b50919050565b614198826142c5565b810181811067ffffffffffffffff821117156141b7576141b6614296565b5b80604052505050565b60006141cb826140ed565b91507fffffffffffffffffffffffffffffffffffffffffffffffffffffffffffffffff8214156141fe576141fd614209565b5b600182019050919050565b7f4e487b7100000000000000000000000000000000000000000000000000000000600052601160045260246000fd5b7f4e487b7100000000000000000000000000000000000000000000000000000000600052601260045260246000fd5b7f4e487b7100000000000000000000000000000000000000000000000000000000600052602260045260246000fd5b7f4e487b7100000000000000000000000000000000000000000000000000000000600052604160045260246000fd5b6000601f19601f8301169050919050565b7f4552433732315061757361626c653a20746f6b656e207472616e73666572207760008201527f68696c6520706175736564000000000000000000000000000000000000000000602082015250565b7f4552433732314d657461646174613a20517565727920666f72206e6f6e65786960008201527f7374656e7420746f6b656e000000000000000000000000000000000000000000602082015250565b7f5061757361626c653a206e6f7420706175736564000000000000000000000000600082015250565b7f4552433732313a2063616c6c6572206973206e6f7420746f6b656e206f776e6560008201527f72206f7220617070726f76656400000000000000000000000000000000000000602082015250565b7f496e76616c696420616464726573730000000000000000000000000000000000600082015250565b7f455243373231456e756d657261626c653a206f776e657220696e646578206f7560008201527f74206f6620626f756e6473000000000000000000000000000000000000000000602082015250565b7f4552433732313a207472616e7366657220746f206e6f6e20455243373231526560008201527f63656976657220696d706c656d656e7465720000000000000000000000000000602082015250565b7f4f776e61626c653a206e6577206f776e657220697320746865207a65726f206160008201527f6464726573730000000000000000000000000000000000000000000000000000602082015250565b7f4552433732313a207472616e736665722066726f6d20696e636f72726563742060008201527f6f776e6572000000000000000000000000000000000000000000000000000000602082015250565b7f4552433732313a20746f6b656e20616c7265616479206d696e74656400000000600082015250565b7f4552433732313a207472616e7366657220746f20746865207a65726f2061646460008201527f7265737300000000000000000000000000000000000000000000000000000000602082015250565b7f4552433732313a20617070726f766520746f2063616c6c657200000000000000600082015250565b7f526573616c652070726f6869626974656420636c6f736520746f20666c69676860008201527f742074696d650000000000000000000000000000000000000000000000000000602082015250565b7f5061757361626c653a2070617573656400000000000000000000000000000000600082015250565b7f4552433732313a2061646472657373207a65726f206973206e6f74206120766160008201527f6c6964206f776e65720000000000000000000000000000000000000000000000602082015250565b7f4552433732313a206d696e7420746f20746865207a65726f2061646472657373600082015250565b7f4f776e61626c653a2063616c6c6572206973206e6f7420746865206f776e6572600082015250565b7f4552433732313a2062757965722063616e206e6f74206265207468652073656c60008201527f6c65720000000000000000000000000000000000000000000000000000000000602082015250565b7f4552433732313a20696e76616c696420746f6b656e2049440000000000000000600082015250565b7f4552433732313a20617070726f76616c20746f2063757272656e74206f776e6560008201527f7200000000000000000000000000000000000000000000000000000000000000602082015250565b7f4552433732313a20617070726f76652063616c6c6572206973206e6f7420746f60008201527f6b656e206f776e6572206f7220617070726f76656420666f7220616c6c000000602082015250565b7f4552433732313a207472616e736665722063616c6c6572206973206e6f74206f60008201527f776e6572206e6f7220617070726f766564000000000000000000000000000000602082015250565b7f455243373231456e756d657261626c653a20676c6f62616c20696e646578206f60008201527f7574206f6620626f756e64730000000000000000000000000000000000000000602082015250565b7f455243373231456e756d657261626c653a20636f6e736563757469766520747260008201527f616e7366657273206e6f7420737570706f727465640000000000000000000000602082015250565b61491781614083565b811461492257600080fd5b50565b61492e81614095565b811461493957600080fd5b50565b614945816140a1565b811461495057600080fd5b50565b61495c816140ed565b811461496757600080fd5b5056fea264697066735822122003466a0d3cf19f456e53e3e94a968742ca85eb721d436665f1a836f92e9dfaf864736f6c63430008010033",
  "immutableReferences": {},
  "source": "// SPDX-License-Identifier: MIT\n// Compatible with OpenZeppelin Contracts ^5.0.0\npragma solidity ^0.8.1;\n\nimport \"@openzeppelin/contracts/token/ERC721/ERC721.sol\";\nimport \"@openzeppelin/contracts/token/ERC721/extensions/ERC721Enumerable.sol\";\nimport \"@openzeppelin/contracts/token/ERC721/extensions/ERC721Pausable.sol\";\nimport \"@openzeppelin/contracts/access/Ownable.sol\";\nimport \"@openzeppelin/contracts/token/ERC20/IERC20.sol\";\n\ncontract TraveldqToken is ERC721, ERC721Enumerable, ERC721Pausable, Ownable {\n    uint256 private _nextTokenId;\n\n    IERC20 public usdc; // USDC token interface\n\n    uint256 public airlineFeePercentage = 5;\n    uint256 public traveldqFeePercentage = 5;\n    address public airlinesAddress;\n    address public traveldqAddress;\n\n    // Metadata structure for each ticket\n    struct TicketMetadata {\n        string airlineCode;\n        string pnr;\n        uint256 travelDate;\n        uint256 flightTime;\n    }\n\n    // Setter for airlinesAddress\n    function setAirlinesAddress(address _airlinesAddress) public onlyOwner {\n        require(_airlinesAddress != address(0), \"Invalid address\");\n        airlinesAddress = _airlinesAddress;\n    }\n\n    // Setter for traveldqAddress\n    function setTraveldqAddress(address _traveldqAddress) public onlyOwner {\n        require(_traveldqAddress != address(0), \"Invalid address\");\n        traveldqAddress = _traveldqAddress;\n    }\n\n    mapping(uint256 => TicketMetadata) private _ticketDetails;\n\n    constructor(address usdcAddress, address _airlinesAddress, address _traveldqAddress)\n        ERC721(\"TraveldqToken\", \"TDT\")\n    {\n        transferOwnership(_msgSender());\n        usdc = IERC20(usdcAddress);\n        airlinesAddress = _airlinesAddress;\n        traveldqAddress = _traveldqAddress;\n    }\n\n\n    function mintTicket(address to, string memory airlineCode, string memory pnr, uint256 travelDate, uint256 flightTime) public onlyOwner {\n        uint256 tokenId = _nextTokenId++;\n        _ticketDetails[tokenId] = TicketMetadata(airlineCode, pnr, travelDate, flightTime);\n        _safeMint(to, tokenId);\n    }\n\n    function pause() public onlyOwner {\n        _pause();\n    }\n\n    function unpause() public onlyOwner {\n        _unpause();\n    }\n\n    function sellTicket(uint256 tokenId, address buyer, uint256 salePrice) public {\n        require(buyer != _owners[tokenId], \"ERC721: buyer can not be the seller\");\n        require(_isApprovedOrOwner(address(this), tokenId), \"ERC721: transfer caller is not owner nor approved\");\n        require(block.timestamp <= _ticketDetails[tokenId].flightTime - 3 hours, \"Resale prohibited close to flight time\");\n\n        uint256 airlineFee = (salePrice * airlineFeePercentage) / 100;\n        uint256 traveldqFee = (salePrice * traveldqFeePercentage) / 100;\n        uint256 sellerRevenue = salePrice - airlineFee - traveldqFee;\n\n        usdc.transferFrom(buyer, airlinesAddress, airlineFee);\n        usdc.transferFrom(buyer, traveldqAddress, traveldqFee);\n        usdc.transferFrom(buyer, _owners[tokenId], sellerRevenue);\n\n        _transfer(_owners[tokenId], buyer, tokenId);\n    }\n\n    function setDistributionRatios(uint256 newAirlineFeePercentage, uint256 newTraveldqFeePercentage) public onlyOwner {\n        airlineFeePercentage = newAirlineFeePercentage;\n        traveldqFeePercentage = newTraveldqFeePercentage;\n    }\n\n    function getTicketDetails(uint256 tokenId) public view returns (TicketMetadata memory) {\n        require(_ownerOf(tokenId) != address(0), \"ERC721Metadata: Query for nonexistent token\");\n        return _ticketDetails[tokenId];\n    }\n\n    function supportsInterface(bytes4 interfaceId)\n        public\n        view\n        override(ERC721, ERC721Enumerable)\n        returns (bool)\n    {\n        return super.supportsInterface(interfaceId);\n    }\n\n    function _beforeTokenTransfer(\n        address from,\n        address to,\n        uint256 tokenId,\n        uint256 batchSize\n    ) internal virtual override(ERC721, ERC721Pausable, ERC721Enumerable) {\n        super._beforeTokenTransfer(from, to, tokenId, batchSize);\n\n        // do stuff before every transfer\n        // e.g. check that vote (other than when minted) \n        // being transferred to registered candidate\n    }\n\n\n}\n",
  "sourcePath": "/Users/atpuroh/Downloads/Workspace/traveldq-contract/contracts/TraveldqToken.sol",
  "compiler": {
    "name": "solc",
    "version": "0.8.1+commit.df193b15.Emscripten.clang"
  },
  "schemaVersion": "3.4.16",
  "updatedAt": "2024-03-20T04:01:15.227Z",
  "networkType": "ethereum",
  "devdoc": {
    "kind": "dev",
    "methods": {
      "approve(address,uint256)": {
        "details": "See {IERC721-approve}."
      },
      "balanceOf(address)": {
        "details": "See {IERC721-balanceOf}."
      },
      "getApproved(uint256)": {
        "details": "See {IERC721-getApproved}."
      },
      "isApprovedForAll(address,address)": {
        "details": "See {IERC721-isApprovedForAll}."
      },
      "name()": {
        "details": "See {IERC721Metadata-name}."
      },
      "owner()": {
        "details": "Returns the address of the current owner."
      },
      "ownerOf(uint256)": {
        "details": "See {IERC721-ownerOf}."
      },
      "paused()": {
        "details": "Returns true if the contract is paused, and false otherwise."
      },
      "renounceOwnership()": {
        "details": "Leaves the contract without owner. It will not be possible to call `onlyOwner` functions. Can only be called by the current owner. NOTE: Renouncing ownership will leave the contract without an owner, thereby disabling any functionality that is only available to the owner."
      },
      "safeTransferFrom(address,address,uint256)": {
        "details": "See {IERC721-safeTransferFrom}."
      },
      "safeTransferFrom(address,address,uint256,bytes)": {
        "details": "See {IERC721-safeTransferFrom}."
      },
      "setApprovalForAll(address,bool)": {
        "details": "See {IERC721-setApprovalForAll}."
      },
      "symbol()": {
        "details": "See {IERC721Metadata-symbol}."
      },
      "tokenByIndex(uint256)": {
        "details": "See {IERC721Enumerable-tokenByIndex}."
      },
      "tokenOfOwnerByIndex(address,uint256)": {
        "details": "See {IERC721Enumerable-tokenOfOwnerByIndex}."
      },
      "tokenURI(uint256)": {
        "details": "See {IERC721Metadata-tokenURI}."
      },
      "totalSupply()": {
        "details": "See {IERC721Enumerable-totalSupply}."
      },
      "transferFrom(address,address,uint256)": {
        "details": "See {IERC721-transferFrom}."
      },
      "transferOwnership(address)": {
        "details": "Transfers ownership of the contract to a new account (`newOwner`). Can only be called by the current owner."
      }
    },
    "version": 1
  },
  "userdoc": {
    "kind": "user",
    "methods": {},
    "version": 1
  }
}