{
  "contractName": "TraveldqToken",
  "abi": [
    {
      "inputs": [
        {
          "internalType": "address",
          "name": "initialOwner",
          "type": "address"
        },
        {
          "internalType": "address",
          "name": "usdcAddress",
          "type": "address"
        },
        {
          "internalType": "uint256",
          "name": "_timeBeforeBuy",
          "type": "uint256"
        }
      ],
      "stateMutability": "nonpayable",
      "type": "constructor"
    },
    {
      "inputs": [],
      "name": "ERC721EnumerableForbiddenBatchMint",
      "type": "error"
    },
    {
      "inputs": [
        {
          "internalType": "address",
          "name": "sender",
          "type": "address"
        },
        {
          "internalType": "uint256",
          "name": "tokenId",
          "type": "uint256"
        },
        {
          "internalType": "address",
          "name": "owner",
          "type": "address"
        }
      ],
      "name": "ERC721IncorrectOwner",
      "type": "error"
    },
    {
      "inputs": [
        {
          "internalType": "address",
          "name": "operator",
          "type": "address"
        },
        {
          "internalType": "uint256",
          "name": "tokenId",
          "type": "uint256"
        }
      ],
      "name": "ERC721InsufficientApproval",
      "type": "error"
    },
    {
      "inputs": [
        {
          "internalType": "address",
          "name": "approver",
          "type": "address"
        }
      ],
      "name": "ERC721InvalidApprover",
      "type": "error"
    },
    {
      "inputs": [
        {
          "internalType": "address",
          "name": "operator",
          "type": "address"
        }
      ],
      "name": "ERC721InvalidOperator",
      "type": "error"
    },
    {
      "inputs": [
        {
          "internalType": "address",
          "name": "owner",
          "type": "address"
        }
      ],
      "name": "ERC721InvalidOwner",
      "type": "error"
    },
    {
      "inputs": [
        {
          "internalType": "address",
          "name": "receiver",
          "type": "address"
        }
      ],
      "name": "ERC721InvalidReceiver",
      "type": "error"
    },
    {
      "inputs": [
        {
          "internalType": "address",
          "name": "sender",
          "type": "address"
        }
      ],
      "name": "ERC721InvalidSender",
      "type": "error"
    },
    {
      "inputs": [
        {
          "internalType": "uint256",
          "name": "tokenId",
          "type": "uint256"
        }
      ],
      "name": "ERC721NonexistentToken",
      "type": "error"
    },
    {
      "inputs": [
        {
          "internalType": "address",
          "name": "owner",
          "type": "address"
        },
        {
          "internalType": "uint256",
          "name": "index",
          "type": "uint256"
        }
      ],
      "name": "ERC721OutOfBoundsIndex",
      "type": "error"
    },
    {
      "inputs": [],
      "name": "EnforcedPause",
      "type": "error"
    },
    {
      "inputs": [],
      "name": "ExpectedPause",
      "type": "error"
    },
    {
      "inputs": [
        {
          "internalType": "address",
          "name": "owner",
          "type": "address"
        }
      ],
      "name": "OwnableInvalidOwner",
      "type": "error"
    },
    {
      "inputs": [
        {
          "internalType": "address",
          "name": "account",
          "type": "address"
        }
      ],
      "name": "OwnableUnauthorizedAccount",
      "type": "error"
    },
    {
      "anonymous": false,
      "inputs": [
        {
          "indexed": true,
          "internalType": "address",
          "name": "owner",
          "type": "address"
        },
        {
          "indexed": true,
          "internalType": "address",
          "name": "approved",
          "type": "address"
        },
        {
          "indexed": true,
          "internalType": "uint256",
          "name": "tokenId",
          "type": "uint256"
        }
      ],
      "name": "Approval",
      "type": "event"
    },
    {
      "anonymous": false,
      "inputs": [
        {
          "indexed": true,
          "internalType": "address",
          "name": "owner",
          "type": "address"
        },
        {
          "indexed": true,
          "internalType": "address",
          "name": "operator",
          "type": "address"
        },
        {
          "indexed": false,
          "internalType": "bool",
          "name": "approved",
          "type": "bool"
        }
      ],
      "name": "ApprovalForAll",
      "type": "event"
    },
    {
      "anonymous": false,
      "inputs": [
        {
          "indexed": true,
          "internalType": "address",
          "name": "previousOwner",
          "type": "address"
        },
        {
          "indexed": true,
          "internalType": "address",
          "name": "newOwner",
          "type": "address"
        }
      ],
      "name": "OwnershipTransferred",
      "type": "event"
    },
    {
      "anonymous": false,
      "inputs": [
        {
          "indexed": false,
          "internalType": "address",
          "name": "account",
          "type": "address"
        }
      ],
      "name": "Paused",
      "type": "event"
    },
    {
      "anonymous": false,
      "inputs": [
        {
          "indexed": true,
          "internalType": "address",
          "name": "from",
          "type": "address"
        },
        {
          "indexed": true,
          "internalType": "address",
          "name": "to",
          "type": "address"
        },
        {
          "indexed": true,
          "internalType": "uint256",
          "name": "tokenId",
          "type": "uint256"
        }
      ],
      "name": "Transfer",
      "type": "event"
    },
    {
      "anonymous": false,
      "inputs": [
        {
          "indexed": false,
          "internalType": "address",
          "name": "account",
          "type": "address"
        }
      ],
      "name": "Unpaused",
      "type": "event"
    },
    {
      "inputs": [],
      "name": "airlineFeePercentage",
      "outputs": [
        {
          "internalType": "uint256",
          "name": "",
          "type": "uint256"
        }
      ],
      "stateMutability": "view",
      "type": "function"
    },
    {
      "inputs": [],
      "name": "airlineUsdcAddress",
      "outputs": [
        {
          "internalType": "address",
          "name": "",
          "type": "address"
        }
      ],
      "stateMutability": "view",
      "type": "function"
    },
    {
      "inputs": [
        {
          "internalType": "address",
          "name": "to",
          "type": "address"
        },
        {
          "internalType": "uint256",
          "name": "tokenId",
          "type": "uint256"
        }
      ],
      "name": "approve",
      "outputs": [],
      "stateMutability": "nonpayable",
      "type": "function"
    },
    {
      "inputs": [
        {
          "internalType": "address",
          "name": "owner",
          "type": "address"
        }
      ],
      "name": "balanceOf",
      "outputs": [
        {
          "internalType": "uint256",
          "name": "",
          "type": "uint256"
        }
      ],
      "stateMutability": "view",
      "type": "function"
    },
    {
      "inputs": [
        {
          "internalType": "uint256",
          "name": "tokenId",
          "type": "uint256"
        }
      ],
      "name": "getApproved",
      "outputs": [
        {
          "internalType": "address",
          "name": "",
          "type": "address"
        }
      ],
      "stateMutability": "view",
      "type": "function"
    },
    {
      "inputs": [
        {
          "internalType": "address",
          "name": "owner",
          "type": "address"
        },
        {
          "internalType": "address",
          "name": "operator",
          "type": "address"
        }
      ],
      "name": "isApprovedForAll",
      "outputs": [
        {
          "internalType": "bool",
          "name": "",
          "type": "bool"
        }
      ],
      "stateMutability": "view",
      "type": "function"
    },
    {
      "inputs": [],
      "name": "name",
      "outputs": [
        {
          "internalType": "string",
          "name": "",
          "type": "string"
        }
      ],
      "stateMutability": "view",
      "type": "function"
    },
    {
      "inputs": [],
      "name": "owner",
      "outputs": [
        {
          "internalType": "address",
          "name": "",
          "type": "address"
        }
      ],
      "stateMutability": "view",
      "type": "function"
    },
    {
      "inputs": [
        {
          "internalType": "uint256",
          "name": "tokenId",
          "type": "uint256"
        }
      ],
      "name": "ownerOf",
      "outputs": [
        {
          "internalType": "address",
          "name": "",
          "type": "address"
        }
      ],
      "stateMutability": "view",
      "type": "function"
    },
    {
      "inputs": [],
      "name": "paused",
      "outputs": [
        {
          "internalType": "bool",
          "name": "",
          "type": "bool"
        }
      ],
      "stateMutability": "view",
      "type": "function"
    },
    {
      "inputs": [],
      "name": "renounceOwnership",
      "outputs": [],
      "stateMutability": "nonpayable",
      "type": "function"
    },
    {
      "inputs": [
        {
          "internalType": "address",
          "name": "from",
          "type": "address"
        },
        {
          "internalType": "address",
          "name": "to",
          "type": "address"
        },
        {
          "internalType": "uint256",
          "name": "tokenId",
          "type": "uint256"
        }
      ],
      "name": "safeTransferFrom",
      "outputs": [],
      "stateMutability": "nonpayable",
      "type": "function"
    },
    {
      "inputs": [
        {
          "internalType": "address",
          "name": "from",
          "type": "address"
        },
        {
          "internalType": "address",
          "name": "to",
          "type": "address"
        },
        {
          "internalType": "uint256",
          "name": "tokenId",
          "type": "uint256"
        },
        {
          "internalType": "bytes",
          "name": "data",
          "type": "bytes"
        }
      ],
      "name": "safeTransferFrom",
      "outputs": [],
      "stateMutability": "nonpayable",
      "type": "function"
    },
    {
      "inputs": [
        {
          "internalType": "address",
          "name": "operator",
          "type": "address"
        },
        {
          "internalType": "bool",
          "name": "approved",
          "type": "bool"
        }
      ],
      "name": "setApprovalForAll",
      "outputs": [],
      "stateMutability": "nonpayable",
      "type": "function"
    },
    {
      "inputs": [],
      "name": "symbol",
      "outputs": [
        {
          "internalType": "string",
          "name": "",
          "type": "string"
        }
      ],
      "stateMutability": "view",
      "type": "function"
    },
    {
      "inputs": [],
      "name": "timeBeforeBuy",
      "outputs": [
        {
          "internalType": "uint256",
          "name": "",
          "type": "uint256"
        }
      ],
      "stateMutability": "view",
      "type": "function"
    },
    {
      "inputs": [
        {
          "internalType": "uint256",
          "name": "index",
          "type": "uint256"
        }
      ],
      "name": "tokenByIndex",
      "outputs": [
        {
          "internalType": "uint256",
          "name": "",
          "type": "uint256"
        }
      ],
      "stateMutability": "view",
      "type": "function"
    },
    {
      "inputs": [
        {
          "internalType": "address",
          "name": "owner",
          "type": "address"
        },
        {
          "internalType": "uint256",
          "name": "index",
          "type": "uint256"
        }
      ],
      "name": "tokenOfOwnerByIndex",
      "outputs": [
        {
          "internalType": "uint256",
          "name": "",
          "type": "uint256"
        }
      ],
      "stateMutability": "view",
      "type": "function"
    },
    {
      "inputs": [
        {
          "internalType": "uint256",
          "name": "tokenId",
          "type": "uint256"
        }
      ],
      "name": "tokenURI",
      "outputs": [
        {
          "internalType": "string",
          "name": "",
          "type": "string"
        }
      ],
      "stateMutability": "view",
      "type": "function"
    },
    {
      "inputs": [],
      "name": "totalSupply",
      "outputs": [
        {
          "internalType": "uint256",
          "name": "",
          "type": "uint256"
        }
      ],
      "stateMutability": "view",
      "type": "function"
    },
    {
      "inputs": [
        {
          "internalType": "address",
          "name": "from",
          "type": "address"
        },
        {
          "internalType": "address",
          "name": "to",
          "type": "address"
        },
        {
          "internalType": "uint256",
          "name": "tokenId",
          "type": "uint256"
        }
      ],
      "name": "transferFrom",
      "outputs": [],
      "stateMutability": "nonpayable",
      "type": "function"
    },
    {
      "inputs": [
        {
          "internalType": "address",
          "name": "newOwner",
          "type": "address"
        }
      ],
      "name": "transferOwnership",
      "outputs": [],
      "stateMutability": "nonpayable",
      "type": "function"
    },
    {
      "inputs": [],
      "name": "traveldaqUsdcAddress",
      "outputs": [
        {
          "internalType": "address",
          "name": "",
          "type": "address"
        }
      ],
      "stateMutability": "view",
      "type": "function"
    },
    {
      "inputs": [],
      "name": "traveldqFeePercentage",
      "outputs": [
        {
          "internalType": "uint256",
          "name": "",
          "type": "uint256"
        }
      ],
      "stateMutability": "view",
      "type": "function"
    },
    {
      "inputs": [],
      "name": "usdc",
      "outputs": [
        {
          "internalType": "contract IERC20",
          "name": "",
          "type": "address"
        }
      ],
      "stateMutability": "view",
      "type": "function"
    },
    {
      "inputs": [
        {
          "internalType": "uint256",
          "name": "_airlineFeePercentage",
          "type": "uint256"
        }
      ],
      "name": "updateAirlineFeePercentage",
      "outputs": [],
      "stateMutability": "nonpayable",
      "type": "function"
    },
    {
      "inputs": [
        {
          "internalType": "uint256",
          "name": "_traveldqFeePercentage",
          "type": "uint256"
        }
      ],
      "name": "updateTraveldqFeePercentage",
      "outputs": [],
      "stateMutability": "nonpayable",
      "type": "function"
    },
    {
      "inputs": [
        {
          "internalType": "uint256",
          "name": "_timeBeforeBuy",
          "type": "uint256"
        }
      ],
      "name": "updateTimeBeforeBuy",
      "outputs": [],
      "stateMutability": "nonpayable",
      "type": "function"
    },
    {
      "inputs": [
        {
          "internalType": "address",
          "name": "_airlineUsdcAddress",
          "type": "address"
        }
      ],
      "name": "updateAirlinesUsdcAddress",
      "outputs": [],
      "stateMutability": "nonpayable",
      "type": "function"
    },
    {
      "inputs": [
        {
          "internalType": "address",
          "name": "_traveldaqUsdcAddress",
          "type": "address"
        }
      ],
      "name": "updateTraveldaqUsdcAddress",
      "outputs": [],
      "stateMutability": "nonpayable",
      "type": "function"
    },
    {
      "inputs": [
        {
          "internalType": "address",
          "name": "to",
          "type": "address"
        },
        {
          "internalType": "string",
          "name": "airlineCode",
          "type": "string"
        },
        {
          "internalType": "string",
          "name": "pnr",
          "type": "string"
        },
        {
          "internalType": "uint256",
          "name": "flightTime",
          "type": "uint256"
        }
      ],
      "name": "mintTicket",
      "outputs": [],
      "stateMutability": "nonpayable",
      "type": "function"
    },
    {
      "inputs": [],
      "name": "pause",
      "outputs": [],
      "stateMutability": "nonpayable",
      "type": "function"
    },
    {
      "inputs": [],
      "name": "unpause",
      "outputs": [],
      "stateMutability": "nonpayable",
      "type": "function"
    },
    {
      "inputs": [
        {
          "internalType": "uint256",
          "name": "tokenId",
          "type": "uint256"
        },
        {
          "internalType": "address",
          "name": "buyer",
          "type": "address"
        },
        {
          "internalType": "uint256",
          "name": "salePrice",
          "type": "uint256"
        }
      ],
      "name": "sellTicket",
      "outputs": [],
      "stateMutability": "nonpayable",
      "type": "function"
    },
    {
      "inputs": [
        {
          "internalType": "uint256",
          "name": "tokenId",
          "type": "uint256"
        }
      ],
      "name": "cancelTicket",
      "outputs": [],
      "stateMutability": "nonpayable",
      "type": "function"
    },
    {
      "inputs": [
        {
          "internalType": "uint256",
          "name": "newAirlineFeePercentage",
          "type": "uint256"
        },
        {
          "internalType": "uint256",
          "name": "newTraveldqFeePercentage",
          "type": "uint256"
        }
      ],
      "name": "setDistributionRatios",
      "outputs": [],
      "stateMutability": "nonpayable",
      "type": "function"
    },
    {
      "inputs": [
        {
          "internalType": "uint256",
          "name": "tokenId",
          "type": "uint256"
        }
      ],
      "name": "getTicketDetails",
      "outputs": [
        {
          "components": [
            {
              "internalType": "string",
              "name": "airlineCode",
              "type": "string"
            },
            {
              "internalType": "string",
              "name": "pnr",
              "type": "string"
            },
            {
              "internalType": "uint256",
              "name": "flightTime",
              "type": "uint256"
            }
          ],
          "internalType": "struct TraveldqToken.TicketMetadata",
          "name": "",
          "type": "tuple"
        }
      ],
      "stateMutability": "view",
      "type": "function"
    },
    {
      "inputs": [
        {
          "internalType": "bytes4",
          "name": "interfaceId",
          "type": "bytes4"
        }
      ],
      "name": "supportsInterface",
      "outputs": [
        {
          "internalType": "bool",
          "name": "",
          "type": "bool"
        }
      ],
      "stateMutability": "view",
      "type": "function"
    }
  ],
  "bytecode": "0x60806040526005600d556005600e55612a30600f5534801562000020575f80fd5b5060405162004851380380620048518339818101604052810190620000469190620004a2565b826040518060400160405280600d81526020017f54726176656c6471546f6b656e000000000000000000000000000000000000008152506040518060400160405280600381526020017f5444540000000000000000000000000000000000000000000000000000000000815250815f9081620000c3919062000756565b508060019081620000d5919062000756565b5050505f600a5f6101000a81548160ff0219169083151502179055505f73ffffffffffffffffffffffffffffffffffffffff168173ffffffffffffffffffffffffffffffffffffffff160362000164575f6040517f1e4fbdf70000000000000000000000000000000000000000000000000000000081526004016200015b91906200084b565b60405180910390fd5b6200017581620001d760201b60201c565b5062000187836200029c60201b60201c565b81600c5f6101000a81548173ffffffffffffffffffffffffffffffffffffffff021916908373ffffffffffffffffffffffffffffffffffffffff16021790555080600f8190555050505062000866565b5f600a60019054906101000a900473ffffffffffffffffffffffffffffffffffffffff16905081600a60016101000a81548173ffffffffffffffffffffffffffffffffffffffff021916908373ffffffffffffffffffffffffffffffffffffffff1602179055508173ffffffffffffffffffffffffffffffffffffffff168173ffffffffffffffffffffffffffffffffffffffff167f8be0079c531659141344cd1fd0a4f28419497f9722a3daafe3b4186f6b6457e060405160405180910390a35050565b620002ac6200033360201b60201c565b5f73ffffffffffffffffffffffffffffffffffffffff168173ffffffffffffffffffffffffffffffffffffffff16036200031f575f6040517f1e4fbdf70000000000000000000000000000000000000000000000000000000081526004016200031691906200084b565b60405180910390fd5b6200033081620001d760201b60201c565b50565b62000343620003d560201b60201c565b73ffffffffffffffffffffffffffffffffffffffff1662000369620003dc60201b60201c565b73ffffffffffffffffffffffffffffffffffffffff1614620003d35762000395620003d560201b60201c565b6040517f118cdaa7000000000000000000000000000000000000000000000000000000008152600401620003ca91906200084b565b60405180910390fd5b565b5f33905090565b5f600a60019054906101000a900473ffffffffffffffffffffffffffffffffffffffff16905090565b5f80fd5b5f73ffffffffffffffffffffffffffffffffffffffff82169050919050565b5f620004348262000409565b9050919050565b620004468162000428565b811462000451575f80fd5b50565b5f8151905062000464816200043b565b92915050565b5f819050919050565b6200047e816200046a565b811462000489575f80fd5b50565b5f815190506200049c8162000473565b92915050565b5f805f60608486031215620004bc57620004bb62000405565b5b5f620004cb8682870162000454565b9350506020620004de8682870162000454565b9250506040620004f1868287016200048c565b9150509250925092565b5f81519050919050565b7f4e487b71000000000000000000000000000000000000000000000000000000005f52604160045260245ffd5b7f4e487b71000000000000000000000000000000000000000000000000000000005f52602260045260245ffd5b5f60028204905060018216806200057757607f821691505b6020821081036200058d576200058c62000532565b5b50919050565b5f819050815f5260205f209050919050565b5f6020601f8301049050919050565b5f82821b905092915050565b5f60088302620005f17fffffffffffffffffffffffffffffffffffffffffffffffffffffffffffffffff82620005b4565b620005fd8683620005b4565b95508019841693508086168417925050509392505050565b5f819050919050565b5f6200063e6200063862000632846200046a565b62000615565b6200046a565b9050919050565b5f819050919050565b62000659836200061e565b62000671620006688262000645565b848454620005c0565b825550505050565b5f90565b6200068762000679565b620006948184846200064e565b505050565b5b81811015620006bb57620006af5f826200067d565b6001810190506200069a565b5050565b601f8211156200070a57620006d48162000593565b620006df84620005a5565b81016020851015620006ef578190505b62000707620006fe85620005a5565b83018262000699565b50505b505050565b5f82821c905092915050565b5f6200072c5f19846008026200070f565b1980831691505092915050565b5f6200074683836200071b565b9150826002028217905092915050565b6200076182620004fb565b67ffffffffffffffff8111156200077d576200077c62000505565b5b6200078982546200055f565b62000796828285620006bf565b5f60209050601f831160018114620007cc575f8415620007b7578287015190505b620007c3858262000739565b86555062000832565b601f198416620007dc8662000593565b5f5b828110156200080557848901518255600182019150602085019450602081019050620007de565b8683101562000825578489015162000821601f8916826200071b565b8355505b6001600288020188555050505b505050505050565b620008458162000428565b82525050565b5f602082019050620008605f8301846200083a565b92915050565b613fdd80620008745f395ff3fe608060405234801561000f575f80fd5b5060043610610230575f3560e01c8063715a87411161012e578063b27c1f4a116100b6578063c87b56dd1161007a578063c87b56dd1461063c578063d98d9edf1461066c578063e985e9c514610688578063ee355b1f146106b8578063f2fde38b146106d457610230565b8063b27c1f4a146105ac578063b88d4fde146105c8578063b92ab477146105e4578063b9e610c914610600578063c0b770f91461061e57610230565b806395d89b41116100fd57806395d89b411461051a57806399723d3f14610538578063a22cb46514610554578063ad72879014610570578063b247a9c21461058e57610230565b8063715a8741146104ba57806372a1f80b146104d65780638456cb59146104f25780638da5cb5b146104fc57610230565b80633ae05b30116101bc5780634f6ccce7116101805780634f6ccce7146104025780635c975abb146104325780636352211e1461045057806370a0823114610480578063715018a6146104b057610230565b80633ae05b30146103845780633e413bee146103a05780633f4ba83a146103be57806342842e0e146103c85780634a4a94d9146103e457610230565b806318160ddd1161020357806318160ddd146102ce57806323b872dd146102ec57806324c14160146103085780632f745c591461033857806333c6fa721461036857610230565b806301ffc9a71461023457806306fdde0314610264578063081812fc14610282578063095ea7b3146102b2575b5f80fd5b61024e60048036038101906102499190612e07565b6106f0565b60405161025b9190612e4c565b60405180910390f35b61026c610701565b6040516102799190612eef565b60405180910390f35b61029c60048036038101906102979190612f42565b610790565b6040516102a99190612fac565b60405180910390f35b6102cc60048036038101906102c79190612fef565b6107ab565b005b6102d66107c1565b6040516102e3919061303c565b60405180910390f35b61030660048036038101906103019190613055565b6107cd565b005b610322600480360381019061031d9190612f42565b6108cc565b60405161032f9190613150565b60405180910390f35b610352600480360381019061034d9190612fef565b610a96565b60405161035f919061303c565b60405180910390f35b610382600480360381019061037d9190613170565b610b3a565b005b61039e6004803603810190610399919061319b565b610b85565b005b6103a8610fd1565b6040516103b59190613246565b60405180910390f35b6103c6610ff6565b005b6103e260048036038101906103dd9190613055565b611008565b005b6103ec611027565b6040516103f99190612fac565b60405180910390f35b61041c60048036038101906104179190612f42565b61104c565b604051610429919061303c565b60405180910390f35b61043a6110be565b6040516104479190612e4c565b60405180910390f35b61046a60048036038101906104659190612f42565b6110d3565b6040516104779190612fac565b60405180910390f35b61049a60048036038101906104959190613170565b6110e4565b6040516104a7919061303c565b60405180910390f35b6104b861119a565b005b6104d460048036038101906104cf9190612f42565b6111ad565b005b6104f060048036038101906104eb919061338b565b6111bf565b005b6104fa611254565b005b610504611266565b6040516105119190612fac565b60405180910390f35b61052261128f565b60405161052f9190612eef565b60405180910390f35b610552600480360381019061054d9190612f42565b61131f565b005b61056e60048036038101906105699190613451565b611331565b005b610578611347565b6040516105859190612fac565b60405180910390f35b61059661136c565b6040516105a3919061303c565b60405180910390f35b6105c660048036038101906105c19190612f42565b611372565b005b6105e260048036038101906105dd919061352d565b611384565b005b6105fe60048036038101906105f991906135ad565b6113a1565b005b6106086113bb565b604051610615919061303c565b60405180910390f35b6106266113c1565b604051610633919061303c565b60405180910390f35b61065660048036038101906106519190612f42565b6113c7565b6040516106639190612eef565b60405180910390f35b61068660048036038101906106819190613170565b61142d565b005b6106a2600480360381019061069d91906135eb565b611478565b6040516106af9190612e4c565b60405180910390f35b6106d260048036038101906106cd9190612f42565b611506565b005b6106ee60048036038101906106e99190613170565b61156a565b005b5f6106fa826115ee565b9050919050565b60605f805461070f90613656565b80601f016020809104026020016040519081016040528092919081815260200182805461073b90613656565b80156107865780601f1061075d57610100808354040283529160200191610786565b820191905f5260205f20905b81548152906001019060200180831161076957829003601f168201915b5050505050905090565b5f61079a82611667565b506107a4826116ed565b9050919050565b6107bd82826107b8611726565b61172d565b5050565b5f600880549050905090565b5f73ffffffffffffffffffffffffffffffffffffffff168273ffffffffffffffffffffffffffffffffffffffff160361083d575f6040517f64a0ae920000000000000000000000000000000000000000000000000000000081526004016108349190612fac565b60405180910390fd5b5f610850838361084b611726565b61173f565b90508373ffffffffffffffffffffffffffffffffffffffff168173ffffffffffffffffffffffffffffffffffffffff16146108c6578382826040517f64283d7b0000000000000000000000000000000000000000000000000000000081526004016108bd93929190613686565b60405180910390fd5b50505050565b6108d4612d81565b5f73ffffffffffffffffffffffffffffffffffffffff166108f4836117b7565b73ffffffffffffffffffffffffffffffffffffffff160361094a576040517f08c379a00000000000000000000000000000000000000000000000000000000081526004016109419061372b565b60405180910390fd5b60125f8381526020019081526020015f206040518060600160405290815f8201805461097590613656565b80601f01602080910402602001604051908101604052809291908181526020018280546109a190613656565b80156109ec5780601f106109c3576101008083540402835291602001916109ec565b820191905f5260205f20905b8154815290600101906020018083116109cf57829003601f168201915b50505050508152602001600182018054610a0590613656565b80601f0160208091040260200160405190810160405280929190818152602001828054610a3190613656565b8015610a7c5780601f10610a5357610100808354040283529160200191610a7c565b820191905f5260205f20905b815481529060010190602001808311610a5f57829003601f168201915b505050505081526020016002820154815250509050919050565b5f610aa0836110e4565b8210610ae55782826040517fa57d13dc000000000000000000000000000000000000000000000000000000008152600401610adc929190613749565b60405180910390fd5b60065f8473ffffffffffffffffffffffffffffffffffffffff1673ffffffffffffffffffffffffffffffffffffffff1681526020019081526020015f205f8381526020019081526020015f2054905092915050565b610b426117f0565b8060115f6101000a81548173ffffffffffffffffffffffffffffffffffffffff021916908373ffffffffffffffffffffffffffffffffffffffff16021790555050565b610b9f610b91846117b7565b610b99611726565b85611877565b610bde576040517f08c379a0000000000000000000000000000000000000000000000000000000008152600401610bd5906137e0565b60405180910390fd5b612a3060125f8581526020019081526020015f2060020154610c00919061382b565b421115610c42576040517f08c379a0000000000000000000000000000000000000000000000000000000008152600401610c39906138ce565b60405180910390fd5b80600c5f9054906101000a900473ffffffffffffffffffffffffffffffffffffffff1673ffffffffffffffffffffffffffffffffffffffff166370a08231846040518263ffffffff1660e01b8152600401610c9d9190612fac565b602060405180830381865afa158015610cb8573d5f803e3d5ffd5b505050506040513d601f19601f82011682018060405250810190610cdc9190613900565b1015610d1d576040517f08c379a0000000000000000000000000000000000000000000000000000000008152600401610d1490613975565b60405180910390fd5b5f662386f26fc10000600d5483610d349190613993565b610d3e9190613993565b90505f662386f26fc10000600e5484610d579190613993565b610d619190613993565b90505f8183670de0b6b3a764000086610d7a9190613993565b610d84919061382b565b610d8e919061382b565b9050600c5f9054906101000a900473ffffffffffffffffffffffffffffffffffffffff1673ffffffffffffffffffffffffffffffffffffffff166323b872dd8660105f9054906101000a900473ffffffffffffffffffffffffffffffffffffffff16866040518463ffffffff1660e01b8152600401610e0f939291906139d4565b6020604051808303815f875af1158015610e2b573d5f803e3d5ffd5b505050506040513d601f19601f82011682018060405250810190610e4f9190613a1d565b50600c5f9054906101000a900473ffffffffffffffffffffffffffffffffffffffff1673ffffffffffffffffffffffffffffffffffffffff166323b872dd86610e97896117b7565b846040518463ffffffff1660e01b8152600401610eb6939291906139d4565b6020604051808303815f875af1158015610ed2573d5f803e3d5ffd5b505050506040513d601f19601f82011682018060405250810190610ef69190613a1d565b50600c5f9054906101000a900473ffffffffffffffffffffffffffffffffffffffff1673ffffffffffffffffffffffffffffffffffffffff166323b872dd8660115f9054906101000a900473ffffffffffffffffffffffffffffffffffffffff16856040518463ffffffff1660e01b8152600401610f76939291906139d4565b6020604051808303815f875af1158015610f92573d5f803e3d5ffd5b505050506040513d601f19601f82011682018060405250810190610fb69190613a1d565b50610fc9610fc2611726565b8688611937565b505050505050565b600c5f9054906101000a900473ffffffffffffffffffffffffffffffffffffffff1681565b610ffe6117f0565b611006611a9f565b565b61102283838360405180602001604052805f815250611384565b505050565b60105f9054906101000a900473ffffffffffffffffffffffffffffffffffffffff1681565b5f6110556107c1565b821061109a575f826040517fa57d13dc000000000000000000000000000000000000000000000000000000008152600401611091929190613749565b60405180910390fd5b600882815481106110ae576110ad613a48565b5b905f5260205f2001549050919050565b5f600a5f9054906101000a900460ff16905090565b5f6110dd82611667565b9050919050565b5f8073ffffffffffffffffffffffffffffffffffffffff168273ffffffffffffffffffffffffffffffffffffffff1603611155575f6040517f89c62b6400000000000000000000000000000000000000000000000000000000815260040161114c9190612fac565b60405180910390fd5b60035f8373ffffffffffffffffffffffffffffffffffffffff1673ffffffffffffffffffffffffffffffffffffffff1681526020019081526020015f20549050919050565b6111a26117f0565b6111ab5f611b00565b565b6111b56117f0565b80600e8190555050565b6111c76117f0565b5f600b5f8154809291906111da90613a75565b91905055905060405180606001604052808581526020018481526020018381525060125f8381526020019081526020015f205f820151815f01908161121f9190613c50565b5060208201518160010190816112359190613c50565b506040820151816002015590505061124d8582611bc5565b5050505050565b61125c6117f0565b611264611be2565b565b5f600a60019054906101000a900473ffffffffffffffffffffffffffffffffffffffff16905090565b60606001805461129e90613656565b80601f01602080910402602001604051908101604052809291908181526020018280546112ca90613656565b80156113155780601f106112ec57610100808354040283529160200191611315565b820191905f5260205f20905b8154815290600101906020018083116112f857829003601f168201915b5050505050905090565b6113276117f0565b80600f8190555050565b61134361133c611726565b8383611c44565b5050565b60115f9054906101000a900473ffffffffffffffffffffffffffffffffffffffff1681565b600d5481565b61137a6117f0565b80600d8190555050565b61138f8484846107cd565b61139b84848484611dad565b50505050565b6113a96117f0565b81600d8190555080600e819055505050565b600e5481565b600f5481565b60606113d282611667565b505f6113dc611f5f565b90505f8151116113fa5760405180602001604052805f815250611425565b8061140484611f75565b604051602001611415929190613d59565b6040516020818303038152906040525b915050919050565b6114356117f0565b8060105f6101000a81548173ffffffffffffffffffffffffffffffffffffffff021916908373ffffffffffffffffffffffffffffffffffffffff16021790555050565b5f60055f8473ffffffffffffffffffffffffffffffffffffffff1673ffffffffffffffffffffffffffffffffffffffff1681526020019081526020015f205f8373ffffffffffffffffffffffffffffffffffffffff1673ffffffffffffffffffffffffffffffffffffffff1681526020019081526020015f205f9054906101000a900460ff16905092915050565b61151f611511611266565b611519611726565b83611877565b61155e576040517f08c379a000000000000000000000000000000000000000000000000000000000815260040161155590613dec565b60405180910390fd5b6115678161203f565b50565b6115726117f0565b5f73ffffffffffffffffffffffffffffffffffffffff168173ffffffffffffffffffffffffffffffffffffffff16036115e2575f6040517f1e4fbdf70000000000000000000000000000000000000000000000000000000081526004016115d99190612fac565b60405180910390fd5b6115eb81611b00565b50565b5f7f780e9d63000000000000000000000000000000000000000000000000000000007bffffffffffffffffffffffffffffffffffffffffffffffffffffffff1916827bffffffffffffffffffffffffffffffffffffffffffffffffffffffff19161480611660575061165f826120c1565b5b9050919050565b5f80611672836117b7565b90505f73ffffffffffffffffffffffffffffffffffffffff168173ffffffffffffffffffffffffffffffffffffffff16036116e457826040517f7e2732890000000000000000000000000000000000000000000000000000000081526004016116db919061303c565b60405180910390fd5b80915050919050565b5f60045f8381526020019081526020015f205f9054906101000a900473ffffffffffffffffffffffffffffffffffffffff169050919050565b5f33905090565b61173a83838360016121a2565b505050565b5f42612a3060125f8681526020019081526020015f2060020154611763919061382b565b116117a3576040517f08c379a000000000000000000000000000000000000000000000000000000000815260040161179a90613e54565b60405180910390fd5b6117ae848484612361565b90509392505050565b5f60025f8381526020019081526020015f205f9054906101000a900473ffffffffffffffffffffffffffffffffffffffff169050919050565b6117f8611726565b73ffffffffffffffffffffffffffffffffffffffff16611816611266565b73ffffffffffffffffffffffffffffffffffffffff161461187557611839611726565b6040517f118cdaa700000000000000000000000000000000000000000000000000000000815260040161186c9190612fac565b60405180910390fd5b565b5f8073ffffffffffffffffffffffffffffffffffffffff168373ffffffffffffffffffffffffffffffffffffffff161415801561192e57508273ffffffffffffffffffffffffffffffffffffffff168473ffffffffffffffffffffffffffffffffffffffff1614806118ef57506118ee8484611478565b5b8061192d57508273ffffffffffffffffffffffffffffffffffffffff16611915836116ed565b73ffffffffffffffffffffffffffffffffffffffff16145b5b90509392505050565b5f73ffffffffffffffffffffffffffffffffffffffff168273ffffffffffffffffffffffffffffffffffffffff16036119a7575f6040517f64a0ae9200000000000000000000000000000000000000000000000000000000815260040161199e9190612fac565b60405180910390fd5b5f6119b383835f61173f565b90505f73ffffffffffffffffffffffffffffffffffffffff168173ffffffffffffffffffffffffffffffffffffffff1603611a2557816040517f7e273289000000000000000000000000000000000000000000000000000000008152600401611a1c919061303c565b60405180910390fd5b8373ffffffffffffffffffffffffffffffffffffffff168173ffffffffffffffffffffffffffffffffffffffff1614611a99578382826040517f64283d7b000000000000000000000000000000000000000000000000000000008152600401611a9093929190613686565b60405180910390fd5b50505050565b611aa761237e565b5f600a5f6101000a81548160ff0219169083151502179055507f5db9ee0a495bf2e6ff9c91a7834c1ba4fdd244a5e8aa4e537bd38aeae4b073aa611ae9611726565b604051611af69190612fac565b60405180910390a1565b5f600a60019054906101000a900473ffffffffffffffffffffffffffffffffffffffff16905081600a60016101000a81548173ffffffffffffffffffffffffffffffffffffffff021916908373ffffffffffffffffffffffffffffffffffffffff1602179055508173ffffffffffffffffffffffffffffffffffffffff168173ffffffffffffffffffffffffffffffffffffffff167f8be0079c531659141344cd1fd0a4f28419497f9722a3daafe3b4186f6b6457e060405160405180910390a35050565b611bde828260405180602001604052805f8152506123be565b5050565b611bea6123d9565b6001600a5f6101000a81548160ff0219169083151502179055507f62e78cea01bee320cd4e420270b5ea74000d11b0c9f74754ebdbfc544b05a258611c2d611726565b604051611c3a9190612fac565b60405180910390a1565b5f73ffffffffffffffffffffffffffffffffffffffff168273ffffffffffffffffffffffffffffffffffffffff1603611cb457816040517f5b08ba18000000000000000000000000000000000000000000000000000000008152600401611cab9190612fac565b60405180910390fd5b8060055f8573ffffffffffffffffffffffffffffffffffffffff1673ffffffffffffffffffffffffffffffffffffffff1681526020019081526020015f205f8473ffffffffffffffffffffffffffffffffffffffff1673ffffffffffffffffffffffffffffffffffffffff1681526020019081526020015f205f6101000a81548160ff0219169083151502179055508173ffffffffffffffffffffffffffffffffffffffff168373ffffffffffffffffffffffffffffffffffffffff167f17307eab39ab6107e8899845ad3d59bd9653f200f220920489ca2b5937696c3183604051611da09190612e4c565b60405180910390a3505050565b5f8373ffffffffffffffffffffffffffffffffffffffff163b1115611f59578273ffffffffffffffffffffffffffffffffffffffff1663150b7a02611df0611726565b8685856040518563ffffffff1660e01b8152600401611e129493929190613ec4565b6020604051808303815f875af1925050508015611e4d57506040513d601f19601f82011682018060405250810190611e4a9190613f22565b60015b611ece573d805f8114611e7b576040519150601f19603f3d011682016040523d82523d5f602084013e611e80565b606091505b505f815103611ec657836040517f64a0ae92000000000000000000000000000000000000000000000000000000008152600401611ebd9190612fac565b60405180910390fd5b805181602001fd5b63150b7a0260e01b7bffffffffffffffffffffffffffffffffffffffffffffffffffffffff1916817bffffffffffffffffffffffffffffffffffffffffffffffffffffffff191614611f5757836040517f64a0ae92000000000000000000000000000000000000000000000000000000008152600401611f4e9190612fac565b60405180910390fd5b505b50505050565b606060405180602001604052805f815250905090565b60605f6001611f838461241a565b0190505f8167ffffffffffffffff811115611fa157611fa0613267565b5b6040519080825280601f01601f191660200182016040528015611fd35781602001600182028036833780820191505090505b5090505f82602001820190505b600115612034578080600190039150507f3031323334353637383961626364656600000000000000000000000000000000600a86061a8153600a858161202957612028613f4d565b5b0494505f8503611fe0575b819350505050919050565b5f61204b5f835f61173f565b90505f73ffffffffffffffffffffffffffffffffffffffff168173ffffffffffffffffffffffffffffffffffffffff16036120bd57816040517f7e2732890000000000000000000000000000000000000000000000000000000081526004016120b4919061303c565b60405180910390fd5b5050565b5f7f80ac58cd000000000000000000000000000000000000000000000000000000007bffffffffffffffffffffffffffffffffffffffffffffffffffffffff1916827bffffffffffffffffffffffffffffffffffffffffffffffffffffffff1916148061218b57507f5b5e139f000000000000000000000000000000000000000000000000000000007bffffffffffffffffffffffffffffffffffffffffffffffffffffffff1916827bffffffffffffffffffffffffffffffffffffffffffffffffffffffff1916145b8061219b575061219a8261256b565b5b9050919050565b80806121da57505f73ffffffffffffffffffffffffffffffffffffffff168273ffffffffffffffffffffffffffffffffffffffff1614155b1561230c575f6121e984611667565b90505f73ffffffffffffffffffffffffffffffffffffffff168373ffffffffffffffffffffffffffffffffffffffff161415801561225357508273ffffffffffffffffffffffffffffffffffffffff168173ffffffffffffffffffffffffffffffffffffffff1614155b801561226657506122648184611478565b155b156122a857826040517fa9fbf51f00000000000000000000000000000000000000000000000000000000815260040161229f9190612fac565b60405180910390fd5b811561230a57838573ffffffffffffffffffffffffffffffffffffffff168273ffffffffffffffffffffffffffffffffffffffff167f8c5be1e5ebec7d5bd14f71427d1e84f3dd0314c0f7b2291e5b200ac8c7c3b92560405160405180910390a45b505b8360045f8581526020019081526020015f205f6101000a81548173ffffffffffffffffffffffffffffffffffffffff021916908373ffffffffffffffffffffffffffffffffffffffff16021790555050505050565b5f61236a6123d9565b6123758484846125d4565b90509392505050565b6123866110be565b6123bc576040517f8dfc202b00000000000000000000000000000000000000000000000000000000815260040160405180910390fd5b565b6123c883836126ee565b6123d45f848484611dad565b505050565b6123e16110be565b15612418576040517fd93c066500000000000000000000000000000000000000000000000000000000815260040160405180910390fd5b565b5f805f90507a184f03e93ff9f4daa797ed6e38ed64bf6a1f0100000000000000008310612476577a184f03e93ff9f4daa797ed6e38ed64bf6a1f010000000000000000838161246c5761246b613f4d565b5b0492506040810190505b6d04ee2d6d415b85acef810000000083106124b3576d04ee2d6d415b85acef810000000083816124a9576124a8613f4d565b5b0492506020810190505b662386f26fc1000083106124e257662386f26fc1000083816124d8576124d7613f4d565b5b0492506010810190505b6305f5e100831061250b576305f5e100838161250157612500613f4d565b5b0492506008810190505b612710831061253057612710838161252657612525613f4d565b5b0492506004810190505b60648310612553576064838161254957612548613f4d565b5b0492506002810190505b600a8310612562576001810190505b80915050919050565b5f7f01ffc9a7000000000000000000000000000000000000000000000000000000007bffffffffffffffffffffffffffffffffffffffffffffffffffffffff1916827bffffffffffffffffffffffffffffffffffffffffffffffffffffffff1916149050919050565b5f806125e18585856127e1565b90505f73ffffffffffffffffffffffffffffffffffffffff168173ffffffffffffffffffffffffffffffffffffffff16036126245761261f846129ec565b612663565b8473ffffffffffffffffffffffffffffffffffffffff168173ffffffffffffffffffffffffffffffffffffffff1614612662576126618185612a30565b5b5b5f73ffffffffffffffffffffffffffffffffffffffff168573ffffffffffffffffffffffffffffffffffffffff16036126a45761269f84612b7a565b6126e3565b8473ffffffffffffffffffffffffffffffffffffffff168173ffffffffffffffffffffffffffffffffffffffff16146126e2576126e18585612c3a565b5b5b809150509392505050565b5f73ffffffffffffffffffffffffffffffffffffffff168273ffffffffffffffffffffffffffffffffffffffff160361275e575f6040517f64a0ae920000000000000000000000000000000000000000000000000000000081526004016127559190612fac565b60405180910390fd5b5f61276a83835f61173f565b90505f73ffffffffffffffffffffffffffffffffffffffff168173ffffffffffffffffffffffffffffffffffffffff16146127dc575f6040517f73c6ac6e0000000000000000000000000000000000000000000000000000000081526004016127d39190612fac565b60405180910390fd5b505050565b5f806127ec846117b7565b90505f73ffffffffffffffffffffffffffffffffffffffff168373ffffffffffffffffffffffffffffffffffffffff161461282d5761282c818486612cbe565b5b5f73ffffffffffffffffffffffffffffffffffffffff168173ffffffffffffffffffffffffffffffffffffffff16146128b85761286c5f855f806121a2565b600160035f8373ffffffffffffffffffffffffffffffffffffffff1673ffffffffffffffffffffffffffffffffffffffff1681526020019081526020015f205f82825403925050819055505b5f73ffffffffffffffffffffffffffffffffffffffff168573ffffffffffffffffffffffffffffffffffffffff161461293757600160035f8773ffffffffffffffffffffffffffffffffffffffff1673ffffffffffffffffffffffffffffffffffffffff1681526020019081526020015f205f82825401925050819055505b8460025f8681526020019081526020015f205f6101000a81548173ffffffffffffffffffffffffffffffffffffffff021916908373ffffffffffffffffffffffffffffffffffffffff160217905550838573ffffffffffffffffffffffffffffffffffffffff168273ffffffffffffffffffffffffffffffffffffffff167fddf252ad1be2c89b69c2b068fc378daa952ba7f163c4a11628f55a4df523b3ef60405160405180910390a4809150509392505050565b60088054905060095f8381526020019081526020015f2081905550600881908060018154018082558091505060019003905f5260205f20015f909190919091505550565b5f612a3a836110e4565b90505f60075f8481526020019081526020015f20549050818114612b11575f60065f8673ffffffffffffffffffffffffffffffffffffffff1673ffffffffffffffffffffffffffffffffffffffff1681526020019081526020015f205f8481526020019081526020015f205490508060065f8773ffffffffffffffffffffffffffffffffffffffff1673ffffffffffffffffffffffffffffffffffffffff1681526020019081526020015f205f8481526020019081526020015f20819055508160075f8381526020019081526020015f2081905550505b60075f8481526020019081526020015f205f905560065f8573ffffffffffffffffffffffffffffffffffffffff1673ffffffffffffffffffffffffffffffffffffffff1681526020019081526020015f205f8381526020019081526020015f205f905550505050565b5f6001600880549050612b8d919061382b565b90505f60095f8481526020019081526020015f205490505f60088381548110612bb957612bb8613a48565b5b905f5260205f20015490508060088381548110612bd957612bd8613a48565b5b905f5260205f2001819055508160095f8381526020019081526020015f208190555060095f8581526020019081526020015f205f90556008805480612c2157612c20613f7a565b5b600190038181905f5260205f20015f9055905550505050565b5f6001612c46846110e4565b612c50919061382b565b90508160065f8573ffffffffffffffffffffffffffffffffffffffff1673ffffffffffffffffffffffffffffffffffffffff1681526020019081526020015f205f8381526020019081526020015f20819055508060075f8481526020019081526020015f2081905550505050565b612cc9838383611877565b612d7c575f73ffffffffffffffffffffffffffffffffffffffff168373ffffffffffffffffffffffffffffffffffffffff1603612d3d57806040517f7e273289000000000000000000000000000000000000000000000000000000008152600401612d34919061303c565b60405180910390fd5b81816040517f177e802f000000000000000000000000000000000000000000000000000000008152600401612d73929190613749565b60405180910390fd5b505050565b604051806060016040528060608152602001606081526020015f81525090565b5f604051905090565b5f80fd5b5f80fd5b5f7fffffffff0000000000000000000000000000000000000000000000000000000082169050919050565b612de681612db2565b8114612df0575f80fd5b50565b5f81359050612e0181612ddd565b92915050565b5f60208284031215612e1c57612e1b612daa565b5b5f612e2984828501612df3565b91505092915050565b5f8115159050919050565b612e4681612e32565b82525050565b5f602082019050612e5f5f830184612e3d565b92915050565b5f81519050919050565b5f82825260208201905092915050565b5f5b83811015612e9c578082015181840152602081019050612e81565b5f8484015250505050565b5f601f19601f8301169050919050565b5f612ec182612e65565b612ecb8185612e6f565b9350612edb818560208601612e7f565b612ee481612ea7565b840191505092915050565b5f6020820190508181035f830152612f078184612eb7565b905092915050565b5f819050919050565b612f2181612f0f565b8114612f2b575f80fd5b50565b5f81359050612f3c81612f18565b92915050565b5f60208284031215612f5757612f56612daa565b5b5f612f6484828501612f2e565b91505092915050565b5f73ffffffffffffffffffffffffffffffffffffffff82169050919050565b5f612f9682612f6d565b9050919050565b612fa681612f8c565b82525050565b5f602082019050612fbf5f830184612f9d565b92915050565b612fce81612f8c565b8114612fd8575f80fd5b50565b5f81359050612fe981612fc5565b92915050565b5f806040838503121561300557613004612daa565b5b5f61301285828601612fdb565b925050602061302385828601612f2e565b9150509250929050565b61303681612f0f565b82525050565b5f60208201905061304f5f83018461302d565b92915050565b5f805f6060848603121561306c5761306b612daa565b5b5f61307986828701612fdb565b935050602061308a86828701612fdb565b925050604061309b86828701612f2e565b9150509250925092565b5f82825260208201905092915050565b5f6130bf82612e65565b6130c981856130a5565b93506130d9818560208601612e7f565b6130e281612ea7565b840191505092915050565b6130f681612f0f565b82525050565b5f606083015f8301518482035f86015261311682826130b5565b9150506020830151848203602086015261313082826130b5565b915050604083015161314560408601826130ed565b508091505092915050565b5f6020820190508181035f83015261316881846130fc565b905092915050565b5f6020828403121561318557613184612daa565b5b5f61319284828501612fdb565b91505092915050565b5f805f606084860312156131b2576131b1612daa565b5b5f6131bf86828701612f2e565b93505060206131d086828701612fdb565b92505060406131e186828701612f2e565b9150509250925092565b5f819050919050565b5f61320e61320961320484612f6d565b6131eb565b612f6d565b9050919050565b5f61321f826131f4565b9050919050565b5f61323082613215565b9050919050565b61324081613226565b82525050565b5f6020820190506132595f830184613237565b92915050565b5f80fd5b5f80fd5b7f4e487b71000000000000000000000000000000000000000000000000000000005f52604160045260245ffd5b61329d82612ea7565b810181811067ffffffffffffffff821117156132bc576132bb613267565b5b80604052505050565b5f6132ce612da1565b90506132da8282613294565b919050565b5f67ffffffffffffffff8211156132f9576132f8613267565b5b61330282612ea7565b9050602081019050919050565b828183375f83830152505050565b5f61332f61332a846132df565b6132c5565b90508281526020810184848401111561334b5761334a613263565b5b61335684828561330f565b509392505050565b5f82601f8301126133725761337161325f565b5b813561338284826020860161331d565b91505092915050565b5f805f80608085870312156133a3576133a2612daa565b5b5f6133b087828801612fdb565b945050602085013567ffffffffffffffff8111156133d1576133d0612dae565b5b6133dd8782880161335e565b935050604085013567ffffffffffffffff8111156133fe576133fd612dae565b5b61340a8782880161335e565b925050606061341b87828801612f2e565b91505092959194509250565b61343081612e32565b811461343a575f80fd5b50565b5f8135905061344b81613427565b92915050565b5f806040838503121561346757613466612daa565b5b5f61347485828601612fdb565b92505060206134858582860161343d565b9150509250929050565b5f67ffffffffffffffff8211156134a9576134a8613267565b5b6134b282612ea7565b9050602081019050919050565b5f6134d16134cc8461348f565b6132c5565b9050828152602081018484840111156134ed576134ec613263565b5b6134f884828561330f565b509392505050565b5f82601f8301126135145761351361325f565b5b81356135248482602086016134bf565b91505092915050565b5f805f806080858703121561354557613544612daa565b5b5f61355287828801612fdb565b945050602061356387828801612fdb565b935050604061357487828801612f2e565b925050606085013567ffffffffffffffff81111561359557613594612dae565b5b6135a187828801613500565b91505092959194509250565b5f80604083850312156135c3576135c2612daa565b5b5f6135d085828601612f2e565b92505060206135e185828601612f2e565b9150509250929050565b5f806040838503121561360157613600612daa565b5b5f61360e85828601612fdb565b925050602061361f85828601612fdb565b9150509250929050565b7f4e487b71000000000000000000000000000000000000000000000000000000005f52602260045260245ffd5b5f600282049050600182168061366d57607f821691505b6020821081036136805761367f613629565b5b50919050565b5f6060820190506136995f830186612f9d565b6136a6602083018561302d565b6136b36040830184612f9d565b949350505050565b7f4552433732314d657461646174613a20517565727920666f72206e6f6e6578695f8201527f7374656e7420746f6b656e000000000000000000000000000000000000000000602082015250565b5f613715602b83612e6f565b9150613720826136bb565b604082019050919050565b5f6020820190508181035f83015261374281613709565b9050919050565b5f60408201905061375c5f830185612f9d565b613769602083018461302d565b9392505050565b7f4552433732313a207472616e736665722063616c6c6572206973206e6f74206f5f8201527f776e6572206e6f7220617070726f766564000000000000000000000000000000602082015250565b5f6137ca603183612e6f565b91506137d582613770565b604082019050919050565b5f6020820190508181035f8301526137f7816137be565b9050919050565b7f4e487b71000000000000000000000000000000000000000000000000000000005f52601160045260245ffd5b5f61383582612f0f565b915061384083612f0f565b9250828203905081811115613858576138576137fe565b5b92915050565b7f526573616c652070726f6869626974656420636c6f736520746f20666c6967685f8201527f742074696d650000000000000000000000000000000000000000000000000000602082015250565b5f6138b8602683612e6f565b91506138c38261385e565b604082019050919050565b5f6020820190508181035f8301526138e5816138ac565b9050919050565b5f815190506138fa81612f18565b92915050565b5f6020828403121561391557613914612daa565b5b5f613922848285016138ec565b91505092915050565b7f427579657220646f6573206e6f74206861766520656e6f756768206d6f6e65795f82015250565b5f61395f602083612e6f565b915061396a8261392b565b602082019050919050565b5f6020820190508181035f83015261398c81613953565b9050919050565b5f61399d82612f0f565b91506139a883612f0f565b92508282026139b681612f0f565b915082820484148315176139cd576139cc6137fe565b5b5092915050565b5f6060820190506139e75f830186612f9d565b6139f46020830185612f9d565b613a01604083018461302d565b949350505050565b5f81519050613a1781613427565b92915050565b5f60208284031215613a3257613a31612daa565b5b5f613a3f84828501613a09565b91505092915050565b7f4e487b71000000000000000000000000000000000000000000000000000000005f52603260045260245ffd5b5f613a7f82612f0f565b91507fffffffffffffffffffffffffffffffffffffffffffffffffffffffffffffffff8203613ab157613ab06137fe565b5b600182019050919050565b5f819050815f5260205f209050919050565b5f6020601f8301049050919050565b5f82821b905092915050565b5f60088302613b187fffffffffffffffffffffffffffffffffffffffffffffffffffffffffffffffff82613add565b613b228683613add565b95508019841693508086168417925050509392505050565b5f613b54613b4f613b4a84612f0f565b6131eb565b612f0f565b9050919050565b5f819050919050565b613b6d83613b3a565b613b81613b7982613b5b565b848454613ae9565b825550505050565b5f90565b613b95613b89565b613ba0818484613b64565b505050565b5b81811015613bc357613bb85f82613b8d565b600181019050613ba6565b5050565b601f821115613c0857613bd981613abc565b613be284613ace565b81016020851015613bf1578190505b613c05613bfd85613ace565b830182613ba5565b50505b505050565b5f82821c905092915050565b5f613c285f1984600802613c0d565b1980831691505092915050565b5f613c408383613c19565b9150826002028217905092915050565b613c5982612e65565b67ffffffffffffffff811115613c7257613c71613267565b5b613c7c8254613656565b613c87828285613bc7565b5f60209050601f831160018114613cb8575f8415613ca6578287015190505b613cb08582613c35565b865550613d17565b601f198416613cc686613abc565b5f5b82811015613ced57848901518255600182019150602085019450602081019050613cc8565b86831015613d0a5784890151613d06601f891682613c19565b8355505b6001600288020188555050505b505050505050565b5f81905092915050565b5f613d3382612e65565b613d3d8185613d1f565b9350613d4d818560208601612e7f565b80840191505092915050565b5f613d648285613d29565b9150613d708284613d29565b91508190509392505050565b7f4552433732313a206275726e2063616c6c6572206973206e6f74206f776e65725f8201527f206e6f7220617070726f76656400000000000000000000000000000000000000602082015250565b5f613dd6602d83612e6f565b9150613de182613d7c565b604082019050919050565b5f6020820190508181035f830152613e0381613dca565b9050919050565b7f5469636b65742073616c65732061726520636c6f7365640000000000000000005f82015250565b5f613e3e601783612e6f565b9150613e4982613e0a565b602082019050919050565b5f6020820190508181035f830152613e6b81613e32565b9050919050565b5f81519050919050565b5f82825260208201905092915050565b5f613e9682613e72565b613ea08185613e7c565b9350613eb0818560208601612e7f565b613eb981612ea7565b840191505092915050565b5f608082019050613ed75f830187612f9d565b613ee46020830186612f9d565b613ef1604083018561302d565b8181036060830152613f038184613e8c565b905095945050505050565b5f81519050613f1c81612ddd565b92915050565b5f60208284031215613f3757613f36612daa565b5b5f613f4484828501613f0e565b91505092915050565b7f4e487b71000000000000000000000000000000000000000000000000000000005f52601260045260245ffd5b7f4e487b71000000000000000000000000000000000000000000000000000000005f52603160045260245ffdfea26469706673582212202554e1f9d8d6029bb7625b9f34ccca316d705c11648ef7a0238c3d79a158067c64736f6c63430008150033",
  "immutableReferences": {},
  "source": "// SPDX-License-Identifier: MIT\n// Compatible with OpenZeppelin Contracts ^5.0.0\npragma solidity ^0.8.20;\n\nimport \"@openzeppelin/contracts/token/ERC721/ERC721.sol\";\nimport \"@openzeppelin/contracts/token/ERC721/extensions/ERC721Enumerable.sol\";\nimport \"@openzeppelin/contracts/token/ERC721/extensions/ERC721Pausable.sol\";\nimport \"@openzeppelin/contracts/access/Ownable.sol\";\nimport \"@openzeppelin/contracts/token/ERC20/IERC20.sol\";\n\ncontract TraveldqToken is ERC721, ERC721Enumerable, ERC721Pausable, Ownable {\n    uint256 private _nextTokenId;\n\n    IERC20 public usdc; // USDC token interface\n\n    uint256 public airlineFeePercentage = 5; // 5% goes to airlines wallet\n    uint256 public traveldqFeePercentage = 5; // 5% goes to travelDaq\n    uint256 public timeBeforeBuy = 10800; // 3 hours\n    address public airlineUsdcAddress; // airlines usdc address\n    address public traveldaqUsdcAddress; // airlines usdc address\n\n\n    // Metadata structure for each ticket\n    struct TicketMetadata {\n        string airlineCode;\n        string pnr;\n        uint256 flightTime;\n    }\n\n    function updateAirlineFeePercentage(uint256 _airlineFeePercentage) public onlyOwner {\n        airlineFeePercentage = _airlineFeePercentage;\n    }\n\n    function updateTraveldqFeePercentage(uint256 _traveldqFeePercentage) public onlyOwner {\n        traveldqFeePercentage = _traveldqFeePercentage;\n    }\n\n    function updateTimeBeforeBuy(uint256 _timeBeforeBuy) public onlyOwner {\n        timeBeforeBuy = _timeBeforeBuy;\n    }\n\n    function updateAirlinesUsdcAddress(address _airlineUsdcAddress) public onlyOwner {\n        airlineUsdcAddress = _airlineUsdcAddress;\n    }\n\n    function updateTraveldaqUsdcAddress(address _traveldaqUsdcAddress) public onlyOwner {\n        traveldaqUsdcAddress = _traveldaqUsdcAddress;\n    }\n\n    mapping(uint256 => TicketMetadata) private _ticketDetails;\n\n    constructor(address initialOwner, address usdcAddress, uint256 _timeBeforeBuy)\n        ERC721(\"TraveldqToken\", \"TDT\")\n        Ownable(initialOwner)\n    {\n        transferOwnership(initialOwner);\n        usdc = IERC20(usdcAddress);\n        timeBeforeBuy = _timeBeforeBuy; // 3 hours is 10800\n    }\n\n    function mintTicket(address to, string memory airlineCode, string memory pnr, uint256 flightTime) public onlyOwner {\n        uint256 tokenId = _nextTokenId++;\n        _ticketDetails[tokenId] = TicketMetadata(airlineCode, pnr, flightTime);\n        _safeMint(to, tokenId);\n    }\n\n    function pause() public onlyOwner {\n        _pause();\n    }\n\n    function unpause() public onlyOwner {\n        _unpause();\n    }\n\n    function sellTicket(uint256 tokenId, address buyer, uint256 salePrice) public {\n        // requires isApproved in erc721 \n        require(_isAuthorized(_ownerOf(tokenId), _msgSender(), tokenId), \"ERC721: transfer caller is not owner nor approved\");\n        require(block.timestamp <= _ticketDetails[tokenId].flightTime - 3 hours, \"Resale prohibited close to flight time\");\n        require(usdc.balanceOf(buyer) >= salePrice, \"Buyer does not have enough money\");\n\n        uint256 airlineFee = salePrice * airlineFeePercentage * 10**16; // no percentage here as we did 10**16 above.\n        uint256 traveldqFee = salePrice * traveldqFeePercentage * 10**16 ; // no percentage here as we did 10**16 above.\n        uint256 sellerRevenue = (salePrice * 10**18) - airlineFee - traveldqFee; // multiplying salesprice by 10**18 here \n\n        // require isApproved in erc20\n        usdc.transferFrom(buyer, airlineUsdcAddress, airlineFee); // airlines\n        // require isApproved in erc20\n        usdc.transferFrom(buyer, _ownerOf(tokenId), sellerRevenue); // seller\n        // require isApproved in erc20\n        usdc.transferFrom(buyer, traveldaqUsdcAddress, traveldqFee); // traveldaq\n\n        _transfer(_msgSender(), buyer, tokenId);\n    }\n\n    function cancelTicket(uint256 tokenId) public {\n        require(_isAuthorized(owner(), _msgSender(), tokenId) , \"ERC721: burn caller is not owner nor approved\");\n        _burn(tokenId);\n    }\n\n    function setDistributionRatios(uint256 newAirlineFeePercentage, uint256 newTraveldqFeePercentage) public onlyOwner {\n        airlineFeePercentage = newAirlineFeePercentage;\n        traveldqFeePercentage = newTraveldqFeePercentage;\n    }\n\n    function getTicketDetails(uint256 tokenId) public view returns (TicketMetadata memory) {\n        require(_ownerOf(tokenId) != address(0), \"ERC721Metadata: Query for nonexistent token\");\n        return _ticketDetails[tokenId];\n    }\n\n    // The following functions are overrides required by Solidity.\n    function _update(\n      address to,\n      uint256 tokenId,\n      address auth\n    ) internal override(ERC721, ERC721Enumerable, ERC721Pausable) returns (address) \n    {\n        require(_ticketDetails[tokenId].flightTime - 3 hours > block.timestamp, \"Ticket sales are closed\");\n        return super._update(to, tokenId, auth);\n    }\n\n    function _increaseBalance(address account, uint128 value)\n        internal\n        override(ERC721, ERC721Enumerable)\n    {\n        super._increaseBalance(account, value);\n    }\n\n    function supportsInterface(bytes4 interfaceId)\n        public\n        view\n        override(ERC721, ERC721Enumerable)\n        returns (bool)\n    {\n        return super.supportsInterface(interfaceId);\n    }\n}\n",
  "sourcePath": "/Users/atpuroh/Downloads/Workspace/traveldq-contract/contracts/TraveldqToken.sol",
  "compiler": {
    "name": "solc",
    "version": "0.8.21+commit.d9974bed.Emscripten.clang"
  },
  "schemaVersion": "3.4.16",
  "updatedAt": "2024-03-12T05:24:15.315Z",
  "devdoc": {
    "errors": {
      "ERC721EnumerableForbiddenBatchMint()": [
        {
          "details": "Batch mint is not allowed."
        }
      ],
      "ERC721IncorrectOwner(address,uint256,address)": [
        {
          "details": "Indicates an error related to the ownership over a particular token. Used in transfers.",
          "params": {
            "owner": "Address of the current owner of a token.",
            "sender": "Address whose tokens are being transferred.",
            "tokenId": "Identifier number of a token."
          }
        }
      ],
      "ERC721InsufficientApproval(address,uint256)": [
        {
          "details": "Indicates a failure with the `operator`s approval. Used in transfers.",
          "params": {
            "operator": "Address that may be allowed to operate on tokens without being their owner.",
            "tokenId": "Identifier number of a token."
          }
        }
      ],
      "ERC721InvalidApprover(address)": [
        {
          "details": "Indicates a failure with the `approver` of a token to be approved. Used in approvals.",
          "params": {
            "approver": "Address initiating an approval operation."
          }
        }
      ],
      "ERC721InvalidOperator(address)": [
        {
          "details": "Indicates a failure with the `operator` to be approved. Used in approvals.",
          "params": {
            "operator": "Address that may be allowed to operate on tokens without being their owner."
          }
        }
      ],
      "ERC721InvalidOwner(address)": [
        {
          "details": "Indicates that an address can't be an owner. For example, `address(0)` is a forbidden owner in EIP-20. Used in balance queries.",
          "params": {
            "owner": "Address of the current owner of a token."
          }
        }
      ],
      "ERC721InvalidReceiver(address)": [
        {
          "details": "Indicates a failure with the token `receiver`. Used in transfers.",
          "params": {
            "receiver": "Address to which tokens are being transferred."
          }
        }
      ],
      "ERC721InvalidSender(address)": [
        {
          "details": "Indicates a failure with the token `sender`. Used in transfers.",
          "params": {
            "sender": "Address whose tokens are being transferred."
          }
        }
      ],
      "ERC721NonexistentToken(uint256)": [
        {
          "details": "Indicates a `tokenId` whose `owner` is the zero address.",
          "params": {
            "tokenId": "Identifier number of a token."
          }
        }
      ],
      "ERC721OutOfBoundsIndex(address,uint256)": [
        {
          "details": "An `owner`'s token query was out of bounds for `index`. NOTE: The owner being `address(0)` indicates a global out of bounds index."
        }
      ],
      "EnforcedPause()": [
        {
          "details": "The operation failed because the contract is paused."
        }
      ],
      "ExpectedPause()": [
        {
          "details": "The operation failed because the contract is not paused."
        }
      ],
      "OwnableInvalidOwner(address)": [
        {
          "details": "The owner is not a valid owner account. (eg. `address(0)`)"
        }
      ],
      "OwnableUnauthorizedAccount(address)": [
        {
          "details": "The caller account is not authorized to perform an operation."
        }
      ]
    },
    "events": {
      "Approval(address,address,uint256)": {
        "details": "Emitted when `owner` enables `approved` to manage the `tokenId` token."
      },
      "ApprovalForAll(address,address,bool)": {
        "details": "Emitted when `owner` enables or disables (`approved`) `operator` to manage all of its assets."
      },
      "Paused(address)": {
        "details": "Emitted when the pause is triggered by `account`."
      },
      "Transfer(address,address,uint256)": {
        "details": "Emitted when `tokenId` token is transferred from `from` to `to`."
      },
      "Unpaused(address)": {
        "details": "Emitted when the pause is lifted by `account`."
      }
    },
    "kind": "dev",
    "methods": {
      "approve(address,uint256)": {
        "details": "See {IERC721-approve}."
      },
      "balanceOf(address)": {
        "details": "See {IERC721-balanceOf}."
      },
      "getApproved(uint256)": {
        "details": "See {IERC721-getApproved}."
      },
      "isApprovedForAll(address,address)": {
        "details": "See {IERC721-isApprovedForAll}."
      },
      "name()": {
        "details": "See {IERC721Metadata-name}."
      },
      "owner()": {
        "details": "Returns the address of the current owner."
      },
      "ownerOf(uint256)": {
        "details": "See {IERC721-ownerOf}."
      },
      "paused()": {
        "details": "Returns true if the contract is paused, and false otherwise."
      },
      "renounceOwnership()": {
        "details": "Leaves the contract without owner. It will not be possible to call `onlyOwner` functions. Can only be called by the current owner. NOTE: Renouncing ownership will leave the contract without an owner, thereby disabling any functionality that is only available to the owner."
      },
      "safeTransferFrom(address,address,uint256)": {
        "details": "See {IERC721-safeTransferFrom}."
      },
      "safeTransferFrom(address,address,uint256,bytes)": {
        "details": "See {IERC721-safeTransferFrom}."
      },
      "setApprovalForAll(address,bool)": {
        "details": "See {IERC721-setApprovalForAll}."
      },
      "symbol()": {
        "details": "See {IERC721Metadata-symbol}."
      },
      "tokenByIndex(uint256)": {
        "details": "See {IERC721Enumerable-tokenByIndex}."
      },
      "tokenOfOwnerByIndex(address,uint256)": {
        "details": "See {IERC721Enumerable-tokenOfOwnerByIndex}."
      },
      "tokenURI(uint256)": {
        "details": "See {IERC721Metadata-tokenURI}."
      },
      "totalSupply()": {
        "details": "See {IERC721Enumerable-totalSupply}."
      },
      "transferFrom(address,address,uint256)": {
        "details": "See {IERC721-transferFrom}."
      },
      "transferOwnership(address)": {
        "details": "Transfers ownership of the contract to a new account (`newOwner`). Can only be called by the current owner."
      }
    },
    "version": 1
  },
  "userdoc": {
    "kind": "user",
    "methods": {},
    "version": 1
  }
}