{
  "contractName": "TraveldqToken",
  "abi": [
    {
      "inputs": [
        {
          "internalType": "address",
          "name": "initialOwner",
          "type": "address"
        },
        {
          "internalType": "address",
          "name": "usdcAddress",
          "type": "address"
        }
      ],
      "stateMutability": "nonpayable",
      "type": "constructor"
    },
    {
      "inputs": [],
      "name": "ERC721EnumerableForbiddenBatchMint",
      "type": "error"
    },
    {
      "inputs": [
        {
          "internalType": "address",
          "name": "sender",
          "type": "address"
        },
        {
          "internalType": "uint256",
          "name": "tokenId",
          "type": "uint256"
        },
        {
          "internalType": "address",
          "name": "owner",
          "type": "address"
        }
      ],
      "name": "ERC721IncorrectOwner",
      "type": "error"
    },
    {
      "inputs": [
        {
          "internalType": "address",
          "name": "operator",
          "type": "address"
        },
        {
          "internalType": "uint256",
          "name": "tokenId",
          "type": "uint256"
        }
      ],
      "name": "ERC721InsufficientApproval",
      "type": "error"
    },
    {
      "inputs": [
        {
          "internalType": "address",
          "name": "approver",
          "type": "address"
        }
      ],
      "name": "ERC721InvalidApprover",
      "type": "error"
    },
    {
      "inputs": [
        {
          "internalType": "address",
          "name": "operator",
          "type": "address"
        }
      ],
      "name": "ERC721InvalidOperator",
      "type": "error"
    },
    {
      "inputs": [
        {
          "internalType": "address",
          "name": "owner",
          "type": "address"
        }
      ],
      "name": "ERC721InvalidOwner",
      "type": "error"
    },
    {
      "inputs": [
        {
          "internalType": "address",
          "name": "receiver",
          "type": "address"
        }
      ],
      "name": "ERC721InvalidReceiver",
      "type": "error"
    },
    {
      "inputs": [
        {
          "internalType": "address",
          "name": "sender",
          "type": "address"
        }
      ],
      "name": "ERC721InvalidSender",
      "type": "error"
    },
    {
      "inputs": [
        {
          "internalType": "uint256",
          "name": "tokenId",
          "type": "uint256"
        }
      ],
      "name": "ERC721NonexistentToken",
      "type": "error"
    },
    {
      "inputs": [
        {
          "internalType": "address",
          "name": "owner",
          "type": "address"
        },
        {
          "internalType": "uint256",
          "name": "index",
          "type": "uint256"
        }
      ],
      "name": "ERC721OutOfBoundsIndex",
      "type": "error"
    },
    {
      "inputs": [],
      "name": "EnforcedPause",
      "type": "error"
    },
    {
      "inputs": [],
      "name": "ExpectedPause",
      "type": "error"
    },
    {
      "inputs": [
        {
          "internalType": "address",
          "name": "owner",
          "type": "address"
        }
      ],
      "name": "OwnableInvalidOwner",
      "type": "error"
    },
    {
      "inputs": [
        {
          "internalType": "address",
          "name": "account",
          "type": "address"
        }
      ],
      "name": "OwnableUnauthorizedAccount",
      "type": "error"
    },
    {
      "anonymous": false,
      "inputs": [
        {
          "indexed": true,
          "internalType": "address",
          "name": "owner",
          "type": "address"
        },
        {
          "indexed": true,
          "internalType": "address",
          "name": "approved",
          "type": "address"
        },
        {
          "indexed": true,
          "internalType": "uint256",
          "name": "tokenId",
          "type": "uint256"
        }
      ],
      "name": "Approval",
      "type": "event"
    },
    {
      "anonymous": false,
      "inputs": [
        {
          "indexed": true,
          "internalType": "address",
          "name": "owner",
          "type": "address"
        },
        {
          "indexed": true,
          "internalType": "address",
          "name": "operator",
          "type": "address"
        },
        {
          "indexed": false,
          "internalType": "bool",
          "name": "approved",
          "type": "bool"
        }
      ],
      "name": "ApprovalForAll",
      "type": "event"
    },
    {
      "anonymous": false,
      "inputs": [
        {
          "indexed": true,
          "internalType": "address",
          "name": "previousOwner",
          "type": "address"
        },
        {
          "indexed": true,
          "internalType": "address",
          "name": "newOwner",
          "type": "address"
        }
      ],
      "name": "OwnershipTransferred",
      "type": "event"
    },
    {
      "anonymous": false,
      "inputs": [
        {
          "indexed": false,
          "internalType": "address",
          "name": "account",
          "type": "address"
        }
      ],
      "name": "Paused",
      "type": "event"
    },
    {
      "anonymous": false,
      "inputs": [
        {
          "indexed": true,
          "internalType": "address",
          "name": "from",
          "type": "address"
        },
        {
          "indexed": true,
          "internalType": "address",
          "name": "to",
          "type": "address"
        },
        {
          "indexed": true,
          "internalType": "uint256",
          "name": "tokenId",
          "type": "uint256"
        }
      ],
      "name": "Transfer",
      "type": "event"
    },
    {
      "anonymous": false,
      "inputs": [
        {
          "indexed": false,
          "internalType": "address",
          "name": "account",
          "type": "address"
        }
      ],
      "name": "Unpaused",
      "type": "event"
    },
    {
      "inputs": [],
      "name": "airlineFeePercentage",
      "outputs": [
        {
          "internalType": "uint256",
          "name": "",
          "type": "uint256"
        }
      ],
      "stateMutability": "view",
      "type": "function"
    },
    {
      "inputs": [
        {
          "internalType": "address",
          "name": "to",
          "type": "address"
        },
        {
          "internalType": "uint256",
          "name": "tokenId",
          "type": "uint256"
        }
      ],
      "name": "approve",
      "outputs": [],
      "stateMutability": "nonpayable",
      "type": "function"
    },
    {
      "inputs": [
        {
          "internalType": "address",
          "name": "owner",
          "type": "address"
        }
      ],
      "name": "balanceOf",
      "outputs": [
        {
          "internalType": "uint256",
          "name": "",
          "type": "uint256"
        }
      ],
      "stateMutability": "view",
      "type": "function"
    },
    {
      "inputs": [
        {
          "internalType": "uint256",
          "name": "tokenId",
          "type": "uint256"
        }
      ],
      "name": "getApproved",
      "outputs": [
        {
          "internalType": "address",
          "name": "",
          "type": "address"
        }
      ],
      "stateMutability": "view",
      "type": "function"
    },
    {
      "inputs": [
        {
          "internalType": "address",
          "name": "owner",
          "type": "address"
        },
        {
          "internalType": "address",
          "name": "operator",
          "type": "address"
        }
      ],
      "name": "isApprovedForAll",
      "outputs": [
        {
          "internalType": "bool",
          "name": "",
          "type": "bool"
        }
      ],
      "stateMutability": "view",
      "type": "function"
    },
    {
      "inputs": [],
      "name": "name",
      "outputs": [
        {
          "internalType": "string",
          "name": "",
          "type": "string"
        }
      ],
      "stateMutability": "view",
      "type": "function"
    },
    {
      "inputs": [],
      "name": "owner",
      "outputs": [
        {
          "internalType": "address",
          "name": "",
          "type": "address"
        }
      ],
      "stateMutability": "view",
      "type": "function"
    },
    {
      "inputs": [
        {
          "internalType": "uint256",
          "name": "tokenId",
          "type": "uint256"
        }
      ],
      "name": "ownerOf",
      "outputs": [
        {
          "internalType": "address",
          "name": "",
          "type": "address"
        }
      ],
      "stateMutability": "view",
      "type": "function"
    },
    {
      "inputs": [],
      "name": "paused",
      "outputs": [
        {
          "internalType": "bool",
          "name": "",
          "type": "bool"
        }
      ],
      "stateMutability": "view",
      "type": "function"
    },
    {
      "inputs": [],
      "name": "renounceOwnership",
      "outputs": [],
      "stateMutability": "nonpayable",
      "type": "function"
    },
    {
      "inputs": [
        {
          "internalType": "address",
          "name": "from",
          "type": "address"
        },
        {
          "internalType": "address",
          "name": "to",
          "type": "address"
        },
        {
          "internalType": "uint256",
          "name": "tokenId",
          "type": "uint256"
        }
      ],
      "name": "safeTransferFrom",
      "outputs": [],
      "stateMutability": "nonpayable",
      "type": "function"
    },
    {
      "inputs": [
        {
          "internalType": "address",
          "name": "from",
          "type": "address"
        },
        {
          "internalType": "address",
          "name": "to",
          "type": "address"
        },
        {
          "internalType": "uint256",
          "name": "tokenId",
          "type": "uint256"
        },
        {
          "internalType": "bytes",
          "name": "data",
          "type": "bytes"
        }
      ],
      "name": "safeTransferFrom",
      "outputs": [],
      "stateMutability": "nonpayable",
      "type": "function"
    },
    {
      "inputs": [
        {
          "internalType": "address",
          "name": "operator",
          "type": "address"
        },
        {
          "internalType": "bool",
          "name": "approved",
          "type": "bool"
        }
      ],
      "name": "setApprovalForAll",
      "outputs": [],
      "stateMutability": "nonpayable",
      "type": "function"
    },
    {
      "inputs": [],
      "name": "symbol",
      "outputs": [
        {
          "internalType": "string",
          "name": "",
          "type": "string"
        }
      ],
      "stateMutability": "view",
      "type": "function"
    },
    {
      "inputs": [
        {
          "internalType": "uint256",
          "name": "index",
          "type": "uint256"
        }
      ],
      "name": "tokenByIndex",
      "outputs": [
        {
          "internalType": "uint256",
          "name": "",
          "type": "uint256"
        }
      ],
      "stateMutability": "view",
      "type": "function"
    },
    {
      "inputs": [
        {
          "internalType": "address",
          "name": "owner",
          "type": "address"
        },
        {
          "internalType": "uint256",
          "name": "index",
          "type": "uint256"
        }
      ],
      "name": "tokenOfOwnerByIndex",
      "outputs": [
        {
          "internalType": "uint256",
          "name": "",
          "type": "uint256"
        }
      ],
      "stateMutability": "view",
      "type": "function"
    },
    {
      "inputs": [
        {
          "internalType": "uint256",
          "name": "tokenId",
          "type": "uint256"
        }
      ],
      "name": "tokenURI",
      "outputs": [
        {
          "internalType": "string",
          "name": "",
          "type": "string"
        }
      ],
      "stateMutability": "view",
      "type": "function"
    },
    {
      "inputs": [],
      "name": "totalSupply",
      "outputs": [
        {
          "internalType": "uint256",
          "name": "",
          "type": "uint256"
        }
      ],
      "stateMutability": "view",
      "type": "function"
    },
    {
      "inputs": [
        {
          "internalType": "address",
          "name": "from",
          "type": "address"
        },
        {
          "internalType": "address",
          "name": "to",
          "type": "address"
        },
        {
          "internalType": "uint256",
          "name": "tokenId",
          "type": "uint256"
        }
      ],
      "name": "transferFrom",
      "outputs": [],
      "stateMutability": "nonpayable",
      "type": "function"
    },
    {
      "inputs": [
        {
          "internalType": "address",
          "name": "newOwner",
          "type": "address"
        }
      ],
      "name": "transferOwnership",
      "outputs": [],
      "stateMutability": "nonpayable",
      "type": "function"
    },
    {
      "inputs": [],
      "name": "traveldqFeePercentage",
      "outputs": [
        {
          "internalType": "uint256",
          "name": "",
          "type": "uint256"
        }
      ],
      "stateMutability": "view",
      "type": "function"
    },
    {
      "inputs": [],
      "name": "usdc",
      "outputs": [
        {
          "internalType": "contract IERC20",
          "name": "",
          "type": "address"
        }
      ],
      "stateMutability": "view",
      "type": "function"
    },
    {
      "inputs": [
        {
          "internalType": "address",
          "name": "to",
          "type": "address"
        },
        {
          "internalType": "string",
          "name": "airlineCode",
          "type": "string"
        },
        {
          "internalType": "string",
          "name": "pnr",
          "type": "string"
        },
        {
          "internalType": "uint256",
          "name": "travelDate",
          "type": "uint256"
        },
        {
          "internalType": "uint256",
          "name": "flightTime",
          "type": "uint256"
        }
      ],
      "name": "mintTicket",
      "outputs": [],
      "stateMutability": "nonpayable",
      "type": "function"
    },
    {
      "inputs": [],
      "name": "pause",
      "outputs": [],
      "stateMutability": "nonpayable",
      "type": "function"
    },
    {
      "inputs": [],
      "name": "unpause",
      "outputs": [],
      "stateMutability": "nonpayable",
      "type": "function"
    },
    {
      "inputs": [
        {
          "internalType": "uint256",
          "name": "tokenId",
          "type": "uint256"
        },
        {
          "internalType": "address",
          "name": "buyer",
          "type": "address"
        },
        {
          "internalType": "uint256",
          "name": "salePrice",
          "type": "uint256"
        }
      ],
      "name": "sellTicket",
      "outputs": [],
      "stateMutability": "nonpayable",
      "type": "function"
    },
    {
      "inputs": [
        {
          "internalType": "uint256",
          "name": "tokenId",
          "type": "uint256"
        }
      ],
      "name": "cancelTicket",
      "outputs": [],
      "stateMutability": "nonpayable",
      "type": "function"
    },
    {
      "inputs": [
        {
          "internalType": "uint256",
          "name": "newAirlineFeePercentage",
          "type": "uint256"
        },
        {
          "internalType": "uint256",
          "name": "newTraveldqFeePercentage",
          "type": "uint256"
        }
      ],
      "name": "setDistributionRatios",
      "outputs": [],
      "stateMutability": "nonpayable",
      "type": "function"
    },
    {
      "inputs": [
        {
          "internalType": "uint256",
          "name": "tokenId",
          "type": "uint256"
        }
      ],
      "name": "getTicketDetails",
      "outputs": [
        {
          "components": [
            {
              "internalType": "string",
              "name": "airlineCode",
              "type": "string"
            },
            {
              "internalType": "string",
              "name": "pnr",
              "type": "string"
            },
            {
              "internalType": "uint256",
              "name": "travelDate",
              "type": "uint256"
            },
            {
              "internalType": "uint256",
              "name": "flightTime",
              "type": "uint256"
            }
          ],
          "internalType": "struct TraveldqToken.TicketMetadata",
          "name": "",
          "type": "tuple"
        }
      ],
      "stateMutability": "view",
      "type": "function"
    },
    {
      "inputs": [
        {
          "internalType": "bytes4",
          "name": "interfaceId",
          "type": "bytes4"
        }
      ],
      "name": "supportsInterface",
      "outputs": [
        {
          "internalType": "bool",
          "name": "",
          "type": "bool"
        }
      ],
      "stateMutability": "view",
      "type": "function"
    }
  ],
  "bytecode": "0x60806040526005600d556005600e553480156200001a575f80fd5b50604051620044423803806200444283398181016040528101906200004091906200045c565b816040518060400160405280600d81526020017f54726176656c6471546f6b656e000000000000000000000000000000000000008152506040518060400160405280600381526020017f5444540000000000000000000000000000000000000000000000000000000000815250815f9081620000bd919062000705565b508060019081620000cf919062000705565b5050505f600a5f6101000a81548160ff0219169083151502179055505f73ffffffffffffffffffffffffffffffffffffffff168173ffffffffffffffffffffffffffffffffffffffff16036200015e575f6040517f1e4fbdf7000000000000000000000000000000000000000000000000000000008152600401620001559190620007fa565b60405180910390fd5b6200016f81620001c960201b60201c565b5062000181826200028e60201b60201c565b80600c5f6101000a81548173ffffffffffffffffffffffffffffffffffffffff021916908373ffffffffffffffffffffffffffffffffffffffff160217905550505062000815565b5f600a60019054906101000a900473ffffffffffffffffffffffffffffffffffffffff16905081600a60016101000a81548173ffffffffffffffffffffffffffffffffffffffff021916908373ffffffffffffffffffffffffffffffffffffffff1602179055508173ffffffffffffffffffffffffffffffffffffffff168173ffffffffffffffffffffffffffffffffffffffff167f8be0079c531659141344cd1fd0a4f28419497f9722a3daafe3b4186f6b6457e060405160405180910390a35050565b6200029e6200032560201b60201c565b5f73ffffffffffffffffffffffffffffffffffffffff168173ffffffffffffffffffffffffffffffffffffffff160362000311575f6040517f1e4fbdf7000000000000000000000000000000000000000000000000000000008152600401620003089190620007fa565b60405180910390fd5b6200032281620001c960201b60201c565b50565b62000335620003c760201b60201c565b73ffffffffffffffffffffffffffffffffffffffff166200035b620003ce60201b60201c565b73ffffffffffffffffffffffffffffffffffffffff1614620003c55762000387620003c760201b60201c565b6040517f118cdaa7000000000000000000000000000000000000000000000000000000008152600401620003bc9190620007fa565b60405180910390fd5b565b5f33905090565b5f600a60019054906101000a900473ffffffffffffffffffffffffffffffffffffffff16905090565b5f80fd5b5f73ffffffffffffffffffffffffffffffffffffffff82169050919050565b5f6200042682620003fb565b9050919050565b62000438816200041a565b811462000443575f80fd5b50565b5f8151905062000456816200042d565b92915050565b5f8060408385031215620004755762000474620003f7565b5b5f620004848582860162000446565b9250506020620004978582860162000446565b9150509250929050565b5f81519050919050565b7f4e487b71000000000000000000000000000000000000000000000000000000005f52604160045260245ffd5b7f4e487b71000000000000000000000000000000000000000000000000000000005f52602260045260245ffd5b5f60028204905060018216806200051d57607f821691505b602082108103620005335762000532620004d8565b5b50919050565b5f819050815f5260205f209050919050565b5f6020601f8301049050919050565b5f82821b905092915050565b5f60088302620005977fffffffffffffffffffffffffffffffffffffffffffffffffffffffffffffffff826200055a565b620005a386836200055a565b95508019841693508086168417925050509392505050565b5f819050919050565b5f819050919050565b5f620005ed620005e7620005e184620005bb565b620005c4565b620005bb565b9050919050565b5f819050919050565b6200060883620005cd565b620006206200061782620005f4565b84845462000566565b825550505050565b5f90565b6200063662000628565b62000643818484620005fd565b505050565b5b818110156200066a576200065e5f826200062c565b60018101905062000649565b5050565b601f821115620006b957620006838162000539565b6200068e846200054b565b810160208510156200069e578190505b620006b6620006ad856200054b565b83018262000648565b50505b505050565b5f82821c905092915050565b5f620006db5f1984600802620006be565b1980831691505092915050565b5f620006f58383620006ca565b9150826002028217905092915050565b6200071082620004a1565b67ffffffffffffffff8111156200072c576200072b620004ab565b5b62000738825462000505565b620007458282856200066e565b5f60209050601f8311600181146200077b575f841562000766578287015190505b620007728582620006e8565b865550620007e1565b601f1984166200078b8662000539565b5f5b82811015620007b4578489015182556001820191506020850194506020810190506200078d565b86831015620007d45784890151620007d0601f891682620006ca565b8355505b6001600288020188555050505b505050505050565b620007f4816200041a565b82525050565b5f6020820190506200080f5f830184620007e9565b92915050565b613c1f80620008235f395ff3fe608060405234801561000f575f80fd5b50600436106101d8575f3560e01c80636352211e11610102578063b247a9c2116100a0578063c87b56dd1161006f578063c87b56dd1461051a578063e985e9c51461054a578063ee355b1f1461057a578063f2fde38b14610596576101d8565b8063b247a9c2146104a6578063b88d4fde146104c4578063b92ab477146104e0578063b9e610c9146104fc576101d8565b80638456cb59116100dc5780638456cb59146104445780638da5cb5b1461044e57806395d89b411461046c578063a22cb4651461048a576101d8565b80636352211e146103da57806370a082311461040a578063715018a61461043a576101d8565b806325f029da1161017a5780633f4ba83a116101495780633f4ba83a1461036657806342842e0e146103705780634f6ccce71461038c5780635c975abb146103bc576101d8565b806325f029da146102e05780632f745c59146102fc5780633ae05b301461032c5780633e413bee14610348576101d8565b8063095ea7b3116101b6578063095ea7b31461025a57806318160ddd1461027657806323b872dd1461029457806324c14160146102b0576101d8565b806301ffc9a7146101dc57806306fdde031461020c578063081812fc1461022a575b5f80fd5b6101f660048036038101906101f19190612a9a565b6105b2565b6040516102039190612adf565b60405180910390f35b6102146105c3565b6040516102219190612b82565b60405180910390f35b610244600480360381019061023f9190612bd5565b610652565b6040516102519190612c3f565b60405180910390f35b610274600480360381019061026f9190612c82565b61066d565b005b61027e610683565b60405161028b9190612ccf565b60405180910390f35b6102ae60048036038101906102a99190612ce8565b61068f565b005b6102ca60048036038101906102c59190612bd5565b61078e565b6040516102d79190612df6565b60405180910390f35b6102fa60048036038101906102f59190612f42565b610962565b005b61031660048036038101906103119190612c82565b610a08565b6040516103239190612ccf565b60405180910390f35b61034660048036038101906103419190612ff1565b610aac565b005b610350610dc2565b60405161035d919061309c565b60405180910390f35b61036e610de7565b005b61038a60048036038101906103859190612ce8565b610df9565b005b6103a660048036038101906103a19190612bd5565b610e18565b6040516103b39190612ccf565b60405180910390f35b6103c4610e8a565b6040516103d19190612adf565b60405180910390f35b6103f460048036038101906103ef9190612bd5565b610e9f565b6040516104019190612c3f565b60405180910390f35b610424600480360381019061041f91906130b5565b610eb0565b6040516104319190612ccf565b60405180910390f35b610442610f66565b005b61044c610f79565b005b610456610f8b565b6040516104639190612c3f565b60405180910390f35b610474610fb4565b6040516104819190612b82565b60405180910390f35b6104a4600480360381019061049f919061310a565b611044565b005b6104ae61105a565b6040516104bb9190612ccf565b60405180910390f35b6104de60048036038101906104d991906131e6565b611060565b005b6104fa60048036038101906104f59190613266565b61107d565b005b610504611097565b6040516105119190612ccf565b60405180910390f35b610534600480360381019061052f9190612bd5565b61109d565b6040516105419190612b82565b60405180910390f35b610564600480360381019061055f91906132a4565b611103565b6040516105719190612adf565b60405180910390f35b610594600480360381019061058f9190612bd5565b611191565b005b6105b060048036038101906105ab91906130b5565b6111f5565b005b5f6105bc82611279565b9050919050565b60605f80546105d19061330f565b80601f01602080910402602001604051908101604052809291908181526020018280546105fd9061330f565b80156106485780601f1061061f57610100808354040283529160200191610648565b820191905f5260205f20905b81548152906001019060200180831161062b57829003601f168201915b5050505050905090565b5f61065c826112f2565b5061066682611378565b9050919050565b61067f828261067a6113b1565b6113b8565b5050565b5f600880549050905090565b5f73ffffffffffffffffffffffffffffffffffffffff168273ffffffffffffffffffffffffffffffffffffffff16036106ff575f6040517f64a0ae920000000000000000000000000000000000000000000000000000000081526004016106f69190612c3f565b60405180910390fd5b5f610712838361070d6113b1565b6113ca565b90508373ffffffffffffffffffffffffffffffffffffffff168173ffffffffffffffffffffffffffffffffffffffff1614610788578382826040517f64283d7b00000000000000000000000000000000000000000000000000000000815260040161077f9392919061333f565b60405180910390fd5b50505050565b610796612a0e565b5f73ffffffffffffffffffffffffffffffffffffffff166107b683611444565b73ffffffffffffffffffffffffffffffffffffffff160361080c576040517f08c379a0000000000000000000000000000000000000000000000000000000008152600401610803906133e4565b60405180910390fd5b600f5f8381526020019081526020015f206040518060800160405290815f820180546108379061330f565b80601f01602080910402602001604051908101604052809291908181526020018280546108639061330f565b80156108ae5780601f10610885576101008083540402835291602001916108ae565b820191905f5260205f20905b81548152906001019060200180831161089157829003601f168201915b505050505081526020016001820180546108c79061330f565b80601f01602080910402602001604051908101604052809291908181526020018280546108f39061330f565b801561093e5780601f106109155761010080835404028352916020019161093e565b820191905f5260205f20905b81548152906001019060200180831161092157829003601f168201915b50505050508152602001600282015481526020016003820154815250509050919050565b61096a61147d565b5f600b5f81548092919061097d9061342f565b919050559050604051806080016040528086815260200185815260200184815260200183815250600f5f8381526020019081526020015f205f820151815f0190816109c8919061360a565b5060208201518160010190816109de919061360a565b506040820151816002015560608201518160030155905050610a008682611504565b505050505050565b5f610a1283610eb0565b8210610a575782826040517fa57d13dc000000000000000000000000000000000000000000000000000000008152600401610a4e9291906136d9565b60405180910390fd5b60065f8473ffffffffffffffffffffffffffffffffffffffff1673ffffffffffffffffffffffffffffffffffffffff1681526020019081526020015f205f8381526020019081526020015f2054905092915050565b610ac6610ab884611444565b610ac06113b1565b85611521565b610b05576040517f08c379a0000000000000000000000000000000000000000000000000000000008152600401610afc90613770565b60405180910390fd5b612a30600f5f8581526020019081526020015f2060030154610b27919061378e565b421115610b69576040517f08c379a0000000000000000000000000000000000000000000000000000000008152600401610b6090613831565b60405180910390fd5b5f6064600d5483610b7a919061384f565b610b8491906138bd565b90505f6064600e5484610b97919061384f565b610ba191906138bd565b90505f818385610bb1919061378e565b610bbb919061378e565b9050600c5f9054906101000a900473ffffffffffffffffffffffffffffffffffffffff1673ffffffffffffffffffffffffffffffffffffffff166323b872dd86610c03610f8b565b866040518463ffffffff1660e01b8152600401610c22939291906138ed565b6020604051808303815f875af1158015610c3e573d5f803e3d5ffd5b505050506040513d601f19601f82011682018060405250810190610c629190613936565b50600c5f9054906101000a900473ffffffffffffffffffffffffffffffffffffffff1673ffffffffffffffffffffffffffffffffffffffff166323b872dd86610ca96113b1565b846040518463ffffffff1660e01b8152600401610cc8939291906138ed565b6020604051808303815f875af1158015610ce4573d5f803e3d5ffd5b505050506040513d601f19601f82011682018060405250810190610d089190613936565b50600c5f9054906101000a900473ffffffffffffffffffffffffffffffffffffffff1673ffffffffffffffffffffffffffffffffffffffff166323b872dd8630856040518463ffffffff1660e01b8152600401610d67939291906138ed565b6020604051808303815f875af1158015610d83573d5f803e3d5ffd5b505050506040513d601f19601f82011682018060405250810190610da79190613936565b50610dba610db36113b1565b86886115e1565b505050505050565b600c5f9054906101000a900473ffffffffffffffffffffffffffffffffffffffff1681565b610def61147d565b610df7611749565b565b610e1383838360405180602001604052805f815250611060565b505050565b5f610e21610683565b8210610e66575f826040517fa57d13dc000000000000000000000000000000000000000000000000000000008152600401610e5d9291906136d9565b60405180910390fd5b60088281548110610e7a57610e79613961565b5b905f5260205f2001549050919050565b5f600a5f9054906101000a900460ff16905090565b5f610ea9826112f2565b9050919050565b5f8073ffffffffffffffffffffffffffffffffffffffff168273ffffffffffffffffffffffffffffffffffffffff1603610f21575f6040517f89c62b64000000000000000000000000000000000000000000000000000000008152600401610f189190612c3f565b60405180910390fd5b60035f8373ffffffffffffffffffffffffffffffffffffffff1673ffffffffffffffffffffffffffffffffffffffff1681526020019081526020015f20549050919050565b610f6e61147d565b610f775f6117aa565b565b610f8161147d565b610f8961186f565b565b5f600a60019054906101000a900473ffffffffffffffffffffffffffffffffffffffff16905090565b606060018054610fc39061330f565b80601f0160208091040260200160405190810160405280929190818152602001828054610fef9061330f565b801561103a5780601f106110115761010080835404028352916020019161103a565b820191905f5260205f20905b81548152906001019060200180831161101d57829003601f168201915b5050505050905090565b61105661104f6113b1565b83836118d1565b5050565b600d5481565b61106b84848461068f565b61107784848484611a3a565b50505050565b61108561147d565b81600d8190555080600e819055505050565b600e5481565b60606110a8826112f2565b505f6110b2611bec565b90505f8151116110d05760405180602001604052805f8152506110fb565b806110da84611c02565b6040516020016110eb9291906139c8565b6040516020818303038152906040525b915050919050565b5f60055f8473ffffffffffffffffffffffffffffffffffffffff1673ffffffffffffffffffffffffffffffffffffffff1681526020019081526020015f205f8373ffffffffffffffffffffffffffffffffffffffff1673ffffffffffffffffffffffffffffffffffffffff1681526020019081526020015f205f9054906101000a900460ff16905092915050565b6111aa61119c610f8b565b6111a46113b1565b83611521565b6111e9576040517f08c379a00000000000000000000000000000000000000000000000000000000081526004016111e090613a5b565b60405180910390fd5b6111f281611ccc565b50565b6111fd61147d565b5f73ffffffffffffffffffffffffffffffffffffffff168173ffffffffffffffffffffffffffffffffffffffff160361126d575f6040517f1e4fbdf70000000000000000000000000000000000000000000000000000000081526004016112649190612c3f565b60405180910390fd5b611276816117aa565b50565b5f7f780e9d63000000000000000000000000000000000000000000000000000000007bffffffffffffffffffffffffffffffffffffffffffffffffffffffff1916827bffffffffffffffffffffffffffffffffffffffffffffffffffffffff191614806112eb57506112ea82611d4e565b5b9050919050565b5f806112fd83611444565b90505f73ffffffffffffffffffffffffffffffffffffffff168173ffffffffffffffffffffffffffffffffffffffff160361136f57826040517f7e2732890000000000000000000000000000000000000000000000000000000081526004016113669190612ccf565b60405180910390fd5b80915050919050565b5f60045f8381526020019081526020015f205f9054906101000a900473ffffffffffffffffffffffffffffffffffffffff169050919050565b5f33905090565b6113c58383836001611e2f565b505050565b5f42612a30600f5f8681526020019081526020015f20600301546113ee919061378e565b1161142e576040517f08c379a000000000000000000000000000000000000000000000000000000000815260040161142590613ac3565b60405180910390fd5b611439848484611fee565b508190509392505050565b5f60025f8381526020019081526020015f205f9054906101000a900473ffffffffffffffffffffffffffffffffffffffff169050919050565b6114856113b1565b73ffffffffffffffffffffffffffffffffffffffff166114a3610f8b565b73ffffffffffffffffffffffffffffffffffffffff1614611502576114c66113b1565b6040517f118cdaa70000000000000000000000000000000000000000000000000000000081526004016114f99190612c3f565b60405180910390fd5b565b61151d828260405180602001604052805f81525061200b565b5050565b5f8073ffffffffffffffffffffffffffffffffffffffff168373ffffffffffffffffffffffffffffffffffffffff16141580156115d857508273ffffffffffffffffffffffffffffffffffffffff168473ffffffffffffffffffffffffffffffffffffffff16148061159957506115988484611103565b5b806115d757508273ffffffffffffffffffffffffffffffffffffffff166115bf83611378565b73ffffffffffffffffffffffffffffffffffffffff16145b5b90509392505050565b5f73ffffffffffffffffffffffffffffffffffffffff168273ffffffffffffffffffffffffffffffffffffffff1603611651575f6040517f64a0ae920000000000000000000000000000000000000000000000000000000081526004016116489190612c3f565b60405180910390fd5b5f61165d83835f6113ca565b90505f73ffffffffffffffffffffffffffffffffffffffff168173ffffffffffffffffffffffffffffffffffffffff16036116cf57816040517f7e2732890000000000000000000000000000000000000000000000000000000081526004016116c69190612ccf565b60405180910390fd5b8373ffffffffffffffffffffffffffffffffffffffff168173ffffffffffffffffffffffffffffffffffffffff1614611743578382826040517f64283d7b00000000000000000000000000000000000000000000000000000000815260040161173a9392919061333f565b60405180910390fd5b50505050565b611751612026565b5f600a5f6101000a81548160ff0219169083151502179055507f5db9ee0a495bf2e6ff9c91a7834c1ba4fdd244a5e8aa4e537bd38aeae4b073aa6117936113b1565b6040516117a09190612c3f565b60405180910390a1565b5f600a60019054906101000a900473ffffffffffffffffffffffffffffffffffffffff16905081600a60016101000a81548173ffffffffffffffffffffffffffffffffffffffff021916908373ffffffffffffffffffffffffffffffffffffffff1602179055508173ffffffffffffffffffffffffffffffffffffffff168173ffffffffffffffffffffffffffffffffffffffff167f8be0079c531659141344cd1fd0a4f28419497f9722a3daafe3b4186f6b6457e060405160405180910390a35050565b611877612066565b6001600a5f6101000a81548160ff0219169083151502179055507f62e78cea01bee320cd4e420270b5ea74000d11b0c9f74754ebdbfc544b05a2586118ba6113b1565b6040516118c79190612c3f565b60405180910390a1565b5f73ffffffffffffffffffffffffffffffffffffffff168273ffffffffffffffffffffffffffffffffffffffff160361194157816040517f5b08ba180000000000000000000000000000000000000000000000000000000081526004016119389190612c3f565b60405180910390fd5b8060055f8573ffffffffffffffffffffffffffffffffffffffff1673ffffffffffffffffffffffffffffffffffffffff1681526020019081526020015f205f8473ffffffffffffffffffffffffffffffffffffffff1673ffffffffffffffffffffffffffffffffffffffff1681526020019081526020015f205f6101000a81548160ff0219169083151502179055508173ffffffffffffffffffffffffffffffffffffffff168373ffffffffffffffffffffffffffffffffffffffff167f17307eab39ab6107e8899845ad3d59bd9653f200f220920489ca2b5937696c3183604051611a2d9190612adf565b60405180910390a3505050565b5f8373ffffffffffffffffffffffffffffffffffffffff163b1115611be6578273ffffffffffffffffffffffffffffffffffffffff1663150b7a02611a7d6113b1565b8685856040518563ffffffff1660e01b8152600401611a9f9493929190613b33565b6020604051808303815f875af1925050508015611ada57506040513d601f19601f82011682018060405250810190611ad79190613b91565b60015b611b5b573d805f8114611b08576040519150601f19603f3d011682016040523d82523d5f602084013e611b0d565b606091505b505f815103611b5357836040517f64a0ae92000000000000000000000000000000000000000000000000000000008152600401611b4a9190612c3f565b60405180910390fd5b805181602001fd5b63150b7a0260e01b7bffffffffffffffffffffffffffffffffffffffffffffffffffffffff1916817bffffffffffffffffffffffffffffffffffffffffffffffffffffffff191614611be457836040517f64a0ae92000000000000000000000000000000000000000000000000000000008152600401611bdb9190612c3f565b60405180910390fd5b505b50505050565b606060405180602001604052805f815250905090565b60605f6001611c10846120a7565b0190505f8167ffffffffffffffff811115611c2e57611c2d612e1e565b5b6040519080825280601f01601f191660200182016040528015611c605781602001600182028036833780820191505090505b5090505f82602001820190505b600115611cc1578080600190039150507f3031323334353637383961626364656600000000000000000000000000000000600a86061a8153600a8581611cb657611cb5613890565b5b0494505f8503611c6d575b819350505050919050565b5f611cd85f835f6113ca565b90505f73ffffffffffffffffffffffffffffffffffffffff168173ffffffffffffffffffffffffffffffffffffffff1603611d4a57816040517f7e273289000000000000000000000000000000000000000000000000000000008152600401611d419190612ccf565b60405180910390fd5b5050565b5f7f80ac58cd000000000000000000000000000000000000000000000000000000007bffffffffffffffffffffffffffffffffffffffffffffffffffffffff1916827bffffffffffffffffffffffffffffffffffffffffffffffffffffffff19161480611e1857507f5b5e139f000000000000000000000000000000000000000000000000000000007bffffffffffffffffffffffffffffffffffffffffffffffffffffffff1916827bffffffffffffffffffffffffffffffffffffffffffffffffffffffff1916145b80611e285750611e27826121f8565b5b9050919050565b8080611e6757505f73ffffffffffffffffffffffffffffffffffffffff168273ffffffffffffffffffffffffffffffffffffffff1614155b15611f99575f611e76846112f2565b90505f73ffffffffffffffffffffffffffffffffffffffff168373ffffffffffffffffffffffffffffffffffffffff1614158015611ee057508273ffffffffffffffffffffffffffffffffffffffff168173ffffffffffffffffffffffffffffffffffffffff1614155b8015611ef35750611ef18184611103565b155b15611f3557826040517fa9fbf51f000000000000000000000000000000000000000000000000000000008152600401611f2c9190612c3f565b60405180910390fd5b8115611f9757838573ffffffffffffffffffffffffffffffffffffffff168273ffffffffffffffffffffffffffffffffffffffff167f8c5be1e5ebec7d5bd14f71427d1e84f3dd0314c0f7b2291e5b200ac8c7c3b92560405160405180910390a45b505b8360045f8581526020019081526020015f205f6101000a81548173ffffffffffffffffffffffffffffffffffffffff021916908373ffffffffffffffffffffffffffffffffffffffff16021790555050505050565b5f611ff7612066565b612002848484612261565b90509392505050565b612015838361237b565b6120215f848484611a3a565b505050565b61202e610e8a565b612064576040517f8dfc202b00000000000000000000000000000000000000000000000000000000815260040160405180910390fd5b565b61206e610e8a565b156120a5576040517fd93c066500000000000000000000000000000000000000000000000000000000815260040160405180910390fd5b565b5f805f90507a184f03e93ff9f4daa797ed6e38ed64bf6a1f0100000000000000008310612103577a184f03e93ff9f4daa797ed6e38ed64bf6a1f01000000000000000083816120f9576120f8613890565b5b0492506040810190505b6d04ee2d6d415b85acef81000000008310612140576d04ee2d6d415b85acef8100000000838161213657612135613890565b5b0492506020810190505b662386f26fc10000831061216f57662386f26fc10000838161216557612164613890565b5b0492506010810190505b6305f5e1008310612198576305f5e100838161218e5761218d613890565b5b0492506008810190505b61271083106121bd5761271083816121b3576121b2613890565b5b0492506004810190505b606483106121e057606483816121d6576121d5613890565b5b0492506002810190505b600a83106121ef576001810190505b80915050919050565b5f7f01ffc9a7000000000000000000000000000000000000000000000000000000007bffffffffffffffffffffffffffffffffffffffffffffffffffffffff1916827bffffffffffffffffffffffffffffffffffffffffffffffffffffffff1916149050919050565b5f8061226e85858561246e565b90505f73ffffffffffffffffffffffffffffffffffffffff168173ffffffffffffffffffffffffffffffffffffffff16036122b1576122ac84612679565b6122f0565b8473ffffffffffffffffffffffffffffffffffffffff168173ffffffffffffffffffffffffffffffffffffffff16146122ef576122ee81856126bd565b5b5b5f73ffffffffffffffffffffffffffffffffffffffff168573ffffffffffffffffffffffffffffffffffffffff16036123315761232c84612807565b612370565b8473ffffffffffffffffffffffffffffffffffffffff168173ffffffffffffffffffffffffffffffffffffffff161461236f5761236e85856128c7565b5b5b809150509392505050565b5f73ffffffffffffffffffffffffffffffffffffffff168273ffffffffffffffffffffffffffffffffffffffff16036123eb575f6040517f64a0ae920000000000000000000000000000000000000000000000000000000081526004016123e29190612c3f565b60405180910390fd5b5f6123f783835f6113ca565b90505f73ffffffffffffffffffffffffffffffffffffffff168173ffffffffffffffffffffffffffffffffffffffff1614612469575f6040517f73c6ac6e0000000000000000000000000000000000000000000000000000000081526004016124609190612c3f565b60405180910390fd5b505050565b5f8061247984611444565b90505f73ffffffffffffffffffffffffffffffffffffffff168373ffffffffffffffffffffffffffffffffffffffff16146124ba576124b981848661294b565b5b5f73ffffffffffffffffffffffffffffffffffffffff168173ffffffffffffffffffffffffffffffffffffffff1614612545576124f95f855f80611e2f565b600160035f8373ffffffffffffffffffffffffffffffffffffffff1673ffffffffffffffffffffffffffffffffffffffff1681526020019081526020015f205f82825403925050819055505b5f73ffffffffffffffffffffffffffffffffffffffff168573ffffffffffffffffffffffffffffffffffffffff16146125c457600160035f8773ffffffffffffffffffffffffffffffffffffffff1673ffffffffffffffffffffffffffffffffffffffff1681526020019081526020015f205f82825401925050819055505b8460025f8681526020019081526020015f205f6101000a81548173ffffffffffffffffffffffffffffffffffffffff021916908373ffffffffffffffffffffffffffffffffffffffff160217905550838573ffffffffffffffffffffffffffffffffffffffff168273ffffffffffffffffffffffffffffffffffffffff167fddf252ad1be2c89b69c2b068fc378daa952ba7f163c4a11628f55a4df523b3ef60405160405180910390a4809150509392505050565b60088054905060095f8381526020019081526020015f2081905550600881908060018154018082558091505060019003905f5260205f20015f909190919091505550565b5f6126c783610eb0565b90505f60075f8481526020019081526020015f2054905081811461279e575f60065f8673ffffffffffffffffffffffffffffffffffffffff1673ffffffffffffffffffffffffffffffffffffffff1681526020019081526020015f205f8481526020019081526020015f205490508060065f8773ffffffffffffffffffffffffffffffffffffffff1673ffffffffffffffffffffffffffffffffffffffff1681526020019081526020015f205f8481526020019081526020015f20819055508160075f8381526020019081526020015f2081905550505b60075f8481526020019081526020015f205f905560065f8573ffffffffffffffffffffffffffffffffffffffff1673ffffffffffffffffffffffffffffffffffffffff1681526020019081526020015f205f8381526020019081526020015f205f905550505050565b5f600160088054905061281a919061378e565b90505f60095f8481526020019081526020015f205490505f6008838154811061284657612845613961565b5b905f5260205f2001549050806008838154811061286657612865613961565b5b905f5260205f2001819055508160095f8381526020019081526020015f208190555060095f8581526020019081526020015f205f905560088054806128ae576128ad613bbc565b5b600190038181905f5260205f20015f9055905550505050565b5f60016128d384610eb0565b6128dd919061378e565b90508160065f8573ffffffffffffffffffffffffffffffffffffffff1673ffffffffffffffffffffffffffffffffffffffff1681526020019081526020015f205f8381526020019081526020015f20819055508060075f8481526020019081526020015f2081905550505050565b612956838383611521565b612a09575f73ffffffffffffffffffffffffffffffffffffffff168373ffffffffffffffffffffffffffffffffffffffff16036129ca57806040517f7e2732890000000000000000000000000000000000000000000000000000000081526004016129c19190612ccf565b60405180910390fd5b81816040517f177e802f000000000000000000000000000000000000000000000000000000008152600401612a009291906136d9565b60405180910390fd5b505050565b604051806080016040528060608152602001606081526020015f81526020015f81525090565b5f604051905090565b5f80fd5b5f80fd5b5f7fffffffff0000000000000000000000000000000000000000000000000000000082169050919050565b612a7981612a45565b8114612a83575f80fd5b50565b5f81359050612a9481612a70565b92915050565b5f60208284031215612aaf57612aae612a3d565b5b5f612abc84828501612a86565b91505092915050565b5f8115159050919050565b612ad981612ac5565b82525050565b5f602082019050612af25f830184612ad0565b92915050565b5f81519050919050565b5f82825260208201905092915050565b5f5b83811015612b2f578082015181840152602081019050612b14565b5f8484015250505050565b5f601f19601f8301169050919050565b5f612b5482612af8565b612b5e8185612b02565b9350612b6e818560208601612b12565b612b7781612b3a565b840191505092915050565b5f6020820190508181035f830152612b9a8184612b4a565b905092915050565b5f819050919050565b612bb481612ba2565b8114612bbe575f80fd5b50565b5f81359050612bcf81612bab565b92915050565b5f60208284031215612bea57612be9612a3d565b5b5f612bf784828501612bc1565b91505092915050565b5f73ffffffffffffffffffffffffffffffffffffffff82169050919050565b5f612c2982612c00565b9050919050565b612c3981612c1f565b82525050565b5f602082019050612c525f830184612c30565b92915050565b612c6181612c1f565b8114612c6b575f80fd5b50565b5f81359050612c7c81612c58565b92915050565b5f8060408385031215612c9857612c97612a3d565b5b5f612ca585828601612c6e565b9250506020612cb685828601612bc1565b9150509250929050565b612cc981612ba2565b82525050565b5f602082019050612ce25f830184612cc0565b92915050565b5f805f60608486031215612cff57612cfe612a3d565b5b5f612d0c86828701612c6e565b9350506020612d1d86828701612c6e565b9250506040612d2e86828701612bc1565b9150509250925092565b5f82825260208201905092915050565b5f612d5282612af8565b612d5c8185612d38565b9350612d6c818560208601612b12565b612d7581612b3a565b840191505092915050565b612d8981612ba2565b82525050565b5f608083015f8301518482035f860152612da98282612d48565b91505060208301518482036020860152612dc38282612d48565b9150506040830151612dd86040860182612d80565b506060830151612deb6060860182612d80565b508091505092915050565b5f6020820190508181035f830152612e0e8184612d8f565b905092915050565b5f80fd5b5f80fd5b7f4e487b71000000000000000000000000000000000000000000000000000000005f52604160045260245ffd5b612e5482612b3a565b810181811067ffffffffffffffff82111715612e7357612e72612e1e565b5b80604052505050565b5f612e85612a34565b9050612e918282612e4b565b919050565b5f67ffffffffffffffff821115612eb057612eaf612e1e565b5b612eb982612b3a565b9050602081019050919050565b828183375f83830152505050565b5f612ee6612ee184612e96565b612e7c565b905082815260208101848484011115612f0257612f01612e1a565b5b612f0d848285612ec6565b509392505050565b5f82601f830112612f2957612f28612e16565b5b8135612f39848260208601612ed4565b91505092915050565b5f805f805f60a08688031215612f5b57612f5a612a3d565b5b5f612f6888828901612c6e565b955050602086013567ffffffffffffffff811115612f8957612f88612a41565b5b612f9588828901612f15565b945050604086013567ffffffffffffffff811115612fb657612fb5612a41565b5b612fc288828901612f15565b9350506060612fd388828901612bc1565b9250506080612fe488828901612bc1565b9150509295509295909350565b5f805f6060848603121561300857613007612a3d565b5b5f61301586828701612bc1565b935050602061302686828701612c6e565b925050604061303786828701612bc1565b9150509250925092565b5f819050919050565b5f61306461305f61305a84612c00565b613041565b612c00565b9050919050565b5f6130758261304a565b9050919050565b5f6130868261306b565b9050919050565b6130968161307c565b82525050565b5f6020820190506130af5f83018461308d565b92915050565b5f602082840312156130ca576130c9612a3d565b5b5f6130d784828501612c6e565b91505092915050565b6130e981612ac5565b81146130f3575f80fd5b50565b5f81359050613104816130e0565b92915050565b5f80604083850312156131205761311f612a3d565b5b5f61312d85828601612c6e565b925050602061313e858286016130f6565b9150509250929050565b5f67ffffffffffffffff82111561316257613161612e1e565b5b61316b82612b3a565b9050602081019050919050565b5f61318a61318584613148565b612e7c565b9050828152602081018484840111156131a6576131a5612e1a565b5b6131b1848285612ec6565b509392505050565b5f82601f8301126131cd576131cc612e16565b5b81356131dd848260208601613178565b91505092915050565b5f805f80608085870312156131fe576131fd612a3d565b5b5f61320b87828801612c6e565b945050602061321c87828801612c6e565b935050604061322d87828801612bc1565b925050606085013567ffffffffffffffff81111561324e5761324d612a41565b5b61325a878288016131b9565b91505092959194509250565b5f806040838503121561327c5761327b612a3d565b5b5f61328985828601612bc1565b925050602061329a85828601612bc1565b9150509250929050565b5f80604083850312156132ba576132b9612a3d565b5b5f6132c785828601612c6e565b92505060206132d885828601612c6e565b9150509250929050565b7f4e487b71000000000000000000000000000000000000000000000000000000005f52602260045260245ffd5b5f600282049050600182168061332657607f821691505b602082108103613339576133386132e2565b5b50919050565b5f6060820190506133525f830186612c30565b61335f6020830185612cc0565b61336c6040830184612c30565b949350505050565b7f4552433732314d657461646174613a20517565727920666f72206e6f6e6578695f8201527f7374656e7420746f6b656e000000000000000000000000000000000000000000602082015250565b5f6133ce602b83612b02565b91506133d982613374565b604082019050919050565b5f6020820190508181035f8301526133fb816133c2565b9050919050565b7f4e487b71000000000000000000000000000000000000000000000000000000005f52601160045260245ffd5b5f61343982612ba2565b91507fffffffffffffffffffffffffffffffffffffffffffffffffffffffffffffffff820361346b5761346a613402565b5b600182019050919050565b5f819050815f5260205f209050919050565b5f6020601f8301049050919050565b5f82821b905092915050565b5f600883026134d27fffffffffffffffffffffffffffffffffffffffffffffffffffffffffffffffff82613497565b6134dc8683613497565b95508019841693508086168417925050509392505050565b5f61350e61350961350484612ba2565b613041565b612ba2565b9050919050565b5f819050919050565b613527836134f4565b61353b61353382613515565b8484546134a3565b825550505050565b5f90565b61354f613543565b61355a81848461351e565b505050565b5b8181101561357d576135725f82613547565b600181019050613560565b5050565b601f8211156135c25761359381613476565b61359c84613488565b810160208510156135ab578190505b6135bf6135b785613488565b83018261355f565b50505b505050565b5f82821c905092915050565b5f6135e25f19846008026135c7565b1980831691505092915050565b5f6135fa83836135d3565b9150826002028217905092915050565b61361382612af8565b67ffffffffffffffff81111561362c5761362b612e1e565b5b613636825461330f565b613641828285613581565b5f60209050601f831160018114613672575f8415613660578287015190505b61366a85826135ef565b8655506136d1565b601f19841661368086613476565b5f5b828110156136a757848901518255600182019150602085019450602081019050613682565b868310156136c457848901516136c0601f8916826135d3565b8355505b6001600288020188555050505b505050505050565b5f6040820190506136ec5f830185612c30565b6136f96020830184612cc0565b9392505050565b7f4552433732313a207472616e736665722063616c6c6572206973206e6f74206f5f8201527f776e6572206e6f7220617070726f766564000000000000000000000000000000602082015250565b5f61375a603183612b02565b915061376582613700565b604082019050919050565b5f6020820190508181035f8301526137878161374e565b9050919050565b5f61379882612ba2565b91506137a383612ba2565b92508282039050818111156137bb576137ba613402565b5b92915050565b7f526573616c652070726f6869626974656420636c6f736520746f20666c6967685f8201527f742074696d650000000000000000000000000000000000000000000000000000602082015250565b5f61381b602683612b02565b9150613826826137c1565b604082019050919050565b5f6020820190508181035f8301526138488161380f565b9050919050565b5f61385982612ba2565b915061386483612ba2565b925082820261387281612ba2565b9150828204841483151761388957613888613402565b5b5092915050565b7f4e487b71000000000000000000000000000000000000000000000000000000005f52601260045260245ffd5b5f6138c782612ba2565b91506138d283612ba2565b9250826138e2576138e1613890565b5b828204905092915050565b5f6060820190506139005f830186612c30565b61390d6020830185612c30565b61391a6040830184612cc0565b949350505050565b5f81519050613930816130e0565b92915050565b5f6020828403121561394b5761394a612a3d565b5b5f61395884828501613922565b91505092915050565b7f4e487b71000000000000000000000000000000000000000000000000000000005f52603260045260245ffd5b5f81905092915050565b5f6139a282612af8565b6139ac818561398e565b93506139bc818560208601612b12565b80840191505092915050565b5f6139d38285613998565b91506139df8284613998565b91508190509392505050565b7f4552433732313a206275726e2063616c6c6572206973206e6f74206f776e65725f8201527f206e6f7220617070726f76656400000000000000000000000000000000000000602082015250565b5f613a45602d83612b02565b9150613a50826139eb565b604082019050919050565b5f6020820190508181035f830152613a7281613a39565b9050919050565b7f5469636b65742073616c65732061726520636c6f7365640000000000000000005f82015250565b5f613aad601783612b02565b9150613ab882613a79565b602082019050919050565b5f6020820190508181035f830152613ada81613aa1565b9050919050565b5f81519050919050565b5f82825260208201905092915050565b5f613b0582613ae1565b613b0f8185613aeb565b9350613b1f818560208601612b12565b613b2881612b3a565b840191505092915050565b5f608082019050613b465f830187612c30565b613b536020830186612c30565b613b606040830185612cc0565b8181036060830152613b728184613afb565b905095945050505050565b5f81519050613b8b81612a70565b92915050565b5f60208284031215613ba657613ba5612a3d565b5b5f613bb384828501613b7d565b91505092915050565b7f4e487b71000000000000000000000000000000000000000000000000000000005f52603160045260245ffdfea2646970667358221220003d3ed45b5f6f37dc86b2d8fac47912b860ee673cdca5169ac2c1ff1c79857f64736f6c63430008140033",
  "immutableReferences": {},
  "source": "// SPDX-License-Identifier: MIT\n// Compatible with OpenZeppelin Contracts ^5.0.0\npragma solidity ^0.8.20;\n\nimport \"@openzeppelin/contracts/token/ERC721/ERC721.sol\";\nimport \"@openzeppelin/contracts/token/ERC721/extensions/ERC721Enumerable.sol\";\nimport \"@openzeppelin/contracts/token/ERC721/extensions/ERC721Pausable.sol\";\nimport \"@openzeppelin/contracts/access/Ownable.sol\";\nimport \"@openzeppelin/contracts/token/ERC20/IERC20.sol\";\n\ncontract TraveldqToken is ERC721, ERC721Enumerable, ERC721Pausable, Ownable {\n    uint256 private _nextTokenId;\n\n    IERC20 public usdc; // USDC token interface\n\n    uint256 public airlineFeePercentage = 5;\n    uint256 public traveldqFeePercentage = 5;\n\n    // Metadata structure for each ticket\n    struct TicketMetadata {\n        string airlineCode;\n        string pnr;\n        uint256 travelDate;\n        uint256 flightTime;\n    }\n\n    mapping(uint256 => TicketMetadata) private _ticketDetails;\n\n    constructor(address initialOwner, address usdcAddress)\n        ERC721(\"TraveldqToken\", \"TDT\")\n        Ownable(initialOwner)\n    {\n        transferOwnership(initialOwner);\n        usdc = IERC20(usdcAddress);\n    }\n\n\n    function mintTicket(address to, string memory airlineCode, string memory pnr, uint256 travelDate, uint256 flightTime) public onlyOwner {\n        uint256 tokenId = _nextTokenId++;\n        _ticketDetails[tokenId] = TicketMetadata(airlineCode, pnr, travelDate, flightTime);\n        _safeMint(to, tokenId);\n    }\n\n    function pause() public onlyOwner {\n        _pause();\n    }\n\n    function unpause() public onlyOwner {\n        _unpause();\n    }\n\n    function sellTicket(uint256 tokenId, address buyer, uint256 salePrice) public {\n        require(_isAuthorized(_ownerOf(tokenId), _msgSender(), tokenId), \"ERC721: transfer caller is not owner nor approved\");\n        require(block.timestamp <= _ticketDetails[tokenId].flightTime - 3 hours, \"Resale prohibited close to flight time\");\n\n        uint256 airlineFee = (salePrice * airlineFeePercentage) / 100;\n        uint256 traveldqFee = (salePrice * traveldqFeePercentage) / 100;\n        uint256 sellerRevenue = salePrice - airlineFee - traveldqFee;\n\n        usdc.transferFrom(buyer, owner(), airlineFee);\n        usdc.transferFrom(buyer, _msgSender(), sellerRevenue);\n        usdc.transferFrom(buyer, address(this), traveldqFee);\n\n        _transfer(_msgSender(), buyer, tokenId);\n    }\n\n    function cancelTicket(uint256 tokenId) public {\n        require(_isAuthorized(owner(), _msgSender(), tokenId) , \"ERC721: burn caller is not owner nor approved\");\n        _burn(tokenId);\n    }\n\n    function setDistributionRatios(uint256 newAirlineFeePercentage, uint256 newTraveldqFeePercentage) public onlyOwner {\n        airlineFeePercentage = newAirlineFeePercentage;\n        traveldqFeePercentage = newTraveldqFeePercentage;\n    }\n\n    function getTicketDetails(uint256 tokenId) public view returns (TicketMetadata memory) {\n        require(_ownerOf(tokenId) != address(0), \"ERC721Metadata: Query for nonexistent token\");\n        return _ticketDetails[tokenId];\n    }\n\n    // The following functions are overrides required by Solidity.\n    function _update(\n      address to,\n      uint256 tokenId,\n      address auth\n    ) internal override(ERC721, ERC721Enumerable, ERC721Pausable) returns (address) \n    {\n        require(_ticketDetails[tokenId].flightTime - 3 hours > block.timestamp, \"Ticket sales are closed\");\n        super._update(to, tokenId, auth);\n        return auth;\n    }\n\n    function _increaseBalance(address account, uint128 value)\n        internal\n        override(ERC721, ERC721Enumerable)\n    {\n        super._increaseBalance(account, value);\n    }\n\n    function supportsInterface(bytes4 interfaceId)\n        public\n        view\n        override(ERC721, ERC721Enumerable)\n        returns (bool)\n    {\n        return super.supportsInterface(interfaceId);\n    }\n}\n",
  "sourcePath": "/Users/atpuroh/Downloads/Workspace/traveldq-contract/contracts/TraveldqToken.sol",
  "compiler": {
    "name": "solc",
    "version": "0.8.20+commit.a1b79de6.Emscripten.clang"
  },
  "schemaVersion": "3.4.16",
  "updatedAt": "2024-03-18T03:42:22.443Z",
  "devdoc": {
    "errors": {
      "ERC721EnumerableForbiddenBatchMint()": [
        {
          "details": "Batch mint is not allowed."
        }
      ],
      "ERC721IncorrectOwner(address,uint256,address)": [
        {
          "details": "Indicates an error related to the ownership over a particular token. Used in transfers.",
          "params": {
            "owner": "Address of the current owner of a token.",
            "sender": "Address whose tokens are being transferred.",
            "tokenId": "Identifier number of a token."
          }
        }
      ],
      "ERC721InsufficientApproval(address,uint256)": [
        {
          "details": "Indicates a failure with the `operator`s approval. Used in transfers.",
          "params": {
            "operator": "Address that may be allowed to operate on tokens without being their owner.",
            "tokenId": "Identifier number of a token."
          }
        }
      ],
      "ERC721InvalidApprover(address)": [
        {
          "details": "Indicates a failure with the `approver` of a token to be approved. Used in approvals.",
          "params": {
            "approver": "Address initiating an approval operation."
          }
        }
      ],
      "ERC721InvalidOperator(address)": [
        {
          "details": "Indicates a failure with the `operator` to be approved. Used in approvals.",
          "params": {
            "operator": "Address that may be allowed to operate on tokens without being their owner."
          }
        }
      ],
      "ERC721InvalidOwner(address)": [
        {
          "details": "Indicates that an address can't be an owner. For example, `address(0)` is a forbidden owner in EIP-20. Used in balance queries.",
          "params": {
            "owner": "Address of the current owner of a token."
          }
        }
      ],
      "ERC721InvalidReceiver(address)": [
        {
          "details": "Indicates a failure with the token `receiver`. Used in transfers.",
          "params": {
            "receiver": "Address to which tokens are being transferred."
          }
        }
      ],
      "ERC721InvalidSender(address)": [
        {
          "details": "Indicates a failure with the token `sender`. Used in transfers.",
          "params": {
            "sender": "Address whose tokens are being transferred."
          }
        }
      ],
      "ERC721NonexistentToken(uint256)": [
        {
          "details": "Indicates a `tokenId` whose `owner` is the zero address.",
          "params": {
            "tokenId": "Identifier number of a token."
          }
        }
      ],
      "ERC721OutOfBoundsIndex(address,uint256)": [
        {
          "details": "An `owner`'s token query was out of bounds for `index`. NOTE: The owner being `address(0)` indicates a global out of bounds index."
        }
      ],
      "EnforcedPause()": [
        {
          "details": "The operation failed because the contract is paused."
        }
      ],
      "ExpectedPause()": [
        {
          "details": "The operation failed because the contract is not paused."
        }
      ],
      "OwnableInvalidOwner(address)": [
        {
          "details": "The owner is not a valid owner account. (eg. `address(0)`)"
        }
      ],
      "OwnableUnauthorizedAccount(address)": [
        {
          "details": "The caller account is not authorized to perform an operation."
        }
      ]
    },
    "events": {
      "Approval(address,address,uint256)": {
        "details": "Emitted when `owner` enables `approved` to manage the `tokenId` token."
      },
      "ApprovalForAll(address,address,bool)": {
        "details": "Emitted when `owner` enables or disables (`approved`) `operator` to manage all of its assets."
      },
      "Paused(address)": {
        "details": "Emitted when the pause is triggered by `account`."
      },
      "Transfer(address,address,uint256)": {
        "details": "Emitted when `tokenId` token is transferred from `from` to `to`."
      },
      "Unpaused(address)": {
        "details": "Emitted when the pause is lifted by `account`."
      }
    },
    "kind": "dev",
    "methods": {
      "approve(address,uint256)": {
        "details": "See {IERC721-approve}."
      },
      "balanceOf(address)": {
        "details": "See {IERC721-balanceOf}."
      },
      "getApproved(uint256)": {
        "details": "See {IERC721-getApproved}."
      },
      "isApprovedForAll(address,address)": {
        "details": "See {IERC721-isApprovedForAll}."
      },
      "name()": {
        "details": "See {IERC721Metadata-name}."
      },
      "owner()": {
        "details": "Returns the address of the current owner."
      },
      "ownerOf(uint256)": {
        "details": "See {IERC721-ownerOf}."
      },
      "paused()": {
        "details": "Returns true if the contract is paused, and false otherwise."
      },
      "renounceOwnership()": {
        "details": "Leaves the contract without owner. It will not be possible to call `onlyOwner` functions. Can only be called by the current owner. NOTE: Renouncing ownership will leave the contract without an owner, thereby disabling any functionality that is only available to the owner."
      },
      "safeTransferFrom(address,address,uint256)": {
        "details": "See {IERC721-safeTransferFrom}."
      },
      "safeTransferFrom(address,address,uint256,bytes)": {
        "details": "See {IERC721-safeTransferFrom}."
      },
      "setApprovalForAll(address,bool)": {
        "details": "See {IERC721-setApprovalForAll}."
      },
      "symbol()": {
        "details": "See {IERC721Metadata-symbol}."
      },
      "tokenByIndex(uint256)": {
        "details": "See {IERC721Enumerable-tokenByIndex}."
      },
      "tokenOfOwnerByIndex(address,uint256)": {
        "details": "See {IERC721Enumerable-tokenOfOwnerByIndex}."
      },
      "tokenURI(uint256)": {
        "details": "See {IERC721Metadata-tokenURI}."
      },
      "totalSupply()": {
        "details": "See {IERC721Enumerable-totalSupply}."
      },
      "transferFrom(address,address,uint256)": {
        "details": "See {IERC721-transferFrom}."
      },
      "transferOwnership(address)": {
        "details": "Transfers ownership of the contract to a new account (`newOwner`). Can only be called by the current owner."
      }
    },
    "version": 1
  },
  "userdoc": {
    "kind": "user",
    "methods": {},
    "version": 1
  }
}