{
  "contractName": "TraveldqToken",
  "abi": [
    {
      "inputs": [
        {
          "internalType": "address",
          "name": "initialOwner",
          "type": "address"
        },
        {
          "internalType": "address",
          "name": "usdcAddress",
          "type": "address"
        }
      ],
      "stateMutability": "nonpayable",
      "type": "constructor"
    },
    {
      "inputs": [],
      "name": "ERC721EnumerableForbiddenBatchMint",
      "type": "error"
    },
    {
      "inputs": [
        {
          "internalType": "address",
          "name": "sender",
          "type": "address"
        },
        {
          "internalType": "uint256",
          "name": "tokenId",
          "type": "uint256"
        },
        {
          "internalType": "address",
          "name": "owner",
          "type": "address"
        }
      ],
      "name": "ERC721IncorrectOwner",
      "type": "error"
    },
    {
      "inputs": [
        {
          "internalType": "address",
          "name": "operator",
          "type": "address"
        },
        {
          "internalType": "uint256",
          "name": "tokenId",
          "type": "uint256"
        }
      ],
      "name": "ERC721InsufficientApproval",
      "type": "error"
    },
    {
      "inputs": [
        {
          "internalType": "address",
          "name": "approver",
          "type": "address"
        }
      ],
      "name": "ERC721InvalidApprover",
      "type": "error"
    },
    {
      "inputs": [
        {
          "internalType": "address",
          "name": "operator",
          "type": "address"
        }
      ],
      "name": "ERC721InvalidOperator",
      "type": "error"
    },
    {
      "inputs": [
        {
          "internalType": "address",
          "name": "owner",
          "type": "address"
        }
      ],
      "name": "ERC721InvalidOwner",
      "type": "error"
    },
    {
      "inputs": [
        {
          "internalType": "address",
          "name": "receiver",
          "type": "address"
        }
      ],
      "name": "ERC721InvalidReceiver",
      "type": "error"
    },
    {
      "inputs": [
        {
          "internalType": "address",
          "name": "sender",
          "type": "address"
        }
      ],
      "name": "ERC721InvalidSender",
      "type": "error"
    },
    {
      "inputs": [
        {
          "internalType": "uint256",
          "name": "tokenId",
          "type": "uint256"
        }
      ],
      "name": "ERC721NonexistentToken",
      "type": "error"
    },
    {
      "inputs": [
        {
          "internalType": "address",
          "name": "owner",
          "type": "address"
        },
        {
          "internalType": "uint256",
          "name": "index",
          "type": "uint256"
        }
      ],
      "name": "ERC721OutOfBoundsIndex",
      "type": "error"
    },
    {
      "inputs": [],
      "name": "EnforcedPause",
      "type": "error"
    },
    {
      "inputs": [],
      "name": "ExpectedPause",
      "type": "error"
    },
    {
      "inputs": [
        {
          "internalType": "address",
          "name": "owner",
          "type": "address"
        }
      ],
      "name": "OwnableInvalidOwner",
      "type": "error"
    },
    {
      "inputs": [
        {
          "internalType": "address",
          "name": "account",
          "type": "address"
        }
      ],
      "name": "OwnableUnauthorizedAccount",
      "type": "error"
    },
    {
      "anonymous": false,
      "inputs": [
        {
          "indexed": true,
          "internalType": "address",
          "name": "owner",
          "type": "address"
        },
        {
          "indexed": true,
          "internalType": "address",
          "name": "approved",
          "type": "address"
        },
        {
          "indexed": true,
          "internalType": "uint256",
          "name": "tokenId",
          "type": "uint256"
        }
      ],
      "name": "Approval",
      "type": "event"
    },
    {
      "anonymous": false,
      "inputs": [
        {
          "indexed": true,
          "internalType": "address",
          "name": "owner",
          "type": "address"
        },
        {
          "indexed": true,
          "internalType": "address",
          "name": "operator",
          "type": "address"
        },
        {
          "indexed": false,
          "internalType": "bool",
          "name": "approved",
          "type": "bool"
        }
      ],
      "name": "ApprovalForAll",
      "type": "event"
    },
    {
      "anonymous": false,
      "inputs": [
        {
          "indexed": true,
          "internalType": "address",
          "name": "previousOwner",
          "type": "address"
        },
        {
          "indexed": true,
          "internalType": "address",
          "name": "newOwner",
          "type": "address"
        }
      ],
      "name": "OwnershipTransferred",
      "type": "event"
    },
    {
      "anonymous": false,
      "inputs": [
        {
          "indexed": false,
          "internalType": "address",
          "name": "account",
          "type": "address"
        }
      ],
      "name": "Paused",
      "type": "event"
    },
    {
      "anonymous": false,
      "inputs": [
        {
          "indexed": true,
          "internalType": "address",
          "name": "from",
          "type": "address"
        },
        {
          "indexed": true,
          "internalType": "address",
          "name": "to",
          "type": "address"
        },
        {
          "indexed": true,
          "internalType": "uint256",
          "name": "tokenId",
          "type": "uint256"
        }
      ],
      "name": "Transfer",
      "type": "event"
    },
    {
      "anonymous": false,
      "inputs": [
        {
          "indexed": false,
          "internalType": "address",
          "name": "account",
          "type": "address"
        }
      ],
      "name": "Unpaused",
      "type": "event"
    },
    {
      "inputs": [],
      "name": "airlineFeePercentage",
      "outputs": [
        {
          "internalType": "uint256",
          "name": "",
          "type": "uint256"
        }
      ],
      "stateMutability": "view",
      "type": "function"
    },
    {
      "inputs": [
        {
          "internalType": "address",
          "name": "to",
          "type": "address"
        },
        {
          "internalType": "uint256",
          "name": "tokenId",
          "type": "uint256"
        }
      ],
      "name": "approve",
      "outputs": [],
      "stateMutability": "nonpayable",
      "type": "function"
    },
    {
      "inputs": [
        {
          "internalType": "address",
          "name": "owner",
          "type": "address"
        }
      ],
      "name": "balanceOf",
      "outputs": [
        {
          "internalType": "uint256",
          "name": "",
          "type": "uint256"
        }
      ],
      "stateMutability": "view",
      "type": "function"
    },
    {
      "inputs": [
        {
          "internalType": "uint256",
          "name": "tokenId",
          "type": "uint256"
        }
      ],
      "name": "getApproved",
      "outputs": [
        {
          "internalType": "address",
          "name": "",
          "type": "address"
        }
      ],
      "stateMutability": "view",
      "type": "function"
    },
    {
      "inputs": [
        {
          "internalType": "address",
          "name": "owner",
          "type": "address"
        },
        {
          "internalType": "address",
          "name": "operator",
          "type": "address"
        }
      ],
      "name": "isApprovedForAll",
      "outputs": [
        {
          "internalType": "bool",
          "name": "",
          "type": "bool"
        }
      ],
      "stateMutability": "view",
      "type": "function"
    },
    {
      "inputs": [],
      "name": "name",
      "outputs": [
        {
          "internalType": "string",
          "name": "",
          "type": "string"
        }
      ],
      "stateMutability": "view",
      "type": "function"
    },
    {
      "inputs": [],
      "name": "owner",
      "outputs": [
        {
          "internalType": "address",
          "name": "",
          "type": "address"
        }
      ],
      "stateMutability": "view",
      "type": "function"
    },
    {
      "inputs": [
        {
          "internalType": "uint256",
          "name": "tokenId",
          "type": "uint256"
        }
      ],
      "name": "ownerOf",
      "outputs": [
        {
          "internalType": "address",
          "name": "",
          "type": "address"
        }
      ],
      "stateMutability": "view",
      "type": "function"
    },
    {
      "inputs": [],
      "name": "paused",
      "outputs": [
        {
          "internalType": "bool",
          "name": "",
          "type": "bool"
        }
      ],
      "stateMutability": "view",
      "type": "function"
    },
    {
      "inputs": [],
      "name": "renounceOwnership",
      "outputs": [],
      "stateMutability": "nonpayable",
      "type": "function"
    },
    {
      "inputs": [
        {
          "internalType": "address",
          "name": "from",
          "type": "address"
        },
        {
          "internalType": "address",
          "name": "to",
          "type": "address"
        },
        {
          "internalType": "uint256",
          "name": "tokenId",
          "type": "uint256"
        }
      ],
      "name": "safeTransferFrom",
      "outputs": [],
      "stateMutability": "nonpayable",
      "type": "function"
    },
    {
      "inputs": [
        {
          "internalType": "address",
          "name": "from",
          "type": "address"
        },
        {
          "internalType": "address",
          "name": "to",
          "type": "address"
        },
        {
          "internalType": "uint256",
          "name": "tokenId",
          "type": "uint256"
        },
        {
          "internalType": "bytes",
          "name": "data",
          "type": "bytes"
        }
      ],
      "name": "safeTransferFrom",
      "outputs": [],
      "stateMutability": "nonpayable",
      "type": "function"
    },
    {
      "inputs": [
        {
          "internalType": "address",
          "name": "operator",
          "type": "address"
        },
        {
          "internalType": "bool",
          "name": "approved",
          "type": "bool"
        }
      ],
      "name": "setApprovalForAll",
      "outputs": [],
      "stateMutability": "nonpayable",
      "type": "function"
    },
    {
      "inputs": [],
      "name": "symbol",
      "outputs": [
        {
          "internalType": "string",
          "name": "",
          "type": "string"
        }
      ],
      "stateMutability": "view",
      "type": "function"
    },
    {
      "inputs": [
        {
          "internalType": "uint256",
          "name": "index",
          "type": "uint256"
        }
      ],
      "name": "tokenByIndex",
      "outputs": [
        {
          "internalType": "uint256",
          "name": "",
          "type": "uint256"
        }
      ],
      "stateMutability": "view",
      "type": "function"
    },
    {
      "inputs": [
        {
          "internalType": "address",
          "name": "owner",
          "type": "address"
        },
        {
          "internalType": "uint256",
          "name": "index",
          "type": "uint256"
        }
      ],
      "name": "tokenOfOwnerByIndex",
      "outputs": [
        {
          "internalType": "uint256",
          "name": "",
          "type": "uint256"
        }
      ],
      "stateMutability": "view",
      "type": "function"
    },
    {
      "inputs": [
        {
          "internalType": "uint256",
          "name": "tokenId",
          "type": "uint256"
        }
      ],
      "name": "tokenURI",
      "outputs": [
        {
          "internalType": "string",
          "name": "",
          "type": "string"
        }
      ],
      "stateMutability": "view",
      "type": "function"
    },
    {
      "inputs": [],
      "name": "totalSupply",
      "outputs": [
        {
          "internalType": "uint256",
          "name": "",
          "type": "uint256"
        }
      ],
      "stateMutability": "view",
      "type": "function"
    },
    {
      "inputs": [
        {
          "internalType": "address",
          "name": "from",
          "type": "address"
        },
        {
          "internalType": "address",
          "name": "to",
          "type": "address"
        },
        {
          "internalType": "uint256",
          "name": "tokenId",
          "type": "uint256"
        }
      ],
      "name": "transferFrom",
      "outputs": [],
      "stateMutability": "nonpayable",
      "type": "function"
    },
    {
      "inputs": [
        {
          "internalType": "address",
          "name": "newOwner",
          "type": "address"
        }
      ],
      "name": "transferOwnership",
      "outputs": [],
      "stateMutability": "nonpayable",
      "type": "function"
    },
    {
      "inputs": [],
      "name": "traveldqFeePercentage",
      "outputs": [
        {
          "internalType": "uint256",
          "name": "",
          "type": "uint256"
        }
      ],
      "stateMutability": "view",
      "type": "function"
    },
    {
      "inputs": [],
      "name": "usdc",
      "outputs": [
        {
          "internalType": "contract IERC20",
          "name": "",
          "type": "address"
        }
      ],
      "stateMutability": "view",
      "type": "function"
    },
    {
      "inputs": [
        {
          "internalType": "address",
          "name": "to",
          "type": "address"
        },
        {
          "internalType": "string",
          "name": "airlineCode",
          "type": "string"
        },
        {
          "internalType": "string",
          "name": "pnr",
          "type": "string"
        },
        {
          "internalType": "uint256",
          "name": "travelDate",
          "type": "uint256"
        },
        {
          "internalType": "uint256",
          "name": "flightTime",
          "type": "uint256"
        },
        {
          "internalType": "string",
          "name": "tokenURI",
          "type": "string"
        }
      ],
      "name": "mintTicket",
      "outputs": [],
      "stateMutability": "nonpayable",
      "type": "function"
    },
    {
      "inputs": [],
      "name": "pause",
      "outputs": [],
      "stateMutability": "nonpayable",
      "type": "function"
    },
    {
      "inputs": [],
      "name": "unpause",
      "outputs": [],
      "stateMutability": "nonpayable",
      "type": "function"
    },
    {
      "inputs": [
        {
          "internalType": "uint256",
          "name": "tokenId",
          "type": "uint256"
        },
        {
          "internalType": "address",
          "name": "buyer",
          "type": "address"
        },
        {
          "internalType": "uint256",
          "name": "salePrice",
          "type": "uint256"
        }
      ],
      "name": "sellTicket",
      "outputs": [],
      "stateMutability": "nonpayable",
      "type": "function"
    },
    {
      "inputs": [
        {
          "internalType": "uint256",
          "name": "tokenId",
          "type": "uint256"
        }
      ],
      "name": "cancelTicket",
      "outputs": [],
      "stateMutability": "nonpayable",
      "type": "function"
    },
    {
      "inputs": [
        {
          "internalType": "uint256",
          "name": "newAirlineFeePercentage",
          "type": "uint256"
        },
        {
          "internalType": "uint256",
          "name": "newTraveldqFeePercentage",
          "type": "uint256"
        }
      ],
      "name": "setDistributionRatios",
      "outputs": [],
      "stateMutability": "nonpayable",
      "type": "function"
    },
    {
      "inputs": [
        {
          "internalType": "uint256",
          "name": "tokenId",
          "type": "uint256"
        }
      ],
      "name": "getTicketDetails",
      "outputs": [
        {
          "components": [
            {
              "internalType": "string",
              "name": "airlineCode",
              "type": "string"
            },
            {
              "internalType": "string",
              "name": "pnr",
              "type": "string"
            },
            {
              "internalType": "uint256",
              "name": "travelDate",
              "type": "uint256"
            },
            {
              "internalType": "uint256",
              "name": "flightTime",
              "type": "uint256"
            }
          ],
          "internalType": "struct TraveldqToken.TicketMetadata",
          "name": "",
          "type": "tuple"
        }
      ],
      "stateMutability": "view",
      "type": "function"
    },
    {
      "inputs": [
        {
          "internalType": "bytes4",
          "name": "interfaceId",
          "type": "bytes4"
        }
      ],
      "name": "supportsInterface",
      "outputs": [
        {
          "internalType": "bool",
          "name": "",
          "type": "bool"
        }
      ],
      "stateMutability": "view",
      "type": "function"
    }
  ],
  "bytecode": "0x60806040526005600d556005600e553480156200001a575f80fd5b506040516200446d3803806200446d83398181016040528101906200004091906200045c565b816040518060400160405280600d81526020017f54726176656c6471546f6b656e000000000000000000000000000000000000008152506040518060400160405280600381526020017f5444540000000000000000000000000000000000000000000000000000000000815250815f9081620000bd919062000705565b508060019081620000cf919062000705565b5050505f600a5f6101000a81548160ff0219169083151502179055505f73ffffffffffffffffffffffffffffffffffffffff168173ffffffffffffffffffffffffffffffffffffffff16036200015e575f6040517f1e4fbdf7000000000000000000000000000000000000000000000000000000008152600401620001559190620007fa565b60405180910390fd5b6200016f81620001c960201b60201c565b5062000181826200028e60201b60201c565b80600c5f6101000a81548173ffffffffffffffffffffffffffffffffffffffff021916908373ffffffffffffffffffffffffffffffffffffffff160217905550505062000815565b5f600a60019054906101000a900473ffffffffffffffffffffffffffffffffffffffff16905081600a60016101000a81548173ffffffffffffffffffffffffffffffffffffffff021916908373ffffffffffffffffffffffffffffffffffffffff1602179055508173ffffffffffffffffffffffffffffffffffffffff168173ffffffffffffffffffffffffffffffffffffffff167f8be0079c531659141344cd1fd0a4f28419497f9722a3daafe3b4186f6b6457e060405160405180910390a35050565b6200029e6200032560201b60201c565b5f73ffffffffffffffffffffffffffffffffffffffff168173ffffffffffffffffffffffffffffffffffffffff160362000311575f6040517f1e4fbdf7000000000000000000000000000000000000000000000000000000008152600401620003089190620007fa565b60405180910390fd5b6200032281620001c960201b60201c565b50565b62000335620003c760201b60201c565b73ffffffffffffffffffffffffffffffffffffffff166200035b620003ce60201b60201c565b73ffffffffffffffffffffffffffffffffffffffff1614620003c55762000387620003c760201b60201c565b6040517f118cdaa7000000000000000000000000000000000000000000000000000000008152600401620003bc9190620007fa565b60405180910390fd5b565b5f33905090565b5f600a60019054906101000a900473ffffffffffffffffffffffffffffffffffffffff16905090565b5f80fd5b5f73ffffffffffffffffffffffffffffffffffffffff82169050919050565b5f6200042682620003fb565b9050919050565b62000438816200041a565b811462000443575f80fd5b50565b5f8151905062000456816200042d565b92915050565b5f8060408385031215620004755762000474620003f7565b5b5f620004848582860162000446565b9250506020620004978582860162000446565b9150509250929050565b5f81519050919050565b7f4e487b71000000000000000000000000000000000000000000000000000000005f52604160045260245ffd5b7f4e487b71000000000000000000000000000000000000000000000000000000005f52602260045260245ffd5b5f60028204905060018216806200051d57607f821691505b602082108103620005335762000532620004d8565b5b50919050565b5f819050815f5260205f209050919050565b5f6020601f8301049050919050565b5f82821b905092915050565b5f60088302620005977fffffffffffffffffffffffffffffffffffffffffffffffffffffffffffffffff826200055a565b620005a386836200055a565b95508019841693508086168417925050509392505050565b5f819050919050565b5f819050919050565b5f620005ed620005e7620005e184620005bb565b620005c4565b620005bb565b9050919050565b5f819050919050565b6200060883620005cd565b620006206200061782620005f4565b84845462000566565b825550505050565b5f90565b6200063662000628565b62000643818484620005fd565b505050565b5b818110156200066a576200065e5f826200062c565b60018101905062000649565b5050565b601f821115620006b957620006838162000539565b6200068e846200054b565b810160208510156200069e578190505b620006b6620006ad856200054b565b83018262000648565b50505b505050565b5f82821c905092915050565b5f620006db5f1984600802620006be565b1980831691505092915050565b5f620006f58383620006ca565b9150826002028217905092915050565b6200071082620004a1565b67ffffffffffffffff8111156200072c576200072b620004ab565b5b62000738825462000505565b620007458282856200066e565b5f60209050601f8311600181146200077b575f841562000766578287015190505b620007728582620006e8565b865550620007e1565b601f1984166200078b8662000539565b5f5b82811015620007b4578489015182556001820191506020850194506020810190506200078d565b86831015620007d45784890151620007d0601f891682620006ca565b8355505b6001600288020188555050505b505050505050565b620007f4816200041a565b82525050565b5f6020820190506200080f5f830184620007e9565b92915050565b613c4a80620008235f395ff3fe608060405234801561000f575f80fd5b50600436106101d8575f3560e01c80636352211e11610102578063b247a9c2116100a0578063c87b56dd1161006f578063c87b56dd1461051a578063e985e9c51461054a578063ee355b1f1461057a578063f2fde38b14610596576101d8565b8063b247a9c2146104a6578063b88d4fde146104c4578063b92ab477146104e0578063b9e610c9146104fc576101d8565b80638456cb59116100dc5780638456cb59146104445780638da5cb5b1461044e57806395d89b411461046c578063a22cb4651461048a576101d8565b80636352211e146103da57806370a082311461040a578063715018a61461043a576101d8565b806324c141601161017a5780633f4ba83a116101495780633f4ba83a1461036657806342842e0e146103705780634f6ccce71461038c5780635c975abb146103bc576101d8565b806324c14160146102cc5780632f745c59146102fc5780633ae05b301461032c5780633e413bee14610348576101d8565b8063081812fc116101b6578063081812fc14610246578063095ea7b31461027657806318160ddd1461029257806323b872dd146102b0576101d8565b806301ffc9a7146101dc57806304ac5abb1461020c57806306fdde0314610228575b5f80fd5b6101f660048036038101906101f19190612a97565b6105b2565b6040516102039190612adc565b60405180910390f35b61022660048036038101906102219190612cbe565b6105c3565b005b61023061066a565b60405161023d9190612e15565b60405180910390f35b610260600480360381019061025b9190612e35565b6106f9565b60405161026d9190612e6f565b60405180910390f35b610290600480360381019061028b9190612e88565b610714565b005b61029a61072a565b6040516102a79190612ed5565b60405180910390f35b6102ca60048036038101906102c59190612eee565b610736565b005b6102e660048036038101906102e19190612e35565b610835565b6040516102f39190612ffc565b60405180910390f35b61031660048036038101906103119190612e88565b610a09565b6040516103239190612ed5565b60405180910390f35b6103466004803603810190610341919061301c565b610aad565b005b610350610dc2565b60405161035d91906130c7565b60405180910390f35b61036e610de7565b005b61038a60048036038101906103859190612eee565b610df9565b005b6103a660048036038101906103a19190612e35565b610e18565b6040516103b39190612ed5565b60405180910390f35b6103c4610e8a565b6040516103d19190612adc565b60405180910390f35b6103f460048036038101906103ef9190612e35565b610e9f565b6040516104019190612e6f565b60405180910390f35b610424600480360381019061041f91906130e0565b610eb0565b6040516104319190612ed5565b60405180910390f35b610442610f66565b005b61044c610f79565b005b610456610f8b565b6040516104639190612e6f565b60405180910390f35b610474610fb4565b6040516104819190612e15565b60405180910390f35b6104a4600480360381019061049f9190613135565b611044565b005b6104ae61105a565b6040516104bb9190612ed5565b60405180910390f35b6104de60048036038101906104d99190613211565b611060565b005b6104fa60048036038101906104f59190613291565b61107d565b005b610504611097565b6040516105119190612ed5565b60405180910390f35b610534600480360381019061052f9190612e35565b61109d565b6040516105419190612e15565b60405180910390f35b610564600480360381019061055f91906132cf565b611103565b6040516105719190612adc565b60405180910390f35b610594600480360381019061058f9190612e35565b611191565b005b6105b060048036038101906105ab91906130e0565b6111f5565b005b5f6105bc82611279565b9050919050565b6105cb6112f2565b5f600b5f8154809291906105de9061333a565b919050559050604051806080016040528087815260200186815260200185815260200184815250600f5f8381526020019081526020015f205f820151815f0190816106299190613572565b50602082015181600101908161063f9190613572565b5060408201518160020155606082015181600301559050506106618782611379565b50505050505050565b60605f8054610678906133ae565b80601f01602080910402602001604051908101604052809291908181526020018280546106a4906133ae565b80156106ef5780601f106106c6576101008083540402835291602001916106ef565b820191905f5260205f20905b8154815290600101906020018083116106d257829003601f168201915b5050505050905090565b5f61070382611396565b5061070d8261141c565b9050919050565b6107268282610721611455565b61145c565b5050565b5f600880549050905090565b5f73ffffffffffffffffffffffffffffffffffffffff168273ffffffffffffffffffffffffffffffffffffffff16036107a6575f6040517f64a0ae9200000000000000000000000000000000000000000000000000000000815260040161079d9190612e6f565b60405180910390fd5b5f6107b983836107b4611455565b61146e565b90508373ffffffffffffffffffffffffffffffffffffffff168173ffffffffffffffffffffffffffffffffffffffff161461082f578382826040517f64283d7b00000000000000000000000000000000000000000000000000000000815260040161082693929190613641565b60405180910390fd5b50505050565b61083d612a0b565b5f73ffffffffffffffffffffffffffffffffffffffff1661085d836114e5565b73ffffffffffffffffffffffffffffffffffffffff16036108b3576040517f08c379a00000000000000000000000000000000000000000000000000000000081526004016108aa906136e6565b60405180910390fd5b600f5f8381526020019081526020015f206040518060800160405290815f820180546108de906133ae565b80601f016020809104026020016040519081016040528092919081815260200182805461090a906133ae565b80156109555780601f1061092c57610100808354040283529160200191610955565b820191905f5260205f20905b81548152906001019060200180831161093857829003601f168201915b5050505050815260200160018201805461096e906133ae565b80601f016020809104026020016040519081016040528092919081815260200182805461099a906133ae565b80156109e55780601f106109bc576101008083540402835291602001916109e5565b820191905f5260205f20905b8154815290600101906020018083116109c857829003601f168201915b50505050508152602001600282015481526020016003820154815250509050919050565b5f610a1383610eb0565b8210610a585782826040517fa57d13dc000000000000000000000000000000000000000000000000000000008152600401610a4f929190613704565b60405180910390fd5b60065f8473ffffffffffffffffffffffffffffffffffffffff1673ffffffffffffffffffffffffffffffffffffffff1681526020019081526020015f205f8381526020019081526020015f2054905092915050565b610ac6610ab8610f8b565b610ac0611455565b8561151e565b610b05576040517f08c379a0000000000000000000000000000000000000000000000000000000008152600401610afc9061379b565b60405180910390fd5b612a30600f5f8581526020019081526020015f2060030154610b2791906137b9565b421115610b69576040517f08c379a0000000000000000000000000000000000000000000000000000000008152600401610b609061385c565b60405180910390fd5b5f6064600d5483610b7a919061387a565b610b8491906138e8565b90505f6064600e5484610b97919061387a565b610ba191906138e8565b90505f818385610bb191906137b9565b610bbb91906137b9565b9050600c5f9054906101000a900473ffffffffffffffffffffffffffffffffffffffff1673ffffffffffffffffffffffffffffffffffffffff166323b872dd86610c03610f8b565b866040518463ffffffff1660e01b8152600401610c2293929190613918565b6020604051808303815f875af1158015610c3e573d5f803e3d5ffd5b505050506040513d601f19601f82011682018060405250810190610c629190613961565b50600c5f9054906101000a900473ffffffffffffffffffffffffffffffffffffffff1673ffffffffffffffffffffffffffffffffffffffff166323b872dd86610ca9611455565b846040518463ffffffff1660e01b8152600401610cc893929190613918565b6020604051808303815f875af1158015610ce4573d5f803e3d5ffd5b505050506040513d601f19601f82011682018060405250810190610d089190613961565b50600c5f9054906101000a900473ffffffffffffffffffffffffffffffffffffffff1673ffffffffffffffffffffffffffffffffffffffff166323b872dd8630856040518463ffffffff1660e01b8152600401610d6793929190613918565b6020604051808303815f875af1158015610d83573d5f803e3d5ffd5b505050506040513d601f19601f82011682018060405250810190610da79190613961565b50610dba610db3611455565b86886115de565b505050505050565b600c5f9054906101000a900473ffffffffffffffffffffffffffffffffffffffff1681565b610def6112f2565b610df7611746565b565b610e1383838360405180602001604052805f815250611060565b505050565b5f610e2161072a565b8210610e66575f826040517fa57d13dc000000000000000000000000000000000000000000000000000000008152600401610e5d929190613704565b60405180910390fd5b60088281548110610e7a57610e7961398c565b5b905f5260205f2001549050919050565b5f600a5f9054906101000a900460ff16905090565b5f610ea982611396565b9050919050565b5f8073ffffffffffffffffffffffffffffffffffffffff168273ffffffffffffffffffffffffffffffffffffffff1603610f21575f6040517f89c62b64000000000000000000000000000000000000000000000000000000008152600401610f189190612e6f565b60405180910390fd5b60035f8373ffffffffffffffffffffffffffffffffffffffff1673ffffffffffffffffffffffffffffffffffffffff1681526020019081526020015f20549050919050565b610f6e6112f2565b610f775f6117a7565b565b610f816112f2565b610f8961186c565b565b5f600a60019054906101000a900473ffffffffffffffffffffffffffffffffffffffff16905090565b606060018054610fc3906133ae565b80601f0160208091040260200160405190810160405280929190818152602001828054610fef906133ae565b801561103a5780601f106110115761010080835404028352916020019161103a565b820191905f5260205f20905b81548152906001019060200180831161101d57829003601f168201915b5050505050905090565b61105661104f611455565b83836118ce565b5050565b600d5481565b61106b848484610736565b61107784848484611a37565b50505050565b6110856112f2565b81600d8190555080600e819055505050565b600e5481565b60606110a882611396565b505f6110b2611be9565b90505f8151116110d05760405180602001604052805f8152506110fb565b806110da84611bff565b6040516020016110eb9291906139f3565b6040516020818303038152906040525b915050919050565b5f60055f8473ffffffffffffffffffffffffffffffffffffffff1673ffffffffffffffffffffffffffffffffffffffff1681526020019081526020015f205f8373ffffffffffffffffffffffffffffffffffffffff1673ffffffffffffffffffffffffffffffffffffffff1681526020019081526020015f205f9054906101000a900460ff16905092915050565b6111aa61119c610f8b565b6111a4611455565b8361151e565b6111e9576040517f08c379a00000000000000000000000000000000000000000000000000000000081526004016111e090613a86565b60405180910390fd5b6111f281611cc9565b50565b6111fd6112f2565b5f73ffffffffffffffffffffffffffffffffffffffff168173ffffffffffffffffffffffffffffffffffffffff160361126d575f6040517f1e4fbdf70000000000000000000000000000000000000000000000000000000081526004016112649190612e6f565b60405180910390fd5b611276816117a7565b50565b5f7f780e9d63000000000000000000000000000000000000000000000000000000007bffffffffffffffffffffffffffffffffffffffffffffffffffffffff1916827bffffffffffffffffffffffffffffffffffffffffffffffffffffffff191614806112eb57506112ea82611d4b565b5b9050919050565b6112fa611455565b73ffffffffffffffffffffffffffffffffffffffff16611318610f8b565b73ffffffffffffffffffffffffffffffffffffffff16146113775761133b611455565b6040517f118cdaa700000000000000000000000000000000000000000000000000000000815260040161136e9190612e6f565b60405180910390fd5b565b611392828260405180602001604052805f815250611e2c565b5050565b5f806113a1836114e5565b90505f73ffffffffffffffffffffffffffffffffffffffff168173ffffffffffffffffffffffffffffffffffffffff160361141357826040517f7e27328900000000000000000000000000000000000000000000000000000000815260040161140a9190612ed5565b60405180910390fd5b80915050919050565b5f60045f8381526020019081526020015f205f9054906101000a900473ffffffffffffffffffffffffffffffffffffffff169050919050565b5f33905090565b6114698383836001611e47565b505050565b5f42612a30600f5f8681526020019081526020015f206003015461149291906137b9565b116114d2576040517f08c379a00000000000000000000000000000000000000000000000000000000081526004016114c990613aee565b60405180910390fd5b6114dd848484612006565b509392505050565b5f60025f8381526020019081526020015f205f9054906101000a900473ffffffffffffffffffffffffffffffffffffffff169050919050565b5f8073ffffffffffffffffffffffffffffffffffffffff168373ffffffffffffffffffffffffffffffffffffffff16141580156115d557508273ffffffffffffffffffffffffffffffffffffffff168473ffffffffffffffffffffffffffffffffffffffff16148061159657506115958484611103565b5b806115d457508273ffffffffffffffffffffffffffffffffffffffff166115bc8361141c565b73ffffffffffffffffffffffffffffffffffffffff16145b5b90509392505050565b5f73ffffffffffffffffffffffffffffffffffffffff168273ffffffffffffffffffffffffffffffffffffffff160361164e575f6040517f64a0ae920000000000000000000000000000000000000000000000000000000081526004016116459190612e6f565b60405180910390fd5b5f61165a83835f61146e565b90505f73ffffffffffffffffffffffffffffffffffffffff168173ffffffffffffffffffffffffffffffffffffffff16036116cc57816040517f7e2732890000000000000000000000000000000000000000000000000000000081526004016116c39190612ed5565b60405180910390fd5b8373ffffffffffffffffffffffffffffffffffffffff168173ffffffffffffffffffffffffffffffffffffffff1614611740578382826040517f64283d7b00000000000000000000000000000000000000000000000000000000815260040161173793929190613641565b60405180910390fd5b50505050565b61174e612023565b5f600a5f6101000a81548160ff0219169083151502179055507f5db9ee0a495bf2e6ff9c91a7834c1ba4fdd244a5e8aa4e537bd38aeae4b073aa611790611455565b60405161179d9190612e6f565b60405180910390a1565b5f600a60019054906101000a900473ffffffffffffffffffffffffffffffffffffffff16905081600a60016101000a81548173ffffffffffffffffffffffffffffffffffffffff021916908373ffffffffffffffffffffffffffffffffffffffff1602179055508173ffffffffffffffffffffffffffffffffffffffff168173ffffffffffffffffffffffffffffffffffffffff167f8be0079c531659141344cd1fd0a4f28419497f9722a3daafe3b4186f6b6457e060405160405180910390a35050565b611874612063565b6001600a5f6101000a81548160ff0219169083151502179055507f62e78cea01bee320cd4e420270b5ea74000d11b0c9f74754ebdbfc544b05a2586118b7611455565b6040516118c49190612e6f565b60405180910390a1565b5f73ffffffffffffffffffffffffffffffffffffffff168273ffffffffffffffffffffffffffffffffffffffff160361193e57816040517f5b08ba180000000000000000000000000000000000000000000000000000000081526004016119359190612e6f565b60405180910390fd5b8060055f8573ffffffffffffffffffffffffffffffffffffffff1673ffffffffffffffffffffffffffffffffffffffff1681526020019081526020015f205f8473ffffffffffffffffffffffffffffffffffffffff1673ffffffffffffffffffffffffffffffffffffffff1681526020019081526020015f205f6101000a81548160ff0219169083151502179055508173ffffffffffffffffffffffffffffffffffffffff168373ffffffffffffffffffffffffffffffffffffffff167f17307eab39ab6107e8899845ad3d59bd9653f200f220920489ca2b5937696c3183604051611a2a9190612adc565b60405180910390a3505050565b5f8373ffffffffffffffffffffffffffffffffffffffff163b1115611be3578273ffffffffffffffffffffffffffffffffffffffff1663150b7a02611a7a611455565b8685856040518563ffffffff1660e01b8152600401611a9c9493929190613b5e565b6020604051808303815f875af1925050508015611ad757506040513d601f19601f82011682018060405250810190611ad49190613bbc565b60015b611b58573d805f8114611b05576040519150601f19603f3d011682016040523d82523d5f602084013e611b0a565b606091505b505f815103611b5057836040517f64a0ae92000000000000000000000000000000000000000000000000000000008152600401611b479190612e6f565b60405180910390fd5b805181602001fd5b63150b7a0260e01b7bffffffffffffffffffffffffffffffffffffffffffffffffffffffff1916817bffffffffffffffffffffffffffffffffffffffffffffffffffffffff191614611be157836040517f64a0ae92000000000000000000000000000000000000000000000000000000008152600401611bd89190612e6f565b60405180910390fd5b505b50505050565b606060405180602001604052805f815250905090565b60605f6001611c0d846120a4565b0190505f8167ffffffffffffffff811115611c2b57611c2a612b67565b5b6040519080825280601f01601f191660200182016040528015611c5d5781602001600182028036833780820191505090505b5090505f82602001820190505b600115611cbe578080600190039150507f3031323334353637383961626364656600000000000000000000000000000000600a86061a8153600a8581611cb357611cb26138bb565b5b0494505f8503611c6a575b819350505050919050565b5f611cd55f835f61146e565b90505f73ffffffffffffffffffffffffffffffffffffffff168173ffffffffffffffffffffffffffffffffffffffff1603611d4757816040517f7e273289000000000000000000000000000000000000000000000000000000008152600401611d3e9190612ed5565b60405180910390fd5b5050565b5f7f80ac58cd000000000000000000000000000000000000000000000000000000007bffffffffffffffffffffffffffffffffffffffffffffffffffffffff1916827bffffffffffffffffffffffffffffffffffffffffffffffffffffffff19161480611e1557507f5b5e139f000000000000000000000000000000000000000000000000000000007bffffffffffffffffffffffffffffffffffffffffffffffffffffffff1916827bffffffffffffffffffffffffffffffffffffffffffffffffffffffff1916145b80611e255750611e24826121f5565b5b9050919050565b611e36838361225e565b611e425f848484611a37565b505050565b8080611e7f57505f73ffffffffffffffffffffffffffffffffffffffff168273ffffffffffffffffffffffffffffffffffffffff1614155b15611fb1575f611e8e84611396565b90505f73ffffffffffffffffffffffffffffffffffffffff168373ffffffffffffffffffffffffffffffffffffffff1614158015611ef857508273ffffffffffffffffffffffffffffffffffffffff168173ffffffffffffffffffffffffffffffffffffffff1614155b8015611f0b5750611f098184611103565b155b15611f4d57826040517fa9fbf51f000000000000000000000000000000000000000000000000000000008152600401611f449190612e6f565b60405180910390fd5b8115611faf57838573ffffffffffffffffffffffffffffffffffffffff168273ffffffffffffffffffffffffffffffffffffffff167f8c5be1e5ebec7d5bd14f71427d1e84f3dd0314c0f7b2291e5b200ac8c7c3b92560405160405180910390a45b505b8360045f8581526020019081526020015f205f6101000a81548173ffffffffffffffffffffffffffffffffffffffff021916908373ffffffffffffffffffffffffffffffffffffffff16021790555050505050565b5f61200f612063565b61201a848484612351565b90509392505050565b61202b610e8a565b612061576040517f8dfc202b00000000000000000000000000000000000000000000000000000000815260040160405180910390fd5b565b61206b610e8a565b156120a2576040517fd93c066500000000000000000000000000000000000000000000000000000000815260040160405180910390fd5b565b5f805f90507a184f03e93ff9f4daa797ed6e38ed64bf6a1f0100000000000000008310612100577a184f03e93ff9f4daa797ed6e38ed64bf6a1f01000000000000000083816120f6576120f56138bb565b5b0492506040810190505b6d04ee2d6d415b85acef8100000000831061213d576d04ee2d6d415b85acef81000000008381612133576121326138bb565b5b0492506020810190505b662386f26fc10000831061216c57662386f26fc100008381612162576121616138bb565b5b0492506010810190505b6305f5e1008310612195576305f5e100838161218b5761218a6138bb565b5b0492506008810190505b61271083106121ba5761271083816121b0576121af6138bb565b5b0492506004810190505b606483106121dd57606483816121d3576121d26138bb565b5b0492506002810190505b600a83106121ec576001810190505b80915050919050565b5f7f01ffc9a7000000000000000000000000000000000000000000000000000000007bffffffffffffffffffffffffffffffffffffffffffffffffffffffff1916827bffffffffffffffffffffffffffffffffffffffffffffffffffffffff1916149050919050565b5f73ffffffffffffffffffffffffffffffffffffffff168273ffffffffffffffffffffffffffffffffffffffff16036122ce575f6040517f64a0ae920000000000000000000000000000000000000000000000000000000081526004016122c59190612e6f565b60405180910390fd5b5f6122da83835f61146e565b90505f73ffffffffffffffffffffffffffffffffffffffff168173ffffffffffffffffffffffffffffffffffffffff161461234c575f6040517f73c6ac6e0000000000000000000000000000000000000000000000000000000081526004016123439190612e6f565b60405180910390fd5b505050565b5f8061235e85858561246b565b90505f73ffffffffffffffffffffffffffffffffffffffff168173ffffffffffffffffffffffffffffffffffffffff16036123a15761239c84612676565b6123e0565b8473ffffffffffffffffffffffffffffffffffffffff168173ffffffffffffffffffffffffffffffffffffffff16146123df576123de81856126ba565b5b5b5f73ffffffffffffffffffffffffffffffffffffffff168573ffffffffffffffffffffffffffffffffffffffff16036124215761241c84612804565b612460565b8473ffffffffffffffffffffffffffffffffffffffff168173ffffffffffffffffffffffffffffffffffffffff161461245f5761245e85856128c4565b5b5b809150509392505050565b5f80612476846114e5565b90505f73ffffffffffffffffffffffffffffffffffffffff168373ffffffffffffffffffffffffffffffffffffffff16146124b7576124b6818486612948565b5b5f73ffffffffffffffffffffffffffffffffffffffff168173ffffffffffffffffffffffffffffffffffffffff1614612542576124f65f855f80611e47565b600160035f8373ffffffffffffffffffffffffffffffffffffffff1673ffffffffffffffffffffffffffffffffffffffff1681526020019081526020015f205f82825403925050819055505b5f73ffffffffffffffffffffffffffffffffffffffff168573ffffffffffffffffffffffffffffffffffffffff16146125c157600160035f8773ffffffffffffffffffffffffffffffffffffffff1673ffffffffffffffffffffffffffffffffffffffff1681526020019081526020015f205f82825401925050819055505b8460025f8681526020019081526020015f205f6101000a81548173ffffffffffffffffffffffffffffffffffffffff021916908373ffffffffffffffffffffffffffffffffffffffff160217905550838573ffffffffffffffffffffffffffffffffffffffff168273ffffffffffffffffffffffffffffffffffffffff167fddf252ad1be2c89b69c2b068fc378daa952ba7f163c4a11628f55a4df523b3ef60405160405180910390a4809150509392505050565b60088054905060095f8381526020019081526020015f2081905550600881908060018154018082558091505060019003905f5260205f20015f909190919091505550565b5f6126c483610eb0565b90505f60075f8481526020019081526020015f2054905081811461279b575f60065f8673ffffffffffffffffffffffffffffffffffffffff1673ffffffffffffffffffffffffffffffffffffffff1681526020019081526020015f205f8481526020019081526020015f205490508060065f8773ffffffffffffffffffffffffffffffffffffffff1673ffffffffffffffffffffffffffffffffffffffff1681526020019081526020015f205f8481526020019081526020015f20819055508160075f8381526020019081526020015f2081905550505b60075f8481526020019081526020015f205f905560065f8573ffffffffffffffffffffffffffffffffffffffff1673ffffffffffffffffffffffffffffffffffffffff1681526020019081526020015f205f8381526020019081526020015f205f905550505050565b5f600160088054905061281791906137b9565b90505f60095f8481526020019081526020015f205490505f600883815481106128435761284261398c565b5b905f5260205f200154905080600883815481106128635761286261398c565b5b905f5260205f2001819055508160095f8381526020019081526020015f208190555060095f8581526020019081526020015f205f905560088054806128ab576128aa613be7565b5b600190038181905f5260205f20015f9055905550505050565b5f60016128d084610eb0565b6128da91906137b9565b90508160065f8573ffffffffffffffffffffffffffffffffffffffff1673ffffffffffffffffffffffffffffffffffffffff1681526020019081526020015f205f8381526020019081526020015f20819055508060075f8481526020019081526020015f2081905550505050565b61295383838361151e565b612a06575f73ffffffffffffffffffffffffffffffffffffffff168373ffffffffffffffffffffffffffffffffffffffff16036129c757806040517f7e2732890000000000000000000000000000000000000000000000000000000081526004016129be9190612ed5565b60405180910390fd5b81816040517f177e802f0000000000000000000000000000000000000000000000000000000081526004016129fd929190613704565b60405180910390fd5b505050565b604051806080016040528060608152602001606081526020015f81526020015f81525090565b5f604051905090565b5f80fd5b5f80fd5b5f7fffffffff0000000000000000000000000000000000000000000000000000000082169050919050565b612a7681612a42565b8114612a80575f80fd5b50565b5f81359050612a9181612a6d565b92915050565b5f60208284031215612aac57612aab612a3a565b5b5f612ab984828501612a83565b91505092915050565b5f8115159050919050565b612ad681612ac2565b82525050565b5f602082019050612aef5f830184612acd565b92915050565b5f73ffffffffffffffffffffffffffffffffffffffff82169050919050565b5f612b1e82612af5565b9050919050565b612b2e81612b14565b8114612b38575f80fd5b50565b5f81359050612b4981612b25565b92915050565b5f80fd5b5f80fd5b5f601f19601f8301169050919050565b7f4e487b71000000000000000000000000000000000000000000000000000000005f52604160045260245ffd5b612b9d82612b57565b810181811067ffffffffffffffff82111715612bbc57612bbb612b67565b5b80604052505050565b5f612bce612a31565b9050612bda8282612b94565b919050565b5f67ffffffffffffffff821115612bf957612bf8612b67565b5b612c0282612b57565b9050602081019050919050565b828183375f83830152505050565b5f612c2f612c2a84612bdf565b612bc5565b905082815260208101848484011115612c4b57612c4a612b53565b5b612c56848285612c0f565b509392505050565b5f82601f830112612c7257612c71612b4f565b5b8135612c82848260208601612c1d565b91505092915050565b5f819050919050565b612c9d81612c8b565b8114612ca7575f80fd5b50565b5f81359050612cb881612c94565b92915050565b5f805f805f8060c08789031215612cd857612cd7612a3a565b5b5f612ce589828a01612b3b565b965050602087013567ffffffffffffffff811115612d0657612d05612a3e565b5b612d1289828a01612c5e565b955050604087013567ffffffffffffffff811115612d3357612d32612a3e565b5b612d3f89828a01612c5e565b9450506060612d5089828a01612caa565b9350506080612d6189828a01612caa565b92505060a087013567ffffffffffffffff811115612d8257612d81612a3e565b5b612d8e89828a01612c5e565b9150509295509295509295565b5f81519050919050565b5f82825260208201905092915050565b5f5b83811015612dd2578082015181840152602081019050612db7565b5f8484015250505050565b5f612de782612d9b565b612df18185612da5565b9350612e01818560208601612db5565b612e0a81612b57565b840191505092915050565b5f6020820190508181035f830152612e2d8184612ddd565b905092915050565b5f60208284031215612e4a57612e49612a3a565b5b5f612e5784828501612caa565b91505092915050565b612e6981612b14565b82525050565b5f602082019050612e825f830184612e60565b92915050565b5f8060408385031215612e9e57612e9d612a3a565b5b5f612eab85828601612b3b565b9250506020612ebc85828601612caa565b9150509250929050565b612ecf81612c8b565b82525050565b5f602082019050612ee85f830184612ec6565b92915050565b5f805f60608486031215612f0557612f04612a3a565b5b5f612f1286828701612b3b565b9350506020612f2386828701612b3b565b9250506040612f3486828701612caa565b9150509250925092565b5f82825260208201905092915050565b5f612f5882612d9b565b612f628185612f3e565b9350612f72818560208601612db5565b612f7b81612b57565b840191505092915050565b612f8f81612c8b565b82525050565b5f608083015f8301518482035f860152612faf8282612f4e565b91505060208301518482036020860152612fc98282612f4e565b9150506040830151612fde6040860182612f86565b506060830151612ff16060860182612f86565b508091505092915050565b5f6020820190508181035f8301526130148184612f95565b905092915050565b5f805f6060848603121561303357613032612a3a565b5b5f61304086828701612caa565b935050602061305186828701612b3b565b925050604061306286828701612caa565b9150509250925092565b5f819050919050565b5f61308f61308a61308584612af5565b61306c565b612af5565b9050919050565b5f6130a082613075565b9050919050565b5f6130b182613096565b9050919050565b6130c1816130a7565b82525050565b5f6020820190506130da5f8301846130b8565b92915050565b5f602082840312156130f5576130f4612a3a565b5b5f61310284828501612b3b565b91505092915050565b61311481612ac2565b811461311e575f80fd5b50565b5f8135905061312f8161310b565b92915050565b5f806040838503121561314b5761314a612a3a565b5b5f61315885828601612b3b565b925050602061316985828601613121565b9150509250929050565b5f67ffffffffffffffff82111561318d5761318c612b67565b5b61319682612b57565b9050602081019050919050565b5f6131b56131b084613173565b612bc5565b9050828152602081018484840111156131d1576131d0612b53565b5b6131dc848285612c0f565b509392505050565b5f82601f8301126131f8576131f7612b4f565b5b81356132088482602086016131a3565b91505092915050565b5f805f806080858703121561322957613228612a3a565b5b5f61323687828801612b3b565b945050602061324787828801612b3b565b935050604061325887828801612caa565b925050606085013567ffffffffffffffff81111561327957613278612a3e565b5b613285878288016131e4565b91505092959194509250565b5f80604083850312156132a7576132a6612a3a565b5b5f6132b485828601612caa565b92505060206132c585828601612caa565b9150509250929050565b5f80604083850312156132e5576132e4612a3a565b5b5f6132f285828601612b3b565b925050602061330385828601612b3b565b9150509250929050565b7f4e487b71000000000000000000000000000000000000000000000000000000005f52601160045260245ffd5b5f61334482612c8b565b91507fffffffffffffffffffffffffffffffffffffffffffffffffffffffffffffffff82036133765761337561330d565b5b600182019050919050565b7f4e487b71000000000000000000000000000000000000000000000000000000005f52602260045260245ffd5b5f60028204905060018216806133c557607f821691505b6020821081036133d8576133d7613381565b5b50919050565b5f819050815f5260205f209050919050565b5f6020601f8301049050919050565b5f82821b905092915050565b5f6008830261343a7fffffffffffffffffffffffffffffffffffffffffffffffffffffffffffffffff826133ff565b61344486836133ff565b95508019841693508086168417925050509392505050565b5f61347661347161346c84612c8b565b61306c565b612c8b565b9050919050565b5f819050919050565b61348f8361345c565b6134a361349b8261347d565b84845461340b565b825550505050565b5f90565b6134b76134ab565b6134c2818484613486565b505050565b5b818110156134e5576134da5f826134af565b6001810190506134c8565b5050565b601f82111561352a576134fb816133de565b613504846133f0565b81016020851015613513578190505b61352761351f856133f0565b8301826134c7565b50505b505050565b5f82821c905092915050565b5f61354a5f198460080261352f565b1980831691505092915050565b5f613562838361353b565b9150826002028217905092915050565b61357b82612d9b565b67ffffffffffffffff81111561359457613593612b67565b5b61359e82546133ae565b6135a98282856134e9565b5f60209050601f8311600181146135da575f84156135c8578287015190505b6135d28582613557565b865550613639565b601f1984166135e8866133de565b5f5b8281101561360f578489015182556001820191506020850194506020810190506135ea565b8683101561362c5784890151613628601f89168261353b565b8355505b6001600288020188555050505b505050505050565b5f6060820190506136545f830186612e60565b6136616020830185612ec6565b61366e6040830184612e60565b949350505050565b7f4552433732314d657461646174613a20517565727920666f72206e6f6e6578695f8201527f7374656e7420746f6b656e000000000000000000000000000000000000000000602082015250565b5f6136d0602b83612da5565b91506136db82613676565b604082019050919050565b5f6020820190508181035f8301526136fd816136c4565b9050919050565b5f6040820190506137175f830185612e60565b6137246020830184612ec6565b9392505050565b7f4552433732313a207472616e736665722063616c6c6572206973206e6f74206f5f8201527f776e6572206e6f7220617070726f766564000000000000000000000000000000602082015250565b5f613785603183612da5565b91506137908261372b565b604082019050919050565b5f6020820190508181035f8301526137b281613779565b9050919050565b5f6137c382612c8b565b91506137ce83612c8b565b92508282039050818111156137e6576137e561330d565b5b92915050565b7f526573616c652070726f6869626974656420636c6f736520746f20666c6967685f8201527f742074696d650000000000000000000000000000000000000000000000000000602082015250565b5f613846602683612da5565b9150613851826137ec565b604082019050919050565b5f6020820190508181035f8301526138738161383a565b9050919050565b5f61388482612c8b565b915061388f83612c8b565b925082820261389d81612c8b565b915082820484148315176138b4576138b361330d565b5b5092915050565b7f4e487b71000000000000000000000000000000000000000000000000000000005f52601260045260245ffd5b5f6138f282612c8b565b91506138fd83612c8b565b92508261390d5761390c6138bb565b5b828204905092915050565b5f60608201905061392b5f830186612e60565b6139386020830185612e60565b6139456040830184612ec6565b949350505050565b5f8151905061395b8161310b565b92915050565b5f6020828403121561397657613975612a3a565b5b5f6139838482850161394d565b91505092915050565b7f4e487b71000000000000000000000000000000000000000000000000000000005f52603260045260245ffd5b5f81905092915050565b5f6139cd82612d9b565b6139d781856139b9565b93506139e7818560208601612db5565b80840191505092915050565b5f6139fe82856139c3565b9150613a0a82846139c3565b91508190509392505050565b7f4552433732313a206275726e2063616c6c6572206973206e6f74206f776e65725f8201527f206e6f7220617070726f76656400000000000000000000000000000000000000602082015250565b5f613a70602d83612da5565b9150613a7b82613a16565b604082019050919050565b5f6020820190508181035f830152613a9d81613a64565b9050919050565b7f5469636b65742073616c65732061726520636c6f7365640000000000000000005f82015250565b5f613ad8601783612da5565b9150613ae382613aa4565b602082019050919050565b5f6020820190508181035f830152613b0581613acc565b9050919050565b5f81519050919050565b5f82825260208201905092915050565b5f613b3082613b0c565b613b3a8185613b16565b9350613b4a818560208601612db5565b613b5381612b57565b840191505092915050565b5f608082019050613b715f830187612e60565b613b7e6020830186612e60565b613b8b6040830185612ec6565b8181036060830152613b9d8184613b26565b905095945050505050565b5f81519050613bb681612a6d565b92915050565b5f60208284031215613bd157613bd0612a3a565b5b5f613bde84828501613ba8565b91505092915050565b7f4e487b71000000000000000000000000000000000000000000000000000000005f52603160045260245ffdfea26469706673582212202f6fa6ad2f652bfca283bb6caffc982a14851259c298b7b05898454510cacef264736f6c63430008150033",
  "immutableReferences": {},
  "source": "// SPDX-License-Identifier: MIT\n// Compatible with OpenZeppelin Contracts ^5.0.0\npragma solidity ^0.8.20;\n\nimport \"@openzeppelin/contracts/token/ERC721/ERC721.sol\";\nimport \"@openzeppelin/contracts/token/ERC721/extensions/ERC721Enumerable.sol\";\nimport \"@openzeppelin/contracts/token/ERC721/extensions/ERC721Pausable.sol\";\nimport \"@openzeppelin/contracts/access/Ownable.sol\";\nimport \"@openzeppelin/contracts/token/ERC20/IERC20.sol\";\n\ncontract TraveldqToken is ERC721, ERC721Enumerable, ERC721Pausable, Ownable {\n    uint256 private _nextTokenId;\n\n    IERC20 public usdc; // USDC token interface\n\n    uint256 public airlineFeePercentage = 5;\n    uint256 public traveldqFeePercentage = 5;\n\n    // Metadata structure for each ticket\n    struct TicketMetadata {\n        string airlineCode;\n        string pnr;\n        uint256 travelDate;\n        uint256 flightTime;\n    }\n\n    mapping(uint256 => TicketMetadata) private _ticketDetails;\n\n    constructor(address initialOwner, address usdcAddress)\n        ERC721(\"TraveldqToken\", \"TDT\")\n        Ownable(initialOwner)\n    {\n        transferOwnership(initialOwner);\n        usdc = IERC20(usdcAddress);\n    }\n\n\n    function mintTicket(address to, string memory airlineCode, string memory pnr, uint256 travelDate, uint256 flightTime, string memory tokenURI) public onlyOwner {\n        uint256 tokenId = _nextTokenId++;\n        _ticketDetails[tokenId] = TicketMetadata(airlineCode, pnr, travelDate, flightTime);\n        _safeMint(to, tokenId);\n    }\n\n    function pause() public onlyOwner {\n        _pause();\n    }\n\n    function unpause() public onlyOwner {\n        _unpause();\n    }\n\n    function sellTicket(uint256 tokenId, address buyer, uint256 salePrice) public {\n        require(_isAuthorized(owner(), _msgSender(), tokenId), \"ERC721: transfer caller is not owner nor approved\");\n        require(block.timestamp <= _ticketDetails[tokenId].flightTime - 3 hours, \"Resale prohibited close to flight time\");\n\n        uint256 airlineFee = (salePrice * airlineFeePercentage) / 100;\n        uint256 traveldqFee = (salePrice * traveldqFeePercentage) / 100;\n        uint256 sellerRevenue = salePrice - airlineFee - traveldqFee;\n\n        usdc.transferFrom(buyer, owner(), airlineFee);\n        usdc.transferFrom(buyer, _msgSender(), sellerRevenue);\n        usdc.transferFrom(buyer, address(this), traveldqFee);\n\n        _transfer(_msgSender(), buyer, tokenId);\n    }\n\n    function cancelTicket(uint256 tokenId) public {\n        require(_isAuthorized(owner(), _msgSender(), tokenId) , \"ERC721: burn caller is not owner nor approved\");\n        _burn(tokenId);\n    }\n\n    function setDistributionRatios(uint256 newAirlineFeePercentage, uint256 newTraveldqFeePercentage) public onlyOwner {\n        airlineFeePercentage = newAirlineFeePercentage;\n        traveldqFeePercentage = newTraveldqFeePercentage;\n    }\n\n    function getTicketDetails(uint256 tokenId) public view returns (TicketMetadata memory) {\n        require(_ownerOf(tokenId) != address(0), \"ERC721Metadata: Query for nonexistent token\");\n        return _ticketDetails[tokenId];\n    }\n\n    // The following functions are overrides required by Solidity.\n\n    function _update(\n      address to,\n      uint256 tokenId,\n      address auth\n    ) internal override(ERC721, ERC721Enumerable, ERC721Pausable) returns (address) \n    {\n        require(_ticketDetails[tokenId].flightTime - 3 hours > block.timestamp, \"Ticket sales are closed\");\n        super._update(to, tokenId, auth);\n    }\n\n    // function _update(address to, uint256 tokenId, address auth)\n    //     internal\n    //     override(ERC721, ERC721Enumerable, ERC721Pausable)\n    //     returns (address)\n    // {\n    //     return super._update(to, tokenId, auth);\n    // }\n\n    function _increaseBalance(address account, uint128 value)\n        internal\n        override(ERC721, ERC721Enumerable)\n    {\n        super._increaseBalance(account, value);\n    }\n\n    function supportsInterface(bytes4 interfaceId)\n        public\n        view\n        override(ERC721, ERC721Enumerable)\n        returns (bool)\n    {\n        return super.supportsInterface(interfaceId);\n    }\n}\n",
  "sourcePath": "/Users/atpuroh/Downloads/Workspace/traveldq-contract/contracts/TraveldqToken.sol",
  "compiler": {
    "name": "solc",
    "version": "0.8.21+commit.d9974bed.Emscripten.clang"
  },
  "schemaVersion": "3.4.16",
  "updatedAt": "2024-03-09T00:55:33.912Z",
  "devdoc": {
    "errors": {
      "ERC721EnumerableForbiddenBatchMint()": [
        {
          "details": "Batch mint is not allowed."
        }
      ],
      "ERC721IncorrectOwner(address,uint256,address)": [
        {
          "details": "Indicates an error related to the ownership over a particular token. Used in transfers.",
          "params": {
            "owner": "Address of the current owner of a token.",
            "sender": "Address whose tokens are being transferred.",
            "tokenId": "Identifier number of a token."
          }
        }
      ],
      "ERC721InsufficientApproval(address,uint256)": [
        {
          "details": "Indicates a failure with the `operator`s approval. Used in transfers.",
          "params": {
            "operator": "Address that may be allowed to operate on tokens without being their owner.",
            "tokenId": "Identifier number of a token."
          }
        }
      ],
      "ERC721InvalidApprover(address)": [
        {
          "details": "Indicates a failure with the `approver` of a token to be approved. Used in approvals.",
          "params": {
            "approver": "Address initiating an approval operation."
          }
        }
      ],
      "ERC721InvalidOperator(address)": [
        {
          "details": "Indicates a failure with the `operator` to be approved. Used in approvals.",
          "params": {
            "operator": "Address that may be allowed to operate on tokens without being their owner."
          }
        }
      ],
      "ERC721InvalidOwner(address)": [
        {
          "details": "Indicates that an address can't be an owner. For example, `address(0)` is a forbidden owner in EIP-20. Used in balance queries.",
          "params": {
            "owner": "Address of the current owner of a token."
          }
        }
      ],
      "ERC721InvalidReceiver(address)": [
        {
          "details": "Indicates a failure with the token `receiver`. Used in transfers.",
          "params": {
            "receiver": "Address to which tokens are being transferred."
          }
        }
      ],
      "ERC721InvalidSender(address)": [
        {
          "details": "Indicates a failure with the token `sender`. Used in transfers.",
          "params": {
            "sender": "Address whose tokens are being transferred."
          }
        }
      ],
      "ERC721NonexistentToken(uint256)": [
        {
          "details": "Indicates a `tokenId` whose `owner` is the zero address.",
          "params": {
            "tokenId": "Identifier number of a token."
          }
        }
      ],
      "ERC721OutOfBoundsIndex(address,uint256)": [
        {
          "details": "An `owner`'s token query was out of bounds for `index`. NOTE: The owner being `address(0)` indicates a global out of bounds index."
        }
      ],
      "EnforcedPause()": [
        {
          "details": "The operation failed because the contract is paused."
        }
      ],
      "ExpectedPause()": [
        {
          "details": "The operation failed because the contract is not paused."
        }
      ],
      "OwnableInvalidOwner(address)": [
        {
          "details": "The owner is not a valid owner account. (eg. `address(0)`)"
        }
      ],
      "OwnableUnauthorizedAccount(address)": [
        {
          "details": "The caller account is not authorized to perform an operation."
        }
      ]
    },
    "events": {
      "Approval(address,address,uint256)": {
        "details": "Emitted when `owner` enables `approved` to manage the `tokenId` token."
      },
      "ApprovalForAll(address,address,bool)": {
        "details": "Emitted when `owner` enables or disables (`approved`) `operator` to manage all of its assets."
      },
      "Paused(address)": {
        "details": "Emitted when the pause is triggered by `account`."
      },
      "Transfer(address,address,uint256)": {
        "details": "Emitted when `tokenId` token is transferred from `from` to `to`."
      },
      "Unpaused(address)": {
        "details": "Emitted when the pause is lifted by `account`."
      }
    },
    "kind": "dev",
    "methods": {
      "approve(address,uint256)": {
        "details": "See {IERC721-approve}."
      },
      "balanceOf(address)": {
        "details": "See {IERC721-balanceOf}."
      },
      "getApproved(uint256)": {
        "details": "See {IERC721-getApproved}."
      },
      "isApprovedForAll(address,address)": {
        "details": "See {IERC721-isApprovedForAll}."
      },
      "name()": {
        "details": "See {IERC721Metadata-name}."
      },
      "owner()": {
        "details": "Returns the address of the current owner."
      },
      "ownerOf(uint256)": {
        "details": "See {IERC721-ownerOf}."
      },
      "paused()": {
        "details": "Returns true if the contract is paused, and false otherwise."
      },
      "renounceOwnership()": {
        "details": "Leaves the contract without owner. It will not be possible to call `onlyOwner` functions. Can only be called by the current owner. NOTE: Renouncing ownership will leave the contract without an owner, thereby disabling any functionality that is only available to the owner."
      },
      "safeTransferFrom(address,address,uint256)": {
        "details": "See {IERC721-safeTransferFrom}."
      },
      "safeTransferFrom(address,address,uint256,bytes)": {
        "details": "See {IERC721-safeTransferFrom}."
      },
      "setApprovalForAll(address,bool)": {
        "details": "See {IERC721-setApprovalForAll}."
      },
      "symbol()": {
        "details": "See {IERC721Metadata-symbol}."
      },
      "tokenByIndex(uint256)": {
        "details": "See {IERC721Enumerable-tokenByIndex}."
      },
      "tokenOfOwnerByIndex(address,uint256)": {
        "details": "See {IERC721Enumerable-tokenOfOwnerByIndex}."
      },
      "tokenURI(uint256)": {
        "details": "See {IERC721Metadata-tokenURI}."
      },
      "totalSupply()": {
        "details": "See {IERC721Enumerable-totalSupply}."
      },
      "transferFrom(address,address,uint256)": {
        "details": "See {IERC721-transferFrom}."
      },
      "transferOwnership(address)": {
        "details": "Transfers ownership of the contract to a new account (`newOwner`). Can only be called by the current owner."
      }
    },
    "version": 1
  },
  "userdoc": {
    "kind": "user",
    "methods": {},
    "version": 1
  }
}