{
  "contractName": "TraveldqToken",
  "abi": [
    {
      "inputs": [
        {
          "internalType": "address",
          "name": "usdcAddress",
          "type": "address"
        }
      ],
      "stateMutability": "nonpayable",
      "type": "constructor"
    },
    {
      "anonymous": false,
      "inputs": [
        {
          "indexed": true,
          "internalType": "address",
          "name": "owner",
          "type": "address"
        },
        {
          "indexed": true,
          "internalType": "address",
          "name": "approved",
          "type": "address"
        },
        {
          "indexed": true,
          "internalType": "uint256",
          "name": "tokenId",
          "type": "uint256"
        }
      ],
      "name": "Approval",
      "type": "event"
    },
    {
      "anonymous": false,
      "inputs": [
        {
          "indexed": true,
          "internalType": "address",
          "name": "owner",
          "type": "address"
        },
        {
          "indexed": true,
          "internalType": "address",
          "name": "operator",
          "type": "address"
        },
        {
          "indexed": false,
          "internalType": "bool",
          "name": "approved",
          "type": "bool"
        }
      ],
      "name": "ApprovalForAll",
      "type": "event"
    },
    {
      "anonymous": false,
      "inputs": [
        {
          "indexed": true,
          "internalType": "address",
          "name": "previousOwner",
          "type": "address"
        },
        {
          "indexed": true,
          "internalType": "address",
          "name": "newOwner",
          "type": "address"
        }
      ],
      "name": "OwnershipTransferred",
      "type": "event"
    },
    {
      "anonymous": false,
      "inputs": [
        {
          "indexed": false,
          "internalType": "address",
          "name": "account",
          "type": "address"
        }
      ],
      "name": "Paused",
      "type": "event"
    },
    {
      "anonymous": false,
      "inputs": [
        {
          "indexed": true,
          "internalType": "address",
          "name": "from",
          "type": "address"
        },
        {
          "indexed": true,
          "internalType": "address",
          "name": "to",
          "type": "address"
        },
        {
          "indexed": true,
          "internalType": "uint256",
          "name": "tokenId",
          "type": "uint256"
        }
      ],
      "name": "Transfer",
      "type": "event"
    },
    {
      "anonymous": false,
      "inputs": [
        {
          "indexed": false,
          "internalType": "address",
          "name": "account",
          "type": "address"
        }
      ],
      "name": "Unpaused",
      "type": "event"
    },
    {
      "inputs": [
        {
          "internalType": "uint256",
          "name": "",
          "type": "uint256"
        }
      ],
      "name": "_owners",
      "outputs": [
        {
          "internalType": "address",
          "name": "",
          "type": "address"
        }
      ],
      "stateMutability": "view",
      "type": "function",
      "constant": true
    },
    {
      "inputs": [],
      "name": "airlineFeePercentage",
      "outputs": [
        {
          "internalType": "uint256",
          "name": "",
          "type": "uint256"
        }
      ],
      "stateMutability": "view",
      "type": "function",
      "constant": true
    },
    {
      "inputs": [
        {
          "internalType": "address",
          "name": "to",
          "type": "address"
        },
        {
          "internalType": "uint256",
          "name": "tokenId",
          "type": "uint256"
        }
      ],
      "name": "approve",
      "outputs": [],
      "stateMutability": "nonpayable",
      "type": "function"
    },
    {
      "inputs": [
        {
          "internalType": "address",
          "name": "owner",
          "type": "address"
        }
      ],
      "name": "balanceOf",
      "outputs": [
        {
          "internalType": "uint256",
          "name": "",
          "type": "uint256"
        }
      ],
      "stateMutability": "view",
      "type": "function",
      "constant": true
    },
    {
      "inputs": [
        {
          "internalType": "uint256",
          "name": "tokenId",
          "type": "uint256"
        }
      ],
      "name": "getApproved",
      "outputs": [
        {
          "internalType": "address",
          "name": "",
          "type": "address"
        }
      ],
      "stateMutability": "view",
      "type": "function",
      "constant": true
    },
    {
      "inputs": [
        {
          "internalType": "address",
          "name": "owner",
          "type": "address"
        },
        {
          "internalType": "address",
          "name": "operator",
          "type": "address"
        }
      ],
      "name": "isApprovedForAll",
      "outputs": [
        {
          "internalType": "bool",
          "name": "",
          "type": "bool"
        }
      ],
      "stateMutability": "view",
      "type": "function",
      "constant": true
    },
    {
      "inputs": [],
      "name": "name",
      "outputs": [
        {
          "internalType": "string",
          "name": "",
          "type": "string"
        }
      ],
      "stateMutability": "view",
      "type": "function",
      "constant": true
    },
    {
      "inputs": [],
      "name": "owner",
      "outputs": [
        {
          "internalType": "address",
          "name": "",
          "type": "address"
        }
      ],
      "stateMutability": "view",
      "type": "function",
      "constant": true
    },
    {
      "inputs": [
        {
          "internalType": "uint256",
          "name": "tokenId",
          "type": "uint256"
        }
      ],
      "name": "ownerOf",
      "outputs": [
        {
          "internalType": "address",
          "name": "",
          "type": "address"
        }
      ],
      "stateMutability": "view",
      "type": "function",
      "constant": true
    },
    {
      "inputs": [],
      "name": "paused",
      "outputs": [
        {
          "internalType": "bool",
          "name": "",
          "type": "bool"
        }
      ],
      "stateMutability": "view",
      "type": "function",
      "constant": true
    },
    {
      "inputs": [],
      "name": "renounceOwnership",
      "outputs": [],
      "stateMutability": "nonpayable",
      "type": "function"
    },
    {
      "inputs": [
        {
          "internalType": "address",
          "name": "from",
          "type": "address"
        },
        {
          "internalType": "address",
          "name": "to",
          "type": "address"
        },
        {
          "internalType": "uint256",
          "name": "tokenId",
          "type": "uint256"
        }
      ],
      "name": "safeTransferFrom",
      "outputs": [],
      "stateMutability": "nonpayable",
      "type": "function"
    },
    {
      "inputs": [
        {
          "internalType": "address",
          "name": "from",
          "type": "address"
        },
        {
          "internalType": "address",
          "name": "to",
          "type": "address"
        },
        {
          "internalType": "uint256",
          "name": "tokenId",
          "type": "uint256"
        },
        {
          "internalType": "bytes",
          "name": "data",
          "type": "bytes"
        }
      ],
      "name": "safeTransferFrom",
      "outputs": [],
      "stateMutability": "nonpayable",
      "type": "function"
    },
    {
      "inputs": [
        {
          "internalType": "address",
          "name": "operator",
          "type": "address"
        },
        {
          "internalType": "bool",
          "name": "approved",
          "type": "bool"
        }
      ],
      "name": "setApprovalForAll",
      "outputs": [],
      "stateMutability": "nonpayable",
      "type": "function"
    },
    {
      "inputs": [],
      "name": "symbol",
      "outputs": [
        {
          "internalType": "string",
          "name": "",
          "type": "string"
        }
      ],
      "stateMutability": "view",
      "type": "function",
      "constant": true
    },
    {
      "inputs": [
        {
          "internalType": "uint256",
          "name": "index",
          "type": "uint256"
        }
      ],
      "name": "tokenByIndex",
      "outputs": [
        {
          "internalType": "uint256",
          "name": "",
          "type": "uint256"
        }
      ],
      "stateMutability": "view",
      "type": "function",
      "constant": true
    },
    {
      "inputs": [
        {
          "internalType": "address",
          "name": "owner",
          "type": "address"
        },
        {
          "internalType": "uint256",
          "name": "index",
          "type": "uint256"
        }
      ],
      "name": "tokenOfOwnerByIndex",
      "outputs": [
        {
          "internalType": "uint256",
          "name": "",
          "type": "uint256"
        }
      ],
      "stateMutability": "view",
      "type": "function",
      "constant": true
    },
    {
      "inputs": [
        {
          "internalType": "uint256",
          "name": "tokenId",
          "type": "uint256"
        }
      ],
      "name": "tokenURI",
      "outputs": [
        {
          "internalType": "string",
          "name": "",
          "type": "string"
        }
      ],
      "stateMutability": "view",
      "type": "function",
      "constant": true
    },
    {
      "inputs": [],
      "name": "totalSupply",
      "outputs": [
        {
          "internalType": "uint256",
          "name": "",
          "type": "uint256"
        }
      ],
      "stateMutability": "view",
      "type": "function",
      "constant": true
    },
    {
      "inputs": [
        {
          "internalType": "address",
          "name": "from",
          "type": "address"
        },
        {
          "internalType": "address",
          "name": "to",
          "type": "address"
        },
        {
          "internalType": "uint256",
          "name": "tokenId",
          "type": "uint256"
        }
      ],
      "name": "transferFrom",
      "outputs": [],
      "stateMutability": "nonpayable",
      "type": "function"
    },
    {
      "inputs": [
        {
          "internalType": "address",
          "name": "newOwner",
          "type": "address"
        }
      ],
      "name": "transferOwnership",
      "outputs": [],
      "stateMutability": "nonpayable",
      "type": "function"
    },
    {
      "inputs": [],
      "name": "traveldqFeePercentage",
      "outputs": [
        {
          "internalType": "uint256",
          "name": "",
          "type": "uint256"
        }
      ],
      "stateMutability": "view",
      "type": "function",
      "constant": true
    },
    {
      "inputs": [],
      "name": "usdc",
      "outputs": [
        {
          "internalType": "contract IERC20",
          "name": "",
          "type": "address"
        }
      ],
      "stateMutability": "view",
      "type": "function",
      "constant": true
    },
    {
      "inputs": [
        {
          "internalType": "address",
          "name": "to",
          "type": "address"
        },
        {
          "internalType": "string",
          "name": "airlineCode",
          "type": "string"
        },
        {
          "internalType": "string",
          "name": "pnr",
          "type": "string"
        },
        {
          "internalType": "uint256",
          "name": "travelDate",
          "type": "uint256"
        },
        {
          "internalType": "uint256",
          "name": "flightTime",
          "type": "uint256"
        }
      ],
      "name": "mintTicket",
      "outputs": [],
      "stateMutability": "nonpayable",
      "type": "function"
    },
    {
      "inputs": [],
      "name": "pause",
      "outputs": [],
      "stateMutability": "nonpayable",
      "type": "function"
    },
    {
      "inputs": [],
      "name": "unpause",
      "outputs": [],
      "stateMutability": "nonpayable",
      "type": "function"
    },
    {
      "inputs": [
        {
          "internalType": "uint256",
          "name": "tokenId",
          "type": "uint256"
        },
        {
          "internalType": "address",
          "name": "buyer",
          "type": "address"
        },
        {
          "internalType": "uint256",
          "name": "salePrice",
          "type": "uint256"
        }
      ],
      "name": "sellTicket",
      "outputs": [],
      "stateMutability": "nonpayable",
      "type": "function"
    },
    {
      "inputs": [
        {
          "internalType": "uint256",
          "name": "newAirlineFeePercentage",
          "type": "uint256"
        },
        {
          "internalType": "uint256",
          "name": "newTraveldqFeePercentage",
          "type": "uint256"
        }
      ],
      "name": "setDistributionRatios",
      "outputs": [],
      "stateMutability": "nonpayable",
      "type": "function"
    },
    {
      "inputs": [
        {
          "internalType": "uint256",
          "name": "tokenId",
          "type": "uint256"
        }
      ],
      "name": "getTicketDetails",
      "outputs": [
        {
          "components": [
            {
              "internalType": "string",
              "name": "airlineCode",
              "type": "string"
            },
            {
              "internalType": "string",
              "name": "pnr",
              "type": "string"
            },
            {
              "internalType": "uint256",
              "name": "travelDate",
              "type": "uint256"
            },
            {
              "internalType": "uint256",
              "name": "flightTime",
              "type": "uint256"
            }
          ],
          "internalType": "struct TraveldqToken.TicketMetadata",
          "name": "",
          "type": "tuple"
        }
      ],
      "stateMutability": "view",
      "type": "function",
      "constant": true
    },
    {
      "inputs": [
        {
          "internalType": "bytes4",
          "name": "interfaceId",
          "type": "bytes4"
        }
      ],
      "name": "supportsInterface",
      "outputs": [
        {
          "internalType": "bool",
          "name": "",
          "type": "bool"
        }
      ],
      "stateMutability": "view",
      "type": "function",
      "constant": true
    }
  ],
  "bytecode": "0x60806040526005600d556005600e553480156200001b57600080fd5b5060405162004d0838038062004d0883398181016040528101906200004191906200046b565b6040518060400160405280600d81526020017f54726176656c6471546f6b656e000000000000000000000000000000000000008152506040518060400160405280600381526020017f54445400000000000000000000000000000000000000000000000000000000008152508160009080519060200190620000c5929190620003a4565b508060019080519060200190620000de929190620003a4565b5050506000600a60006101000a81548160ff0219169083151502179055506200011c620001106200018460201b60201c565b6200018c60201b60201c565b6200013c620001306200018460201b60201c565b6200025260201b60201c565b80600c60006101000a81548173ffffffffffffffffffffffffffffffffffffffff021916908373ffffffffffffffffffffffffffffffffffffffff1602179055505062000665565b600033905090565b6000600a60019054906101000a900473ffffffffffffffffffffffffffffffffffffffff16905081600a60016101000a81548173ffffffffffffffffffffffffffffffffffffffff021916908373ffffffffffffffffffffffffffffffffffffffff1602179055508173ffffffffffffffffffffffffffffffffffffffff168173ffffffffffffffffffffffffffffffffffffffff167f8be0079c531659141344cd1fd0a4f28419497f9722a3daafe3b4186f6b6457e060405160405180910390a35050565b62000262620002e960201b60201c565b600073ffffffffffffffffffffffffffffffffffffffff168173ffffffffffffffffffffffffffffffffffffffff161415620002d5576040517f08c379a0000000000000000000000000000000000000000000000000000000008152600401620002cc90620004e5565b60405180910390fd5b620002e6816200018c60201b60201c565b50565b620002f96200018460201b60201c565b73ffffffffffffffffffffffffffffffffffffffff166200031f6200037a60201b60201c565b73ffffffffffffffffffffffffffffffffffffffff161462000378576040517f08c379a00000000000000000000000000000000000000000000000000000000081526004016200036f9062000507565b60405180910390fd5b565b6000600a60019054906101000a900473ffffffffffffffffffffffffffffffffffffffff16905090565b828054620003b2906200056e565b90600052602060002090601f016020900481019282620003d6576000855562000422565b82601f10620003f157805160ff191683800117855562000422565b8280016001018555821562000422579182015b828111156200042157825182559160200191906001019062000404565b5b50905062000431919062000435565b5090565b5b808211156200045057600081600090555060010162000436565b5090565b60008151905062000465816200064b565b92915050565b6000602082840312156200047e57600080fd5b60006200048e8482850162000454565b91505092915050565b6000620004a660268362000529565b9150620004b382620005d3565b604082019050919050565b6000620004cd60208362000529565b9150620004da8262000622565b602082019050919050565b60006020820190508181036000830152620005008162000497565b9050919050565b600060208201905081810360008301526200052281620004be565b9050919050565b600082825260208201905092915050565b600062000547826200054e565b9050919050565b600073ffffffffffffffffffffffffffffffffffffffff82169050919050565b600060028204905060018216806200058757607f821691505b602082108114156200059e576200059d620005a4565b5b50919050565b7f4e487b7100000000000000000000000000000000000000000000000000000000600052602260045260246000fd5b7f4f776e61626c653a206e6577206f776e657220697320746865207a65726f206160008201527f6464726573730000000000000000000000000000000000000000000000000000602082015250565b7f4f776e61626c653a2063616c6c6572206973206e6f7420746865206f776e6572600082015250565b62000656816200053a565b81146200066257600080fd5b50565b61469380620006756000396000f3fe608060405234801561001057600080fd5b50600436106101da5760003560e01c80636352211e11610104578063a22cb465116100a2578063b9e610c911610071578063b9e610c91461052f578063c87b56dd1461054d578063e985e9c51461057d578063f2fde38b146105ad576101da565b8063a22cb465146104bd578063b247a9c2146104d9578063b88d4fde146104f7578063b92ab47714610513576101da565b80638456cb59116100de5780638456cb59146104475780638da5cb5b1461045157806395d89b411461046f578063992924a61461048d576101da565b80636352211e146103dd57806370a082311461040d578063715018a61461043d576101da565b806325f029da1161017c5780633f4ba83a1161014b5780633f4ba83a1461036957806342842e0e146103735780634f6ccce71461038f5780635c975abb146103bf576101da565b806325f029da146102e35780632f745c59146102ff5780633ae05b301461032f5780633e413bee1461034b576101da565b8063095ea7b3116101b8578063095ea7b31461025d57806318160ddd1461027957806323b872dd1461029757806324c14160146102b3576101da565b806301ffc9a7146101df57806306fdde031461020f578063081812fc1461022d575b600080fd5b6101f960048036038101906101f49190613212565b6105c9565b6040516102069190613890565b60405180910390f35b6102176105db565b60405161022491906138c6565b60405180910390f35b61024760048036038101906102429190613264565b61066d565b60405161025491906137f2565b60405180910390f35b610277600480360381019061027291906131ad565b6106b3565b005b6102816107cb565b60405161028e9190613bea565b60405180910390f35b6102b160048036038101906102ac9190613000565b6107d8565b005b6102cd60048036038101906102c89190613264565b610838565b6040516102da9190613bc8565b60405180910390f35b6102fd60048036038101906102f89190613106565b610a15565b005b610319600480360381019061031491906131ad565b610acf565b6040516103269190613bea565b60405180910390f35b6103496004803603810190610344919061328d565b610b74565b005b610353610fb2565b60405161036091906138ab565b60405180910390f35b610371610fd8565b005b61038d60048036038101906103889190613000565b610fea565b005b6103a960048036038101906103a49190613264565b61100a565b6040516103b69190613bea565b60405180910390f35b6103c76110a1565b6040516103d49190613890565b60405180910390f35b6103f760048036038101906103f29190613264565b6110b8565b60405161040491906137f2565b60405180910390f35b61042760048036038101906104229190612f9b565b61113f565b6040516104349190613bea565b60405180910390f35b6104456111f7565b005b61044f61120b565b005b61045961121d565b60405161046691906137f2565b60405180910390f35b610477611247565b60405161048491906138c6565b60405180910390f35b6104a760048036038101906104a29190613264565b6112d9565b6040516104b491906137f2565b60405180910390f35b6104d760048036038101906104d291906130ca565b61130c565b005b6104e1611322565b6040516104ee9190613bea565b60405180910390f35b610511600480360381019061050c919061304f565b611328565b005b61052d600480360381019061052891906132dc565b61138a565b005b6105376113a4565b6040516105449190613bea565b60405180910390f35b61056760048036038101906105629190613264565b6113aa565b60405161057491906138c6565b60405180910390f35b61059760048036038101906105929190612fc4565b611412565b6040516105a49190613890565b60405180910390f35b6105c760048036038101906105c29190612f9b565b6114a6565b005b60006105d48261152a565b9050919050565b6060600080546105ea90613e79565b80601f016020809104026020016040519081016040528092919081815260200182805461061690613e79565b80156106635780601f1061063857610100808354040283529160200191610663565b820191906000526020600020905b81548152906001019060200180831161064657829003601f168201915b5050505050905090565b6000610678826115a4565b6004600083815260200190815260200160002060009054906101000a900473ffffffffffffffffffffffffffffffffffffffff169050919050565b60006106be826110b8565b90508073ffffffffffffffffffffffffffffffffffffffff168373ffffffffffffffffffffffffffffffffffffffff16141561072f576040517f08c379a000000000000000000000000000000000000000000000000000000000815260040161072690613b28565b60405180910390fd5b8073ffffffffffffffffffffffffffffffffffffffff1661074e6115ef565b73ffffffffffffffffffffffffffffffffffffffff16148061077d575061077c816107776115ef565b611412565b5b6107bc576040517f08c379a00000000000000000000000000000000000000000000000000000000081526004016107b390613b48565b60405180910390fd5b6107c683836115f7565b505050565b6000600880549050905090565b6107e96107e36115ef565b826116b0565b610828576040517f08c379a000000000000000000000000000000000000000000000000000000000815260040161081f90613948565b60405180910390fd5b610833838383611745565b505050565b610840612d82565b600073ffffffffffffffffffffffffffffffffffffffff1661086183611a3f565b73ffffffffffffffffffffffffffffffffffffffff1614156108b8576040517f08c379a00000000000000000000000000000000000000000000000000000000081526004016108af90613908565b60405180910390fd5b600f60008381526020019081526020016000206040518060800160405290816000820180546108e690613e79565b80601f016020809104026020016040519081016040528092919081815260200182805461091290613e79565b801561095f5780601f106109345761010080835404028352916020019161095f565b820191906000526020600020905b81548152906001019060200180831161094257829003601f168201915b5050505050815260200160018201805461097890613e79565b80601f01602080910402602001604051908101604052809291908181526020018280546109a490613e79565b80156109f15780601f106109c6576101008083540402835291602001916109f1565b820191906000526020600020905b8154815290600101906020018083116109d457829003601f168201915b50505050508152602001600282015481526020016003820154815250509050919050565b610a1d611a7c565b6000600b6000815480929190610a3290613edc565b919050559050604051806080016040528086815260200185815260200184815260200183815250600f60008381526020019081526020016000206000820151816000019080519060200190610a88929190612daa565b506020820151816001019080519060200190610aa5929190612daa565b506040820151816002015560608201518160030155905050610ac78682611afa565b505050505050565b6000610ada8361113f565b8210610b1b576040517f08c379a0000000000000000000000000000000000000000000000000000000008152600401610b1290613968565b60405180910390fd5b600660008473ffffffffffffffffffffffffffffffffffffffff1673ffffffffffffffffffffffffffffffffffffffff168152602001908152602001600020600083815260200190815260200160002054905092915050565b6002600084815260200190815260200160002060009054906101000a900473ffffffffffffffffffffffffffffffffffffffff1673ffffffffffffffffffffffffffffffffffffffff168273ffffffffffffffffffffffffffffffffffffffff161415610c16576040517f08c379a0000000000000000000000000000000000000000000000000000000008152600401610c0d90613ae8565b60405180910390fd5b610c2082846116b0565b610c5f576040517f08c379a0000000000000000000000000000000000000000000000000000000008152600401610c5690613b68565b60405180910390fd5b612a30600f600085815260200190815260200160002060030154610c839190613d6b565b421115610cc5576040517f08c379a0000000000000000000000000000000000000000000000000000000008152600401610cbc90613a48565b60405180910390fd5b60006064600d5483610cd79190613d11565b610ce19190613ce0565b905060006064600e5484610cf59190613d11565b610cff9190613ce0565b90506000818385610d109190613d6b565b610d1a9190613d6b565b9050600c60009054906101000a900473ffffffffffffffffffffffffffffffffffffffff1673ffffffffffffffffffffffffffffffffffffffff166323b872dd86610d6361121d565b866040518463ffffffff1660e01b8152600401610d829392919061380d565b602060405180830381600087803b158015610d9c57600080fd5b505af1158015610db0573d6000803e3d6000fd5b505050506040513d601f19601f82011682018060405250810190610dd491906131e9565b50600c60009054906101000a900473ffffffffffffffffffffffffffffffffffffffff1673ffffffffffffffffffffffffffffffffffffffff166323b872dd86600260008a815260200190815260200160002060009054906101000a900473ffffffffffffffffffffffffffffffffffffffff16846040518463ffffffff1660e01b8152600401610e679392919061380d565b602060405180830381600087803b158015610e8157600080fd5b505af1158015610e95573d6000803e3d6000fd5b505050506040513d601f19601f82011682018060405250810190610eb991906131e9565b50600c60009054906101000a900473ffffffffffffffffffffffffffffffffffffffff1673ffffffffffffffffffffffffffffffffffffffff166323b872dd8630856040518463ffffffff1660e01b8152600401610f199392919061380d565b602060405180830381600087803b158015610f3357600080fd5b505af1158015610f47573d6000803e3d6000fd5b505050506040513d601f19601f82011682018060405250810190610f6b91906131e9565b50610faa6002600088815260200190815260200160002060009054906101000a900473ffffffffffffffffffffffffffffffffffffffff168688611745565b505050505050565b600c60009054906101000a900473ffffffffffffffffffffffffffffffffffffffff1681565b610fe0611a7c565b610fe8611b18565b565b61100583838360405180602001604052806000815250611328565b505050565b60006110146107cb565b8210611055576040517f08c379a000000000000000000000000000000000000000000000000000000000815260040161104c90613b88565b60405180910390fd5b6008828154811061108f577f4e487b7100000000000000000000000000000000000000000000000000000000600052603260045260246000fd5b90600052602060002001549050919050565b6000600a60009054906101000a900460ff16905090565b6000806110c483611a3f565b9050600073ffffffffffffffffffffffffffffffffffffffff168173ffffffffffffffffffffffffffffffffffffffff161415611136576040517f08c379a000000000000000000000000000000000000000000000000000000000815260040161112d90613b08565b60405180910390fd5b80915050919050565b60008073ffffffffffffffffffffffffffffffffffffffff168273ffffffffffffffffffffffffffffffffffffffff1614156111b0576040517f08c379a00000000000000000000000000000000000000000000000000000000081526004016111a790613a88565b60405180910390fd5b600360008373ffffffffffffffffffffffffffffffffffffffff1673ffffffffffffffffffffffffffffffffffffffff168152602001908152602001600020549050919050565b6111ff611a7c565b6112096000611b7b565b565b611213611a7c565b61121b611c41565b565b6000600a60019054906101000a900473ffffffffffffffffffffffffffffffffffffffff16905090565b60606001805461125690613e79565b80601f016020809104026020016040519081016040528092919081815260200182805461128290613e79565b80156112cf5780601f106112a4576101008083540402835291602001916112cf565b820191906000526020600020905b8154815290600101906020018083116112b257829003601f168201915b5050505050905090565b60026020528060005260406000206000915054906101000a900473ffffffffffffffffffffffffffffffffffffffff1681565b61131e6113176115ef565b8383611ca4565b5050565b600d5481565b6113396113336115ef565b836116b0565b611378576040517f08c379a000000000000000000000000000000000000000000000000000000000815260040161136f90613948565b60405180910390fd5b61138484848484611e11565b50505050565b611392611a7c565b81600d8190555080600e819055505050565b600e5481565b60606113b5826115a4565b60006113bf611e6d565b905060008151116113df576040518060200160405280600081525061140a565b806113e984611e84565b6040516020016113fa9291906137ce565b6040516020818303038152906040525b915050919050565b6000600560008473ffffffffffffffffffffffffffffffffffffffff1673ffffffffffffffffffffffffffffffffffffffff16815260200190815260200160002060008373ffffffffffffffffffffffffffffffffffffffff1673ffffffffffffffffffffffffffffffffffffffff16815260200190815260200160002060009054906101000a900460ff16905092915050565b6114ae611a7c565b600073ffffffffffffffffffffffffffffffffffffffff168173ffffffffffffffffffffffffffffffffffffffff16141561151e576040517f08c379a0000000000000000000000000000000000000000000000000000000008152600401611515906139a8565b60405180910390fd5b61152781611b7b565b50565b60007f780e9d63000000000000000000000000000000000000000000000000000000007bffffffffffffffffffffffffffffffffffffffffffffffffffffffff1916827bffffffffffffffffffffffffffffffffffffffffffffffffffffffff1916148061159d575061159c82611fa8565b5b9050919050565b6115ad8161208a565b6115ec576040517f08c379a00000000000000000000000000000000000000000000000000000000081526004016115e390613b08565b60405180910390fd5b50565b600033905090565b816004600083815260200190815260200160002060006101000a81548173ffffffffffffffffffffffffffffffffffffffff021916908373ffffffffffffffffffffffffffffffffffffffff160217905550808273ffffffffffffffffffffffffffffffffffffffff1661166a836110b8565b73ffffffffffffffffffffffffffffffffffffffff167f8c5be1e5ebec7d5bd14f71427d1e84f3dd0314c0f7b2291e5b200ac8c7c3b92560405160405180910390a45050565b6000806116bc836110b8565b90508073ffffffffffffffffffffffffffffffffffffffff168473ffffffffffffffffffffffffffffffffffffffff1614806116fe57506116fd8185611412565b5b8061173c57508373ffffffffffffffffffffffffffffffffffffffff166117248461066d565b73ffffffffffffffffffffffffffffffffffffffff16145b91505092915050565b8273ffffffffffffffffffffffffffffffffffffffff16611765826110b8565b73ffffffffffffffffffffffffffffffffffffffff16146117bb576040517f08c379a00000000000000000000000000000000000000000000000000000000081526004016117b2906139c8565b60405180910390fd5b600073ffffffffffffffffffffffffffffffffffffffff168273ffffffffffffffffffffffffffffffffffffffff16141561182b576040517f08c379a000000000000000000000000000000000000000000000000000000000815260040161182290613a08565b60405180910390fd5b61183883838360016120cb565b8273ffffffffffffffffffffffffffffffffffffffff16611858826110b8565b73ffffffffffffffffffffffffffffffffffffffff16146118ae576040517f08c379a00000000000000000000000000000000000000000000000000000000081526004016118a5906139c8565b60405180910390fd5b6004600082815260200190815260200160002060006101000a81549073ffffffffffffffffffffffffffffffffffffffff02191690556001600360008573ffffffffffffffffffffffffffffffffffffffff1673ffffffffffffffffffffffffffffffffffffffff168152602001908152602001600020600082825403925050819055506001600360008473ffffffffffffffffffffffffffffffffffffffff1673ffffffffffffffffffffffffffffffffffffffff16815260200190815260200160002060008282540192505081905550816002600083815260200190815260200160002060006101000a81548173ffffffffffffffffffffffffffffffffffffffff021916908373ffffffffffffffffffffffffffffffffffffffff160217905550808273ffffffffffffffffffffffffffffffffffffffff168473ffffffffffffffffffffffffffffffffffffffff167fddf252ad1be2c89b69c2b068fc378daa952ba7f163c4a11628f55a4df523b3ef60405160405180910390a4611a3a83838360016120dd565b505050565b60006002600083815260200190815260200160002060009054906101000a900473ffffffffffffffffffffffffffffffffffffffff169050919050565b611a846115ef565b73ffffffffffffffffffffffffffffffffffffffff16611aa261121d565b73ffffffffffffffffffffffffffffffffffffffff1614611af8576040517f08c379a0000000000000000000000000000000000000000000000000000000008152600401611aef90613ac8565b60405180910390fd5b565b611b148282604051806020016040528060008152506120e3565b5050565b611b2061213e565b6000600a60006101000a81548160ff0219169083151502179055507f5db9ee0a495bf2e6ff9c91a7834c1ba4fdd244a5e8aa4e537bd38aeae4b073aa611b646115ef565b604051611b7191906137f2565b60405180910390a1565b6000600a60019054906101000a900473ffffffffffffffffffffffffffffffffffffffff16905081600a60016101000a81548173ffffffffffffffffffffffffffffffffffffffff021916908373ffffffffffffffffffffffffffffffffffffffff1602179055508173ffffffffffffffffffffffffffffffffffffffff168173ffffffffffffffffffffffffffffffffffffffff167f8be0079c531659141344cd1fd0a4f28419497f9722a3daafe3b4186f6b6457e060405160405180910390a35050565b611c49612187565b6001600a60006101000a81548160ff0219169083151502179055507f62e78cea01bee320cd4e420270b5ea74000d11b0c9f74754ebdbfc544b05a258611c8d6115ef565b604051611c9a91906137f2565b60405180910390a1565b8173ffffffffffffffffffffffffffffffffffffffff168373ffffffffffffffffffffffffffffffffffffffff161415611d13576040517f08c379a0000000000000000000000000000000000000000000000000000000008152600401611d0a90613a28565b60405180910390fd5b80600560008573ffffffffffffffffffffffffffffffffffffffff1673ffffffffffffffffffffffffffffffffffffffff16815260200190815260200160002060008473ffffffffffffffffffffffffffffffffffffffff1673ffffffffffffffffffffffffffffffffffffffff16815260200190815260200160002060006101000a81548160ff0219169083151502179055508173ffffffffffffffffffffffffffffffffffffffff168373ffffffffffffffffffffffffffffffffffffffff167f17307eab39ab6107e8899845ad3d59bd9653f200f220920489ca2b5937696c3183604051611e049190613890565b60405180910390a3505050565b611e1c848484611745565b611e28848484846121d1565b611e67576040517f08c379a0000000000000000000000000000000000000000000000000000000008152600401611e5e90613988565b60405180910390fd5b50505050565b606060405180602001604052806000815250905090565b606060006001611e9384612368565b01905060008167ffffffffffffffff811115611ed8577f4e487b7100000000000000000000000000000000000000000000000000000000600052604160045260246000fd5b6040519080825280601f01601f191660200182016040528015611f0a5781602001600182028036833780820191505090505b509050600082602001820190505b600115611f9d578080600190039150507f3031323334353637383961626364656600000000000000000000000000000000600a86061a8153600a8581611f87577f4e487b7100000000000000000000000000000000000000000000000000000000600052601260045260246000fd5b0494506000851415611f9857611f9d565b611f18565b819350505050919050565b60007f80ac58cd000000000000000000000000000000000000000000000000000000007bffffffffffffffffffffffffffffffffffffffffffffffffffffffff1916827bffffffffffffffffffffffffffffffffffffffffffffffffffffffff1916148061207357507f5b5e139f000000000000000000000000000000000000000000000000000000007bffffffffffffffffffffffffffffffffffffffffffffffffffffffff1916827bffffffffffffffffffffffffffffffffffffffffffffffffffffffff1916145b8061208357506120828261259f565b5b9050919050565b60008073ffffffffffffffffffffffffffffffffffffffff166120ac83611a3f565b73ffffffffffffffffffffffffffffffffffffffff1614159050919050565b6120d784848484612609565b50505050565b50505050565b6120ed8383612663565b6120fa60008484846121d1565b612139576040517f08c379a000000000000000000000000000000000000000000000000000000000815260040161213090613988565b60405180910390fd5b505050565b6121466110a1565b612185576040517f08c379a000000000000000000000000000000000000000000000000000000000815260040161217c90613928565b60405180910390fd5b565b61218f6110a1565b156121cf576040517f08c379a00000000000000000000000000000000000000000000000000000000081526004016121c690613a68565b60405180910390fd5b565b60006121f28473ffffffffffffffffffffffffffffffffffffffff16612881565b1561235b578373ffffffffffffffffffffffffffffffffffffffff1663150b7a0261221b6115ef565b8786866040518563ffffffff1660e01b815260040161223d9493929190613844565b602060405180830381600087803b15801561225757600080fd5b505af192505050801561228857506040513d601f19601f82011682018060405250810190612285919061323b565b60015b61230b573d80600081146122b8576040519150601f19603f3d011682016040523d82523d6000602084013e6122bd565b606091505b50600081511415612303576040517f08c379a00000000000000000000000000000000000000000000000000000000081526004016122fa90613988565b60405180910390fd5b805181602001fd5b63150b7a0260e01b7bffffffffffffffffffffffffffffffffffffffffffffffffffffffff1916817bffffffffffffffffffffffffffffffffffffffffffffffffffffffff191614915050612360565b600190505b949350505050565b600080600090507a184f03e93ff9f4daa797ed6e38ed64bf6a1f01000000000000000083106123ec577a184f03e93ff9f4daa797ed6e38ed64bf6a1f01000000000000000083816123e2577f4e487b7100000000000000000000000000000000000000000000000000000000600052601260045260246000fd5b0492506040810190505b6d04ee2d6d415b85acef8100000000831061244f576d04ee2d6d415b85acef81000000008381612445577f4e487b7100000000000000000000000000000000000000000000000000000000600052601260045260246000fd5b0492506020810190505b662386f26fc1000083106124a457662386f26fc10000838161249a577f4e487b7100000000000000000000000000000000000000000000000000000000600052601260045260246000fd5b0492506010810190505b6305f5e10083106124f3576305f5e10083816124e9577f4e487b7100000000000000000000000000000000000000000000000000000000600052601260045260246000fd5b0492506008810190505b612710831061253e576127108381612534577f4e487b7100000000000000000000000000000000000000000000000000000000600052601260045260246000fd5b0492506004810190505b60648310612587576064838161257d577f4e487b7100000000000000000000000000000000000000000000000000000000600052601260045260246000fd5b0492506002810190505b600a8310612596576001810190505b80915050919050565b60007f01ffc9a7000000000000000000000000000000000000000000000000000000007bffffffffffffffffffffffffffffffffffffffffffffffffffffffff1916827bffffffffffffffffffffffffffffffffffffffffffffffffffffffff1916149050919050565b612615848484846128a4565b61261d6110a1565b1561265d576040517f08c379a0000000000000000000000000000000000000000000000000000000008152600401612654906138e8565b60405180910390fd5b50505050565b600073ffffffffffffffffffffffffffffffffffffffff168273ffffffffffffffffffffffffffffffffffffffff1614156126d3576040517f08c379a00000000000000000000000000000000000000000000000000000000081526004016126ca90613aa8565b60405180910390fd5b6126dc8161208a565b1561271c576040517f08c379a0000000000000000000000000000000000000000000000000000000008152600401612713906139e8565b60405180910390fd5b61272a6000838360016120cb565b6127338161208a565b15612773576040517f08c379a000000000000000000000000000000000000000000000000000000000815260040161276a906139e8565b60405180910390fd5b6001600360008473ffffffffffffffffffffffffffffffffffffffff1673ffffffffffffffffffffffffffffffffffffffff16815260200190815260200160002060008282540192505081905550816002600083815260200190815260200160002060006101000a81548173ffffffffffffffffffffffffffffffffffffffff021916908373ffffffffffffffffffffffffffffffffffffffff160217905550808273ffffffffffffffffffffffffffffffffffffffff16600073ffffffffffffffffffffffffffffffffffffffff167fddf252ad1be2c89b69c2b068fc378daa952ba7f163c4a11628f55a4df523b3ef60405160405180910390a461287d6000838360016120dd565b5050565b6000808273ffffffffffffffffffffffffffffffffffffffff163b119050919050565b6128b084848484612a04565b60018111156128f4576040517f08c379a00000000000000000000000000000000000000000000000000000000081526004016128eb90613ba8565b60405180910390fd5b6000829050600073ffffffffffffffffffffffffffffffffffffffff168573ffffffffffffffffffffffffffffffffffffffff16141561293c5761293781612a0a565b61297b565b8373ffffffffffffffffffffffffffffffffffffffff168573ffffffffffffffffffffffffffffffffffffffff161461297a576129798582612a53565b5b5b600073ffffffffffffffffffffffffffffffffffffffff168473ffffffffffffffffffffffffffffffffffffffff1614156129be576129b981612bc0565b6129fd565b8473ffffffffffffffffffffffffffffffffffffffff168473ffffffffffffffffffffffffffffffffffffffff16146129fc576129fb8482612d03565b5b5b5050505050565b50505050565b6008805490506009600083815260200190815260200160002081905550600881908060018154018082558091505060019003906000526020600020016000909190919091505550565b60006001612a608461113f565b612a6a9190613d6b565b9050600060076000848152602001908152602001600020549050818114612b4f576000600660008673ffffffffffffffffffffffffffffffffffffffff1673ffffffffffffffffffffffffffffffffffffffff168152602001908152602001600020600084815260200190815260200160002054905080600660008773ffffffffffffffffffffffffffffffffffffffff1673ffffffffffffffffffffffffffffffffffffffff168152602001908152602001600020600084815260200190815260200160002081905550816007600083815260200190815260200160002081905550505b6007600084815260200190815260200160002060009055600660008573ffffffffffffffffffffffffffffffffffffffff1673ffffffffffffffffffffffffffffffffffffffff16815260200190815260200160002060008381526020019081526020016000206000905550505050565b60006001600880549050612bd49190613d6b565b9050600060096000848152602001908152602001600020549050600060088381548110612c2a577f4e487b7100000000000000000000000000000000000000000000000000000000600052603260045260246000fd5b906000526020600020015490508060088381548110612c72577f4e487b7100000000000000000000000000000000000000000000000000000000600052603260045260246000fd5b906000526020600020018190555081600960008381526020019081526020016000208190555060096000858152602001908152602001600020600090556008805480612ce7577f4e487b7100000000000000000000000000000000000000000000000000000000600052603160045260246000fd5b6001900381819060005260206000200160009055905550505050565b6000612d0e8361113f565b905081600660008573ffffffffffffffffffffffffffffffffffffffff1673ffffffffffffffffffffffffffffffffffffffff168152602001908152602001600020600083815260200190815260200160002081905550806007600084815260200190815260200160002081905550505050565b6040518060800160405280606081526020016060815260200160008152602001600081525090565b828054612db690613e79565b90600052602060002090601f016020900481019282612dd85760008555612e1f565b82601f10612df157805160ff1916838001178555612e1f565b82800160010185558215612e1f579182015b82811115612e1e578251825591602001919060010190612e03565b5b509050612e2c9190612e30565b5090565b5b80821115612e49576000816000905550600101612e31565b5090565b6000612e60612e5b84613c2a565b613c05565b905082815260208101848484011115612e7857600080fd5b612e83848285613e37565b509392505050565b6000612e9e612e9984613c5b565b613c05565b905082815260208101848484011115612eb657600080fd5b612ec1848285613e37565b509392505050565b600081359050612ed881614601565b92915050565b600081359050612eed81614618565b92915050565b600081519050612f0281614618565b92915050565b600081359050612f178161462f565b92915050565b600081519050612f2c8161462f565b92915050565b600082601f830112612f4357600080fd5b8135612f53848260208601612e4d565b91505092915050565b600082601f830112612f6d57600080fd5b8135612f7d848260208601612e8b565b91505092915050565b600081359050612f9581614646565b92915050565b600060208284031215612fad57600080fd5b6000612fbb84828501612ec9565b91505092915050565b60008060408385031215612fd757600080fd5b6000612fe585828601612ec9565b9250506020612ff685828601612ec9565b9150509250929050565b60008060006060848603121561301557600080fd5b600061302386828701612ec9565b935050602061303486828701612ec9565b925050604061304586828701612f86565b9150509250925092565b6000806000806080858703121561306557600080fd5b600061307387828801612ec9565b945050602061308487828801612ec9565b935050604061309587828801612f86565b925050606085013567ffffffffffffffff8111156130b257600080fd5b6130be87828801612f32565b91505092959194509250565b600080604083850312156130dd57600080fd5b60006130eb85828601612ec9565b92505060206130fc85828601612ede565b9150509250929050565b600080600080600060a0868803121561311e57600080fd5b600061312c88828901612ec9565b955050602086013567ffffffffffffffff81111561314957600080fd5b61315588828901612f5c565b945050604086013567ffffffffffffffff81111561317257600080fd5b61317e88828901612f5c565b935050606061318f88828901612f86565b92505060806131a088828901612f86565b9150509295509295909350565b600080604083850312156131c057600080fd5b60006131ce85828601612ec9565b92505060206131df85828601612f86565b9150509250929050565b6000602082840312156131fb57600080fd5b600061320984828501612ef3565b91505092915050565b60006020828403121561322457600080fd5b600061323284828501612f08565b91505092915050565b60006020828403121561324d57600080fd5b600061325b84828501612f1d565b91505092915050565b60006020828403121561327657600080fd5b600061328484828501612f86565b91505092915050565b6000806000606084860312156132a257600080fd5b60006132b086828701612f86565b93505060206132c186828701612ec9565b92505060406132d286828701612f86565b9150509250925092565b600080604083850312156132ef57600080fd5b60006132fd85828601612f86565b925050602061330e85828601612f86565b9150509250929050565b61332181613d9f565b82525050565b61333081613db1565b82525050565b600061334182613c8c565b61334b8185613ca2565b935061335b818560208601613e46565b61336481613fe1565b840191505092915050565b61337881613e13565b82525050565b600061338982613c97565b6133938185613cb3565b93506133a3818560208601613e46565b6133ac81613fe1565b840191505092915050565b60006133c282613c97565b6133cc8185613cc4565b93506133dc818560208601613e46565b6133e581613fe1565b840191505092915050565b60006133fb82613c97565b6134058185613cd5565b9350613415818560208601613e46565b80840191505092915050565b600061342e602b83613cc4565b915061343982613ff2565b604082019050919050565b6000613451602b83613cc4565b915061345c82614041565b604082019050919050565b6000613474601483613cc4565b915061347f82614090565b602082019050919050565b6000613497602d83613cc4565b91506134a2826140b9565b604082019050919050565b60006134ba602b83613cc4565b91506134c582614108565b604082019050919050565b60006134dd603283613cc4565b91506134e882614157565b604082019050919050565b6000613500602683613cc4565b915061350b826141a6565b604082019050919050565b6000613523602583613cc4565b915061352e826141f5565b604082019050919050565b6000613546601c83613cc4565b915061355182614244565b602082019050919050565b6000613569602483613cc4565b91506135748261426d565b604082019050919050565b600061358c601983613cc4565b9150613597826142bc565b602082019050919050565b60006135af602683613cc4565b91506135ba826142e5565b604082019050919050565b60006135d2601083613cc4565b91506135dd82614334565b602082019050919050565b60006135f5602983613cc4565b91506136008261435d565b604082019050919050565b6000613618602083613cc4565b9150613623826143ac565b602082019050919050565b600061363b602083613cc4565b9150613646826143d5565b602082019050919050565b600061365e602383613cc4565b9150613669826143fe565b604082019050919050565b6000613681601883613cc4565b915061368c8261444d565b602082019050919050565b60006136a4602183613cc4565b91506136af82614476565b604082019050919050565b60006136c7603d83613cc4565b91506136d2826144c5565b604082019050919050565b60006136ea603183613cc4565b91506136f582614514565b604082019050919050565b600061370d602c83613cc4565b915061371882614563565b604082019050919050565b6000613730603583613cc4565b915061373b826145b2565b604082019050919050565b60006080830160008301518482036000860152613763828261337e565b9150506020830151848203602086015261377d828261337e565b915050604083015161379260408601826137b0565b5060608301516137a560608601826137b0565b508091505092915050565b6137b981613e09565b82525050565b6137c881613e09565b82525050565b60006137da82856133f0565b91506137e682846133f0565b91508190509392505050565b60006020820190506138076000830184613318565b92915050565b60006060820190506138226000830186613318565b61382f6020830185613318565b61383c60408301846137bf565b949350505050565b60006080820190506138596000830187613318565b6138666020830186613318565b61387360408301856137bf565b81810360608301526138858184613336565b905095945050505050565b60006020820190506138a56000830184613327565b92915050565b60006020820190506138c0600083018461336f565b92915050565b600060208201905081810360008301526138e081846133b7565b905092915050565b6000602082019050818103600083015261390181613421565b9050919050565b6000602082019050818103600083015261392181613444565b9050919050565b6000602082019050818103600083015261394181613467565b9050919050565b600060208201905081810360008301526139618161348a565b9050919050565b60006020820190508181036000830152613981816134ad565b9050919050565b600060208201905081810360008301526139a1816134d0565b9050919050565b600060208201905081810360008301526139c1816134f3565b9050919050565b600060208201905081810360008301526139e181613516565b9050919050565b60006020820190508181036000830152613a0181613539565b9050919050565b60006020820190508181036000830152613a218161355c565b9050919050565b60006020820190508181036000830152613a418161357f565b9050919050565b60006020820190508181036000830152613a61816135a2565b9050919050565b60006020820190508181036000830152613a81816135c5565b9050919050565b60006020820190508181036000830152613aa1816135e8565b9050919050565b60006020820190508181036000830152613ac18161360b565b9050919050565b60006020820190508181036000830152613ae18161362e565b9050919050565b60006020820190508181036000830152613b0181613651565b9050919050565b60006020820190508181036000830152613b2181613674565b9050919050565b60006020820190508181036000830152613b4181613697565b9050919050565b60006020820190508181036000830152613b61816136ba565b9050919050565b60006020820190508181036000830152613b81816136dd565b9050919050565b60006020820190508181036000830152613ba181613700565b9050919050565b60006020820190508181036000830152613bc181613723565b9050919050565b60006020820190508181036000830152613be28184613746565b905092915050565b6000602082019050613bff60008301846137bf565b92915050565b6000613c0f613c20565b9050613c1b8282613eab565b919050565b6000604051905090565b600067ffffffffffffffff821115613c4557613c44613fb2565b5b613c4e82613fe1565b9050602081019050919050565b600067ffffffffffffffff821115613c7657613c75613fb2565b5b613c7f82613fe1565b9050602081019050919050565b600081519050919050565b600081519050919050565b600082825260208201905092915050565b600082825260208201905092915050565b600082825260208201905092915050565b600081905092915050565b6000613ceb82613e09565b9150613cf683613e09565b925082613d0657613d05613f54565b5b828204905092915050565b6000613d1c82613e09565b9150613d2783613e09565b9250817fffffffffffffffffffffffffffffffffffffffffffffffffffffffffffffffff0483118215151615613d6057613d5f613f25565b5b828202905092915050565b6000613d7682613e09565b9150613d8183613e09565b925082821015613d9457613d93613f25565b5b828203905092915050565b6000613daa82613de9565b9050919050565b60008115159050919050565b60007fffffffff0000000000000000000000000000000000000000000000000000000082169050919050565b600073ffffffffffffffffffffffffffffffffffffffff82169050919050565b6000819050919050565b6000613e1e82613e25565b9050919050565b6000613e3082613de9565b9050919050565b82818337600083830152505050565b60005b83811015613e64578082015181840152602081019050613e49565b83811115613e73576000848401525b50505050565b60006002820490506001821680613e9157607f821691505b60208210811415613ea557613ea4613f83565b5b50919050565b613eb482613fe1565b810181811067ffffffffffffffff82111715613ed357613ed2613fb2565b5b80604052505050565b6000613ee782613e09565b91507fffffffffffffffffffffffffffffffffffffffffffffffffffffffffffffffff821415613f1a57613f19613f25565b5b600182019050919050565b7f4e487b7100000000000000000000000000000000000000000000000000000000600052601160045260246000fd5b7f4e487b7100000000000000000000000000000000000000000000000000000000600052601260045260246000fd5b7f4e487b7100000000000000000000000000000000000000000000000000000000600052602260045260246000fd5b7f4e487b7100000000000000000000000000000000000000000000000000000000600052604160045260246000fd5b6000601f19601f8301169050919050565b7f4552433732315061757361626c653a20746f6b656e207472616e73666572207760008201527f68696c6520706175736564000000000000000000000000000000000000000000602082015250565b7f4552433732314d657461646174613a20517565727920666f72206e6f6e65786960008201527f7374656e7420746f6b656e000000000000000000000000000000000000000000602082015250565b7f5061757361626c653a206e6f7420706175736564000000000000000000000000600082015250565b7f4552433732313a2063616c6c6572206973206e6f7420746f6b656e206f776e6560008201527f72206f7220617070726f76656400000000000000000000000000000000000000602082015250565b7f455243373231456e756d657261626c653a206f776e657220696e646578206f7560008201527f74206f6620626f756e6473000000000000000000000000000000000000000000602082015250565b7f4552433732313a207472616e7366657220746f206e6f6e20455243373231526560008201527f63656976657220696d706c656d656e7465720000000000000000000000000000602082015250565b7f4f776e61626c653a206e6577206f776e657220697320746865207a65726f206160008201527f6464726573730000000000000000000000000000000000000000000000000000602082015250565b7f4552433732313a207472616e736665722066726f6d20696e636f72726563742060008201527f6f776e6572000000000000000000000000000000000000000000000000000000602082015250565b7f4552433732313a20746f6b656e20616c7265616479206d696e74656400000000600082015250565b7f4552433732313a207472616e7366657220746f20746865207a65726f2061646460008201527f7265737300000000000000000000000000000000000000000000000000000000602082015250565b7f4552433732313a20617070726f766520746f2063616c6c657200000000000000600082015250565b7f526573616c652070726f6869626974656420636c6f736520746f20666c69676860008201527f742074696d650000000000000000000000000000000000000000000000000000602082015250565b7f5061757361626c653a2070617573656400000000000000000000000000000000600082015250565b7f4552433732313a2061646472657373207a65726f206973206e6f74206120766160008201527f6c6964206f776e65720000000000000000000000000000000000000000000000602082015250565b7f4552433732313a206d696e7420746f20746865207a65726f2061646472657373600082015250565b7f4f776e61626c653a2063616c6c6572206973206e6f7420746865206f776e6572600082015250565b7f4552433732313a2062757965722063616e206e6f74206265207468652073656c60008201527f6c65720000000000000000000000000000000000000000000000000000000000602082015250565b7f4552433732313a20696e76616c696420746f6b656e2049440000000000000000600082015250565b7f4552433732313a20617070726f76616c20746f2063757272656e74206f776e6560008201527f7200000000000000000000000000000000000000000000000000000000000000602082015250565b7f4552433732313a20617070726f76652063616c6c6572206973206e6f7420746f60008201527f6b656e206f776e6572206f7220617070726f76656420666f7220616c6c000000602082015250565b7f4552433732313a207472616e736665722063616c6c6572206973206e6f74206f60008201527f776e6572206e6f7220617070726f766564000000000000000000000000000000602082015250565b7f455243373231456e756d657261626c653a20676c6f62616c20696e646578206f60008201527f7574206f6620626f756e64730000000000000000000000000000000000000000602082015250565b7f455243373231456e756d657261626c653a20636f6e736563757469766520747260008201527f616e7366657273206e6f7420737570706f727465640000000000000000000000602082015250565b61460a81613d9f565b811461461557600080fd5b50565b61462181613db1565b811461462c57600080fd5b50565b61463881613dbd565b811461464357600080fd5b50565b61464f81613e09565b811461465a57600080fd5b5056fea26469706673582212200037c720057fba6806a730cf9f3eacff1bc92adcb7adf75f7fc83ae84c2a9e9564736f6c63430008010033",
  "immutableReferences": {},
  "source": "// SPDX-License-Identifier: MIT\n// Compatible with OpenZeppelin Contracts ^5.0.0\npragma solidity ^0.8.1;\n\nimport \"@openzeppelin/contracts/token/ERC721/ERC721.sol\";\nimport \"@openzeppelin/contracts/token/ERC721/extensions/ERC721Enumerable.sol\";\nimport \"@openzeppelin/contracts/token/ERC721/extensions/ERC721Pausable.sol\";\nimport \"@openzeppelin/contracts/access/Ownable.sol\";\nimport \"@openzeppelin/contracts/token/ERC20/IERC20.sol\";\n\ncontract TraveldqToken is ERC721, ERC721Enumerable, ERC721Pausable, Ownable {\n    uint256 private _nextTokenId;\n\n    IERC20 public usdc; // USDC token interface\n\n    uint256 public airlineFeePercentage = 5;\n    uint256 public traveldqFeePercentage = 5;\n\n    // Metadata structure for each ticket\n    struct TicketMetadata {\n        string airlineCode;\n        string pnr;\n        uint256 travelDate;\n        uint256 flightTime;\n    }\n\n    mapping(uint256 => TicketMetadata) private _ticketDetails;\n\n    constructor(address usdcAddress)\n        ERC721(\"TraveldqToken\", \"TDT\")\n    {\n        transferOwnership(_msgSender());\n        usdc = IERC20(usdcAddress);\n    }\n\n\n    function mintTicket(address to, string memory airlineCode, string memory pnr, uint256 travelDate, uint256 flightTime) public onlyOwner {\n        uint256 tokenId = _nextTokenId++;\n        _ticketDetails[tokenId] = TicketMetadata(airlineCode, pnr, travelDate, flightTime);\n        _safeMint(to, tokenId);\n    }\n\n    function pause() public onlyOwner {\n        _pause();\n    }\n\n    function unpause() public onlyOwner {\n        _unpause();\n    }\n\n    function sellTicket(uint256 tokenId, address buyer, uint256 salePrice) public {\n        require(buyer != _owners[tokenId], \"ERC721: buyer can not be the seller\");\n        require(_isApprovedOrOwner(buyer, tokenId), \"ERC721: transfer caller is not owner nor approved\");\n        require(block.timestamp <= _ticketDetails[tokenId].flightTime - 3 hours, \"Resale prohibited close to flight time\");\n\n        uint256 airlineFee = (salePrice * airlineFeePercentage) / 100;\n        uint256 traveldqFee = (salePrice * traveldqFeePercentage) / 100;\n        uint256 sellerRevenue = salePrice - airlineFee - traveldqFee;\n\n        usdc.transferFrom(buyer, owner(), airlineFee);\n        usdc.transferFrom(buyer, _owners[tokenId], sellerRevenue);\n        usdc.transferFrom(buyer, address(this), traveldqFee);\n\n        _transfer(_owners[tokenId], buyer, tokenId);\n    }\n\n    function setDistributionRatios(uint256 newAirlineFeePercentage, uint256 newTraveldqFeePercentage) public onlyOwner {\n        airlineFeePercentage = newAirlineFeePercentage;\n        traveldqFeePercentage = newTraveldqFeePercentage;\n    }\n\n    function getTicketDetails(uint256 tokenId) public view returns (TicketMetadata memory) {\n        require(_ownerOf(tokenId) != address(0), \"ERC721Metadata: Query for nonexistent token\");\n        return _ticketDetails[tokenId];\n    }\n\n    function supportsInterface(bytes4 interfaceId)\n        public\n        view\n        override(ERC721, ERC721Enumerable)\n        returns (bool)\n    {\n        return super.supportsInterface(interfaceId);\n    }\n\n    function _beforeTokenTransfer(\n        address from,\n        address to,\n        uint256 tokenId,\n        uint256 batchSize\n    ) internal virtual override(ERC721, ERC721Pausable, ERC721Enumerable) {\n        super._beforeTokenTransfer(from, to, tokenId, batchSize);\n\n        // do stuff before every transfer\n        // e.g. check that vote (other than when minted) \n        // being transferred to registered candidate\n    }\n\n\n}\n",
  "sourcePath": "/Users/atpuroh/Downloads/Workspace/traveldq-contract/contracts/TraveldqToken.sol",
  "compiler": {
    "name": "solc",
    "version": "0.8.1+commit.df193b15.Emscripten.clang"
  },
  "schemaVersion": "3.4.16",
  "updatedAt": "2024-03-19T04:11:19.288Z",
  "networkType": "ethereum",
  "devdoc": {
    "kind": "dev",
    "methods": {
      "approve(address,uint256)": {
        "details": "See {IERC721-approve}."
      },
      "balanceOf(address)": {
        "details": "See {IERC721-balanceOf}."
      },
      "getApproved(uint256)": {
        "details": "See {IERC721-getApproved}."
      },
      "isApprovedForAll(address,address)": {
        "details": "See {IERC721-isApprovedForAll}."
      },
      "name()": {
        "details": "See {IERC721Metadata-name}."
      },
      "owner()": {
        "details": "Returns the address of the current owner."
      },
      "ownerOf(uint256)": {
        "details": "See {IERC721-ownerOf}."
      },
      "paused()": {
        "details": "Returns true if the contract is paused, and false otherwise."
      },
      "renounceOwnership()": {
        "details": "Leaves the contract without owner. It will not be possible to call `onlyOwner` functions. Can only be called by the current owner. NOTE: Renouncing ownership will leave the contract without an owner, thereby disabling any functionality that is only available to the owner."
      },
      "safeTransferFrom(address,address,uint256)": {
        "details": "See {IERC721-safeTransferFrom}."
      },
      "safeTransferFrom(address,address,uint256,bytes)": {
        "details": "See {IERC721-safeTransferFrom}."
      },
      "setApprovalForAll(address,bool)": {
        "details": "See {IERC721-setApprovalForAll}."
      },
      "symbol()": {
        "details": "See {IERC721Metadata-symbol}."
      },
      "tokenByIndex(uint256)": {
        "details": "See {IERC721Enumerable-tokenByIndex}."
      },
      "tokenOfOwnerByIndex(address,uint256)": {
        "details": "See {IERC721Enumerable-tokenOfOwnerByIndex}."
      },
      "tokenURI(uint256)": {
        "details": "See {IERC721Metadata-tokenURI}."
      },
      "totalSupply()": {
        "details": "See {IERC721Enumerable-totalSupply}."
      },
      "transferFrom(address,address,uint256)": {
        "details": "See {IERC721-transferFrom}."
      },
      "transferOwnership(address)": {
        "details": "Transfers ownership of the contract to a new account (`newOwner`). Can only be called by the current owner."
      }
    },
    "version": 1
  },
  "userdoc": {
    "kind": "user",
    "methods": {},
    "version": 1
  }
}